{
  "contractName": "ProxyFactory",
  "abi": [
    {
      "inputs": [],
      "payable": false,
      "stateMutability": "nonpayable",
      "type": "constructor"
    },
    {
      "anonymous": false,
      "inputs": [
        {
          "indexed": false,
          "internalType": "address",
          "name": "proxy",
          "type": "address"
        }
      ],
      "name": "ProxyCreated",
      "type": "event"
    },
    {
      "constant": false,
      "inputs": [
        {
          "internalType": "address",
          "name": "_logic",
          "type": "address"
        },
        {
          "internalType": "bytes",
          "name": "_data",
          "type": "bytes"
        }
      ],
      "name": "deployMinimal",
      "outputs": [
        {
          "internalType": "address",
          "name": "proxy",
          "type": "address"
        }
      ],
      "payable": false,
      "stateMutability": "nonpayable",
      "type": "function"
    },
    {
      "constant": false,
      "inputs": [
        {
          "internalType": "uint256",
          "name": "_salt",
          "type": "uint256"
        },
        {
          "internalType": "address",
          "name": "_logic",
          "type": "address"
        },
        {
          "internalType": "address",
          "name": "_admin",
          "type": "address"
        },
        {
          "internalType": "bytes",
          "name": "_data",
          "type": "bytes"
        }
      ],
      "name": "deploy",
      "outputs": [
        {
          "internalType": "address",
          "name": "",
          "type": "address"
        }
      ],
      "payable": false,
      "stateMutability": "nonpayable",
      "type": "function"
    },
    {
      "constant": false,
      "inputs": [
        {
          "internalType": "uint256",
          "name": "_salt",
          "type": "uint256"
        },
        {
          "internalType": "address",
          "name": "_logic",
          "type": "address"
        },
        {
          "internalType": "address",
          "name": "_admin",
          "type": "address"
        },
        {
          "internalType": "bytes",
          "name": "_data",
          "type": "bytes"
        },
        {
          "internalType": "bytes",
          "name": "_signature",
          "type": "bytes"
        }
      ],
      "name": "deploySigned",
      "outputs": [
        {
          "internalType": "address",
          "name": "",
          "type": "address"
        }
      ],
      "payable": false,
      "stateMutability": "nonpayable",
      "type": "function"
    },
    {
      "constant": true,
      "inputs": [
        {
          "internalType": "uint256",
          "name": "_salt",
          "type": "uint256"
        },
        {
          "internalType": "address",
          "name": "_sender",
          "type": "address"
        }
      ],
      "name": "getDeploymentAddress",
      "outputs": [
        {
          "internalType": "address",
          "name": "",
          "type": "address"
        }
      ],
      "payable": false,
      "stateMutability": "view",
      "type": "function"
    },
    {
      "constant": true,
      "inputs": [
        {
          "internalType": "uint256",
          "name": "_salt",
          "type": "uint256"
        },
        {
          "internalType": "address",
          "name": "_logic",
          "type": "address"
        },
        {
          "internalType": "address",
          "name": "_admin",
          "type": "address"
        },
        {
          "internalType": "bytes",
          "name": "_data",
          "type": "bytes"
        },
        {
          "internalType": "bytes",
          "name": "_signature",
          "type": "bytes"
        }
      ],
      "name": "getSigner",
      "outputs": [
        {
          "internalType": "address",
          "name": "",
          "type": "address"
        }
      ],
      "payable": false,
      "stateMutability": "view",
      "type": "function"
    }
  ],
  "bytecode": "0x608060405234801561001057600080fd5b506040518060200161002190610047565b6020820181038252601f19601f8201166040525080519060200120600081905550610054565b610d1280611d3083390190565b611ccd806100636000396000f3fe608060405234801561001057600080fd5b50600436106100575760003560e01c8063290f8f561461005c578063332d6626146102385780636150864c1461041457806381ae1f5b14610559578063b3eeb5e2146105e7575b600080fd5b6101f6600480360360a081101561007257600080fd5b8101908080359060200190929190803573ffffffffffffffffffffffffffffffffffffffff169060200190929190803573ffffffffffffffffffffffffffffffffffffffff169060200190929190803590602001906401000000008111156100d957600080fd5b8201836020820111156100eb57600080fd5b8035906020019184600183028401116401000000008311171561010d57600080fd5b91908080601f016020809104026020016040519081016040528093929190818152602001838380828437600081840152601f19601f8201169050808301925050505050505091929192908035906020019064010000000081111561017057600080fd5b82018360208201111561018257600080fd5b803590602001918460018302840111640100000000831117156101a457600080fd5b91908080601f016020809104026020016040519081016040528093929190818152602001838380828437600081840152601f19601f820116905080830192505050505050509192919290505050610702565b604051808273ffffffffffffffffffffffffffffffffffffffff1673ffffffffffffffffffffffffffffffffffffffff16815260200191505060405180910390f35b6103d2600480360360a081101561024e57600080fd5b8101908080359060200190929190803573ffffffffffffffffffffffffffffffffffffffff169060200190929190803573ffffffffffffffffffffffffffffffffffffffff169060200190929190803590602001906401000000008111156102b557600080fd5b8201836020820111156102c757600080fd5b803590602001918460018302840111640100000000831117156102e957600080fd5b91908080601f016020809104026020016040519081016040528093929190818152602001838380828437600081840152601f19601f8201169050808301925050505050505091929192908035906020019064010000000081111561034c57600080fd5b82018360208201111561035e57600080fd5b8035906020019184600183028401116401000000008311171561038057600080fd5b91908080601f016020809104026020016040519081016040528093929190818152602001838380828437600081840152601f19601f820116905080830192505050505050509192919290505050610844565b604051808273ffffffffffffffffffffffffffffffffffffffff1673ffffffffffffffffffffffffffffffffffffffff16815260200191505060405180910390f35b6105176004803603608081101561042a57600080fd5b8101908080359060200190929190803573ffffffffffffffffffffffffffffffffffffffff169060200190929190803573ffffffffffffffffffffffffffffffffffffffff1690602001909291908035906020019064010000000081111561049157600080fd5b8201836020820111156104a357600080fd5b803590602001918460018302840111640100000000831117156104c557600080fd5b91908080601f016020809104026020016040519081016040528093929190818152602001838380828437600081840152601f19601f820116905080830192505050505050509192919290505050610912565b604051808273ffffffffffffffffffffffffffffffffffffffff1673ffffffffffffffffffffffffffffffffffffffff16815260200191505060405180910390f35b6105a56004803603604081101561056f57600080fd5b8101908080359060200190929190803573ffffffffffffffffffffffffffffffffffffffff16906020019092919050505061092b565b604051808273ffffffffffffffffffffffffffffffffffffffff1673ffffffffffffffffffffffffffffffffffffffff16815260200191505060405180910390f35b6106c0600480360360408110156105fd57600080fd5b81019080803573ffffffffffffffffffffffffffffffffffffffff1690602001909291908035906020019064010000000081111561063a57600080fd5b82018360208201111561064c57600080fd5b8035906020019184600183028401116401000000008311171561066e57600080fd5b91908080601f016020809104026020016040519081016040528093929190818152602001838380828437600081840152601f19601f820116905080830192505050505050509192919290505050610a08565b604051808273ffffffffffffffffffffffffffffffffffffffff1673ffffffffffffffffffffffffffffffffffffffff16815260200191505060405180910390f35b60008061082c8787878730604051602001808681526020018573ffffffffffffffffffffffffffffffffffffffff1673ffffffffffffffffffffffffffffffffffffffff1660601b81526014018473ffffffffffffffffffffffffffffffffffffffff1673ffffffffffffffffffffffffffffffffffffffff1660601b815260140183805190602001908083835b602083106107b35780518252602082019150602081019050602083039250610790565b6001836020036101000a0380198251168184511680821785525050505050509050018273ffffffffffffffffffffffffffffffffffffffff1673ffffffffffffffffffffffffffffffffffffffff1660601b81526014019550505050505060405160208183030381529060405280519060200120610ba3565b90506108388184610bfb565b91505095945050505050565b6000806108548787878787610702565b9050600073ffffffffffffffffffffffffffffffffffffffff168173ffffffffffffffffffffffffffffffffffffffff1614156108f9576040517f08c379a00000000000000000000000000000000000000000000000000000000081526004018080602001828103825260118152602001807f496e76616c6964207369676e617475726500000000000000000000000000000081525060200191505060405180910390fd5b6109068787878785610cff565b91505095945050505050565b60006109218585858533610cff565b9050949350505050565b6000806109388484610eb5565b9050600060ff60f81b308360005460405160200180857effffffffffffffffffffffffffffffffffffffffffffffffffffffffffffff19167effffffffffffffffffffffffffffffffffffffffffffffffffffffffffffff191681526001018473ffffffffffffffffffffffffffffffffffffffff1673ffffffffffffffffffffffffffffffffffffffff1660601b8152601401838152602001828152602001945050505050604051602081830303815290604052805190602001209050606081901b60601c9250505092915050565b6000808360601b90506040517f3d602d80600a3d3981f3363d3d373d3d3d363d7300000000000000000000000081528160148201527f5af43d82803e903d91602b57fd5bf3000000000000000000000000000000000060288201526037816000f09250507efffc2da0b561cae30d9826d37709e9421c4725faebc226cbbb7ef5fc5e734982604051808273ffffffffffffffffffffffffffffffffffffffff1673ffffffffffffffffffffffffffffffffffffffff16815260200191505060405180910390a1600083511115610b9c5760008273ffffffffffffffffffffffffffffffffffffffff16846040518082805190602001908083835b60208310610b255780518252602082019150602081019050602083039250610b02565b6001836020036101000a0380198251168184511680821785525050505050509050019150506000604051808303816000865af19150503d8060008114610b87576040519150601f19603f3d011682016040523d82523d6000602084013e610b8c565b606091505b5050905080610b9a57600080fd5b505b5092915050565b60008160405160200180807f19457468657265756d205369676e6564204d6573736167653a0a333200000000815250601c01828152602001915050604051602081830303815290604052805190602001209050919050565b60006041825114610c0f5760009050610cf9565b60008060006020850151925060408501519150606085015160001a90507f7fffffffffffffffffffffffffffffff5d576e7357a4501ddfe92f46681b20a08260001c1115610c635760009350505050610cf9565b601b8160ff1614158015610c7b5750601c8160ff1614155b15610c8c5760009350505050610cf9565b60018682858560405160008152602001604052604051808581526020018460ff1660ff1681526020018381526020018281526020019450505050506020604051602081039080840390855afa158015610ce9573d6000803e3d6000fd5b5050506020604051035193505050505b92915050565b600080610d0c8784610f1d565b90507efffc2da0b561cae30d9826d37709e9421c4725faebc226cbbb7ef5fc5e734981604051808273ffffffffffffffffffffffffffffffffffffffff1673ffffffffffffffffffffffffffffffffffffffff16815260200191505060405180910390a18073ffffffffffffffffffffffffffffffffffffffff1663cf7a1d778787876040518463ffffffff1660e01b8152600401808473ffffffffffffffffffffffffffffffffffffffff1673ffffffffffffffffffffffffffffffffffffffff1681526020018373ffffffffffffffffffffffffffffffffffffffff1673ffffffffffffffffffffffffffffffffffffffff16815260200180602001828103825283818151815260200191508051906020019080838360005b83811015610e42578082015181840152602081019050610e27565b50505050905090810190601f168015610e6f5780820380516001836020036101000a031916815260200191505b50945050505050600060405180830381600087803b158015610e9057600080fd5b505af1158015610ea4573d6000803e3d6000fd5b505050508091505095945050505050565b60008282604051602001808381526020018273ffffffffffffffffffffffffffffffffffffffff1673ffffffffffffffffffffffffffffffffffffffff1660601b81526014019250505060405160208183030381529060405280519060200120905092915050565b600080606060405180602001610f3290610f79565b6020820181038252601f19601f8201166040525090506000610f548686610eb5565b9050808251602084016000f59250823b610f6d57600080fd5b82935050505092915050565b610d1280610f878339019056fe608060405234801561001057600080fd5b50610cf2806100206000396000f3fe6080604052600436106100605760003560e01c80633659cfe61461006a5780634f1ef286146100bb5780635c60da1b146101545780638f283970146101ab578063cf7a1d77146101fc578063d1f57894146102f7578063f851a440146103d2575b610068610429565b005b34801561007657600080fd5b506100b96004803603602081101561008d57600080fd5b81019080803573ffffffffffffffffffffffffffffffffffffffff169060200190929190505050610443565b005b610152600480360360408110156100d157600080fd5b81019080803573ffffffffffffffffffffffffffffffffffffffff1690602001909291908035906020019064010000000081111561010e57600080fd5b82018360208201111561012057600080fd5b8035906020019184600183028401116401000000008311171561014257600080fd5b9091929391929390505050610498565b005b34801561016057600080fd5b5061016961056e565b604051808273ffffffffffffffffffffffffffffffffffffffff1673ffffffffffffffffffffffffffffffffffffffff16815260200191505060405180910390f35b3480156101b757600080fd5b506101fa600480360360208110156101ce57600080fd5b81019080803573ffffffffffffffffffffffffffffffffffffffff1690602001909291905050506105c6565b005b6102f56004803603606081101561021257600080fd5b81019080803573ffffffffffffffffffffffffffffffffffffffff169060200190929190803573ffffffffffffffffffffffffffffffffffffffff1690602001909291908035906020019064010000000081111561026f57600080fd5b82018360208201111561028157600080fd5b803590602001918460018302840111640100000000831117156102a357600080fd5b91908080601f016020809104026020016040519081016040528093929190818152602001838380828437600081840152601f19601f82011690508083019250505050505050919291929050505061073f565b005b6103d06004803603604081101561030d57600080fd5b81019080803573ffffffffffffffffffffffffffffffffffffffff1690602001909291908035906020019064010000000081111561034a57600080fd5b82018360208201111561035c57600080fd5b8035906020019184600183028401116401000000008311171561037e57600080fd5b91908080601f016020809104026020016040519081016040528093929190818152602001838380828437600081840152601f19601f820116905080830192505050505050509192919290505050610801565b005b3480156103de57600080fd5b506103e7610984565b604051808273ffffffffffffffffffffffffffffffffffffffff1673ffffffffffffffffffffffffffffffffffffffff16815260200191505060405180910390f35b6104316109dc565b61044161043c610a72565b610aa3565b565b61044b610ac9565b73ffffffffffffffffffffffffffffffffffffffff163373ffffffffffffffffffffffffffffffffffffffff16141561048c5761048781610afa565b610495565b610494610429565b5b50565b6104a0610ac9565b73ffffffffffffffffffffffffffffffffffffffff163373ffffffffffffffffffffffffffffffffffffffff161415610560576104dc83610afa565b60008373ffffffffffffffffffffffffffffffffffffffff168383604051808383808284378083019250505092505050600060405180830381855af49150503d8060008114610547576040519150601f19603f3d011682016040523d82523d6000602084013e61054c565b606091505b505090508061055a57600080fd5b50610569565b610568610429565b5b505050565b6000610578610ac9565b73ffffffffffffffffffffffffffffffffffffffff163373ffffffffffffffffffffffffffffffffffffffff1614156105ba576105b3610a72565b90506105c3565b6105c2610429565b5b90565b6105ce610ac9565b73ffffffffffffffffffffffffffffffffffffffff163373ffffffffffffffffffffffffffffffffffffffff16141561073357600073ffffffffffffffffffffffffffffffffffffffff168173ffffffffffffffffffffffffffffffffffffffff161415610687576040517f08c379a0000000000000000000000000000000000000000000000000000000008152600401808060200182810382526036815260200180610c4d6036913960400191505060405180910390fd5b7f7e644d79422f17c01e4894b5f4f588d331ebfa28653d42ae832dc59e38c9798f6106b0610ac9565b82604051808373ffffffffffffffffffffffffffffffffffffffff1673ffffffffffffffffffffffffffffffffffffffff1681526020018273ffffffffffffffffffffffffffffffffffffffff1673ffffffffffffffffffffffffffffffffffffffff1681526020019250505060405180910390a161072e81610b49565b61073c565b61073b610429565b5b50565b600073ffffffffffffffffffffffffffffffffffffffff1661075f610a72565b73ffffffffffffffffffffffffffffffffffffffff161461077f57600080fd5b6107898382610801565b600160405180807f656970313936372e70726f78792e61646d696e000000000000000000000000008152506013019050604051809103902060001c0360001b7fb53127684a568b3173ae13b9f8a6016e243e63b6e8ee1178d6a717850b5d610360001b146107f357fe5b6107fc82610b49565b505050565b600073ffffffffffffffffffffffffffffffffffffffff16610821610a72565b73ffffffffffffffffffffffffffffffffffffffff161461084157600080fd5b600160405180807f656970313936372e70726f78792e696d706c656d656e746174696f6e00000000815250601c019050604051809103902060001c0360001b7f360894a13ba1a3210667c828492db98dca3e2076cc3735a920a3ca505d382bbc60001b146108ab57fe5b6108b482610b78565b6000815111156109805760008273ffffffffffffffffffffffffffffffffffffffff16826040518082805190602001908083835b6020831061090b57805182526020820191506020810190506020830392506108e8565b6001836020036101000a038019825116818451168082178552505050505050905001915050600060405180830381855af49150503d806000811461096b576040519150601f19603f3d011682016040523d82523d6000602084013e610970565b606091505b505090508061097e57600080fd5b505b5050565b600061098e610ac9565b73ffffffffffffffffffffffffffffffffffffffff163373ffffffffffffffffffffffffffffffffffffffff1614156109d0576109c9610ac9565b90506109d9565b6109d8610429565b5b90565b6109e4610ac9565b73ffffffffffffffffffffffffffffffffffffffff163373ffffffffffffffffffffffffffffffffffffffff161415610a68576040517f08c379a0000000000000000000000000000000000000000000000000000000008152600401808060200182810382526032815260200180610c1b6032913960400191505060405180910390fd5b610a70610c05565b565b6000807f360894a13ba1a3210667c828492db98dca3e2076cc3735a920a3ca505d382bbc60001b9050805491505090565b3660008037600080366000845af43d6000803e8060008114610ac4573d6000f35b3d6000fd5b6000807fb53127684a568b3173ae13b9f8a6016e243e63b6e8ee1178d6a717850b5d610360001b9050805491505090565b610b0381610b78565b8073ffffffffffffffffffffffffffffffffffffffff167fbc7cd75a20ee27fd9adebab32041f755214dbc6bffa90cc0225b39da2e5c2d3b60405160405180910390a250565b60007fb53127684a568b3173ae13b9f8a6016e243e63b6e8ee1178d6a717850b5d610360001b90508181555050565b610b8181610c07565b610bd6576040517f08c379a000000000000000000000000000000000000000000000000000000000815260040180806020018281038252603b815260200180610c83603b913960400191505060405180910390fd5b60007f360894a13ba1a3210667c828492db98dca3e2076cc3735a920a3ca505d382bbc60001b90508181555050565b565b600080823b90506000811191505091905056fe43616e6e6f742063616c6c2066616c6c6261636b2066756e6374696f6e2066726f6d207468652070726f78792061646d696e43616e6e6f74206368616e6765207468652061646d696e206f6620612070726f787920746f20746865207a65726f206164647265737343616e6e6f742073657420612070726f787920696d706c656d656e746174696f6e20746f2061206e6f6e2d636f6e74726163742061646472657373a265627a7a723158200de142486cbdd2bbb4c5c275d054ffff56f9dcc51ff0286d16b9480d9682f78164736f6c63430005110032a265627a7a72315820d7b5270c6c7d870379378fc9fb88a2f6227794e52efed48e1709472de61a2d8d64736f6c63430005110032608060405234801561001057600080fd5b50610cf2806100206000396000f3fe6080604052600436106100605760003560e01c80633659cfe61461006a5780634f1ef286146100bb5780635c60da1b146101545780638f283970146101ab578063cf7a1d77146101fc578063d1f57894146102f7578063f851a440146103d2575b610068610429565b005b34801561007657600080fd5b506100b96004803603602081101561008d57600080fd5b81019080803573ffffffffffffffffffffffffffffffffffffffff169060200190929190505050610443565b005b610152600480360360408110156100d157600080fd5b81019080803573ffffffffffffffffffffffffffffffffffffffff1690602001909291908035906020019064010000000081111561010e57600080fd5b82018360208201111561012057600080fd5b8035906020019184600183028401116401000000008311171561014257600080fd5b9091929391929390505050610498565b005b34801561016057600080fd5b5061016961056e565b604051808273ffffffffffffffffffffffffffffffffffffffff1673ffffffffffffffffffffffffffffffffffffffff16815260200191505060405180910390f35b3480156101b757600080fd5b506101fa600480360360208110156101ce57600080fd5b81019080803573ffffffffffffffffffffffffffffffffffffffff1690602001909291905050506105c6565b005b6102f56004803603606081101561021257600080fd5b81019080803573ffffffffffffffffffffffffffffffffffffffff169060200190929190803573ffffffffffffffffffffffffffffffffffffffff1690602001909291908035906020019064010000000081111561026f57600080fd5b82018360208201111561028157600080fd5b803590602001918460018302840111640100000000831117156102a357600080fd5b91908080601f016020809104026020016040519081016040528093929190818152602001838380828437600081840152601f19601f82011690508083019250505050505050919291929050505061073f565b005b6103d06004803603604081101561030d57600080fd5b81019080803573ffffffffffffffffffffffffffffffffffffffff1690602001909291908035906020019064010000000081111561034a57600080fd5b82018360208201111561035c57600080fd5b8035906020019184600183028401116401000000008311171561037e57600080fd5b91908080601f016020809104026020016040519081016040528093929190818152602001838380828437600081840152601f19601f820116905080830192505050505050509192919290505050610801565b005b3480156103de57600080fd5b506103e7610984565b604051808273ffffffffffffffffffffffffffffffffffffffff1673ffffffffffffffffffffffffffffffffffffffff16815260200191505060405180910390f35b6104316109dc565b61044161043c610a72565b610aa3565b565b61044b610ac9565b73ffffffffffffffffffffffffffffffffffffffff163373ffffffffffffffffffffffffffffffffffffffff16141561048c5761048781610afa565b610495565b610494610429565b5b50565b6104a0610ac9565b73ffffffffffffffffffffffffffffffffffffffff163373ffffffffffffffffffffffffffffffffffffffff161415610560576104dc83610afa565b60008373ffffffffffffffffffffffffffffffffffffffff168383604051808383808284378083019250505092505050600060405180830381855af49150503d8060008114610547576040519150601f19603f3d011682016040523d82523d6000602084013e61054c565b606091505b505090508061055a57600080fd5b50610569565b610568610429565b5b505050565b6000610578610ac9565b73ffffffffffffffffffffffffffffffffffffffff163373ffffffffffffffffffffffffffffffffffffffff1614156105ba576105b3610a72565b90506105c3565b6105c2610429565b5b90565b6105ce610ac9565b73ffffffffffffffffffffffffffffffffffffffff163373ffffffffffffffffffffffffffffffffffffffff16141561073357600073ffffffffffffffffffffffffffffffffffffffff168173ffffffffffffffffffffffffffffffffffffffff161415610687576040517f08c379a0000000000000000000000000000000000000000000000000000000008152600401808060200182810382526036815260200180610c4d6036913960400191505060405180910390fd5b7f7e644d79422f17c01e4894b5f4f588d331ebfa28653d42ae832dc59e38c9798f6106b0610ac9565b82604051808373ffffffffffffffffffffffffffffffffffffffff1673ffffffffffffffffffffffffffffffffffffffff1681526020018273ffffffffffffffffffffffffffffffffffffffff1673ffffffffffffffffffffffffffffffffffffffff1681526020019250505060405180910390a161072e81610b49565b61073c565b61073b610429565b5b50565b600073ffffffffffffffffffffffffffffffffffffffff1661075f610a72565b73ffffffffffffffffffffffffffffffffffffffff161461077f57600080fd5b6107898382610801565b600160405180807f656970313936372e70726f78792e61646d696e000000000000000000000000008152506013019050604051809103902060001c0360001b7fb53127684a568b3173ae13b9f8a6016e243e63b6e8ee1178d6a717850b5d610360001b146107f357fe5b6107fc82610b49565b505050565b600073ffffffffffffffffffffffffffffffffffffffff16610821610a72565b73ffffffffffffffffffffffffffffffffffffffff161461084157600080fd5b600160405180807f656970313936372e70726f78792e696d706c656d656e746174696f6e00000000815250601c019050604051809103902060001c0360001b7f360894a13ba1a3210667c828492db98dca3e2076cc3735a920a3ca505d382bbc60001b146108ab57fe5b6108b482610b78565b6000815111156109805760008273ffffffffffffffffffffffffffffffffffffffff16826040518082805190602001908083835b6020831061090b57805182526020820191506020810190506020830392506108e8565b6001836020036101000a038019825116818451168082178552505050505050905001915050600060405180830381855af49150503d806000811461096b576040519150601f19603f3d011682016040523d82523d6000602084013e610970565b606091505b505090508061097e57600080fd5b505b5050565b600061098e610ac9565b73ffffffffffffffffffffffffffffffffffffffff163373ffffffffffffffffffffffffffffffffffffffff1614156109d0576109c9610ac9565b90506109d9565b6109d8610429565b5b90565b6109e4610ac9565b73ffffffffffffffffffffffffffffffffffffffff163373ffffffffffffffffffffffffffffffffffffffff161415610a68576040517f08c379a0000000000000000000000000000000000000000000000000000000008152600401808060200182810382526032815260200180610c1b6032913960400191505060405180910390fd5b610a70610c05565b565b6000807f360894a13ba1a3210667c828492db98dca3e2076cc3735a920a3ca505d382bbc60001b9050805491505090565b3660008037600080366000845af43d6000803e8060008114610ac4573d6000f35b3d6000fd5b6000807fb53127684a568b3173ae13b9f8a6016e243e63b6e8ee1178d6a717850b5d610360001b9050805491505090565b610b0381610b78565b8073ffffffffffffffffffffffffffffffffffffffff167fbc7cd75a20ee27fd9adebab32041f755214dbc6bffa90cc0225b39da2e5c2d3b60405160405180910390a250565b60007fb53127684a568b3173ae13b9f8a6016e243e63b6e8ee1178d6a717850b5d610360001b90508181555050565b610b8181610c07565b610bd6576040517f08c379a000000000000000000000000000000000000000000000000000000000815260040180806020018281038252603b815260200180610c83603b913960400191505060405180910390fd5b60007f360894a13ba1a3210667c828492db98dca3e2076cc3735a920a3ca505d382bbc60001b90508181555050565b565b600080823b90506000811191505091905056fe43616e6e6f742063616c6c2066616c6c6261636b2066756e6374696f6e2066726f6d207468652070726f78792061646d696e43616e6e6f74206368616e6765207468652061646d696e206f6620612070726f787920746f20746865207a65726f206164647265737343616e6e6f742073657420612070726f787920696d706c656d656e746174696f6e20746f2061206e6f6e2d636f6e74726163742061646472657373a265627a7a723158200de142486cbdd2bbb4c5c275d054ffff56f9dcc51ff0286d16b9480d9682f78164736f6c63430005110032",
  "source": "pragma solidity ^0.5.3;\n\nimport \"./InitializableAdminUpgradeabilityProxy.sol\";\nimport \"../cryptography/ECDSA.sol\";\n\ncontract ProxyFactory {\n  \n  event ProxyCreated(address proxy);\n\n  bytes32 private contractCodeHash;\n\n  constructor() public {\n    contractCodeHash = keccak256(\n      type(InitializableAdminUpgradeabilityProxy).creationCode\n    );\n  }\n\n  function deployMinimal(address _logic, bytes memory _data) public returns (address proxy) {\n    // Adapted from https://github.com/optionality/clone-factory/blob/32782f82dfc5a00d103a7e61a17a5dedbd1e8e9d/contracts/CloneFactory.sol\n    bytes20 targetBytes = bytes20(_logic);\n    assembly {\n      let clone := mload(0x40)\n      mstore(clone, 0x3d602d80600a3d3981f3363d3d373d3d3d363d73000000000000000000000000)\n      mstore(add(clone, 0x14), targetBytes)\n      mstore(add(clone, 0x28), 0x5af43d82803e903d91602b57fd5bf30000000000000000000000000000000000)\n      proxy := create(0, clone, 0x37)\n    }\n    \n    emit ProxyCreated(address(proxy));\n\n    if(_data.length > 0) {\n      (bool success,) = proxy.call(_data);\n      require(success);\n    }    \n  }\n\n  function deploy(uint256 _salt, address _logic, address _admin, bytes memory _data) public returns (address) {\n    return _deployProxy(_salt, _logic, _admin, _data, msg.sender);\n  }\n\n  function deploySigned(uint256 _salt, address _logic, address _admin, bytes memory _data, bytes memory _signature) public returns (address) {\n    address signer = getSigner(_salt, _logic, _admin, _data, _signature);\n    require(signer != address(0), \"Invalid signature\");\n    return _deployProxy(_salt, _logic, _admin, _data, signer);\n  }\n\n  function getDeploymentAddress(uint256 _salt, address _sender) public view returns (address) {\n    // Adapted from https://github.com/archanova/solidity/blob/08f8f6bedc6e71c24758d20219b7d0749d75919d/contracts/contractCreator/ContractCreator.sol\n    bytes32 salt = _getSalt(_salt, _sender);\n    bytes32 rawAddress = keccak256(\n      abi.encodePacked(\n        bytes1(0xff),\n        address(this),\n        salt,\n        contractCodeHash\n      )\n    );\n\n    return address(bytes20(rawAddress << 96));\n  }\n\n  function getSigner(uint256 _salt, address _logic, address _admin, bytes memory _data, bytes memory _signature) public view returns (address) {\n    bytes32 msgHash = OpenZeppelinUpgradesECDSA.toEthSignedMessageHash(\n      keccak256(\n        abi.encodePacked(\n          _salt, _logic, _admin, _data, address(this)\n        )\n      )\n    );\n\n    return OpenZeppelinUpgradesECDSA.recover(msgHash, _signature);\n  }\n\n  function _deployProxy(uint256 _salt, address _logic, address _admin, bytes memory _data, address _sender) internal returns (address) {\n    InitializableAdminUpgradeabilityProxy proxy = _createProxy(_salt, _sender);\n    emit ProxyCreated(address(proxy));\n    proxy.initialize(_logic, _admin, _data);\n    return address(proxy);\n  }\n\n  function _createProxy(uint256 _salt, address _sender) internal returns (InitializableAdminUpgradeabilityProxy) {\n    address payable addr;\n    bytes memory code = type(InitializableAdminUpgradeabilityProxy).creationCode;\n    bytes32 salt = _getSalt(_salt, _sender);\n\n    assembly {\n      addr := create2(0, add(code, 0x20), mload(code), salt)\n      if iszero(extcodesize(addr)) {\n        revert(0, 0)\n      }\n    }\n\n    return InitializableAdminUpgradeabilityProxy(addr);\n  }\n\n  function _getSalt(uint256 _salt, address _sender) internal pure returns (bytes32) {\n    return keccak256(abi.encodePacked(_salt, _sender)); \n  }\n}\n",
  "sourcePath": "@openzeppelin/upgrades/contracts/upgradeability/ProxyFactory.sol",
  "compiler": {
    "name": "solc",
    "version": "0.5.17+commit.d19bba13.Emscripten.clang"
  },
  "schemaVersion": "3.3.2",
  "updatedAt": "2021-01-16T13:22:14.354Z",
  "devdoc": {
    "methods": {}
  },
  "userdoc": {
    "methods": {}
  }
}