{
  "contractName": "UserWalletContract",
  "abi": [
    {
      "payable": true,
      "stateMutability": "payable",
      "type": "fallback"
    },
    {
      "constant": true,
      "inputs": [
        {
          "internalType": "address",
          "name": "",
          "type": "address"
        }
      ],
      "name": "arrayIndex",
      "outputs": [
        {
          "internalType": "uint256",
          "name": "",
          "type": "uint256"
        }
      ],
      "payable": false,
      "stateMutability": "view",
      "type": "function"
    },
    {
      "constant": true,
      "inputs": [
        {
          "internalType": "address",
          "name": "",
          "type": "address"
        }
      ],
      "name": "balances",
      "outputs": [
        {
          "internalType": "uint256",
          "name": "",
          "type": "uint256"
        }
      ],
      "payable": false,
      "stateMutability": "view",
      "type": "function"
    },
    {
      "constant": true,
      "inputs": [],
      "name": "getContractAddr",
      "outputs": [
        {
          "internalType": "address",
          "name": "",
          "type": "address"
        }
      ],
      "payable": false,
      "stateMutability": "view",
      "type": "function"
    },
    {
      "constant": false,
      "inputs": [
        {
          "internalType": "address",
          "name": "_owner",
          "type": "address"
        }
      ],
      "name": "initialize",
      "outputs": [],
      "payable": false,
      "stateMutability": "nonpayable",
      "type": "function"
    },
    {
      "constant": false,
      "inputs": [],
      "name": "getAllWallets",
      "outputs": [
        {
          "internalType": "string[]",
          "name": "",
          "type": "string[]"
        },
        {
          "internalType": "address[]",
          "name": "",
          "type": "address[]"
        },
        {
          "internalType": "string[]",
          "name": "",
          "type": "string[]"
        },
        {
          "internalType": "bool[]",
          "name": "",
          "type": "bool[]"
        },
        {
          "internalType": "uint256",
          "name": "",
          "type": "uint256"
        }
      ],
      "payable": false,
      "stateMutability": "nonpayable",
      "type": "function"
    },
    {
      "constant": false,
      "inputs": [
        {
          "internalType": "string",
          "name": "_walletName",
          "type": "string"
        },
        {
          "internalType": "address",
          "name": "_walletAddr",
          "type": "address"
        },
        {
          "internalType": "string",
          "name": "_walletDescription",
          "type": "string"
        }
      ],
      "name": "addWallet",
      "outputs": [],
      "payable": false,
      "stateMutability": "nonpayable",
      "type": "function"
    }
  ],
  "bytecode": "0x6080604052600060065534801561001557600080fd5b50610e67806100256000396000f3fe6080604052600436106100555760003560e01c80630bc5ed5d146100605780631bfa86011461008957806327e235e3146100b85780639e455939146100f5578063aa2d728514610120578063c4d66de81461015d575b61005e33610186565b005b34801561006c57600080fd5b5061008760048036036100829190810190610944565b61021f565b005b34801561009557600080fd5b5061009e6103a8565b6040516100af959493929190610bc8565b60405180910390f35b3480156100c457600080fd5b506100df60048036036100da919081019061091b565b610691565b6040516100ec9190610c37565b60405180910390f35b34801561010157600080fd5b5061010a6106a9565b6040516101179190610bad565b60405180910390f35b34801561012c57600080fd5b506101476004803603610142919081019061091b565b6106b1565b6040516101549190610c37565b60405180910390f35b34801561016957600080fd5b50610184600480360361017f919081019061091b565b6106c9565b005b34600160003373ffffffffffffffffffffffffffffffffffffffff1673ffffffffffffffffffffffffffffffffffffffff168152602001908152602001600020600082825401925050819055508073ffffffffffffffffffffffffffffffffffffffff163373ffffffffffffffffffffffffffffffffffffffff16141561021c57610211333461072d565b5061021b8161078d565b5b50565b600283908060018154018082558091505090600182039060005260206000200160009091929091909150908051906020019061025c92919061080d565b505060038290806001815401808255809150509060018203906000526020600020016000909192909190916101000a81548173ffffffffffffffffffffffffffffffffffffffff021916908373ffffffffffffffffffffffffffffffffffffffff16021790555050600481908060018154018082558091505090600182039060005260206000200160009091929091909150908051906020019061030192919061080d565b505060056000908060018154018082558091505090600182039060005260206000209060209182820401919006909192909190916101000a81548160ff02191690831515021790555050600654600760008473ffffffffffffffffffffffffffffffffffffffff1673ffffffffffffffffffffffffffffffffffffffff16815260200190815260200160002081905550600660008154809291906001019190505550505050565b6060806060806000600260036004600560065484805480602002602001604051908101604052809291908181526020016000905b82821015610498578382906000526020600020018054600181600116156101000203166002900480601f0160208091040260200160405190810160405280929190818152602001828054600181600116156101000203166002900480156104845780601f1061045957610100808354040283529160200191610484565b820191906000526020600020905b81548152906001019060200180831161046757829003601f168201915b5050505050815260200190600101906103dc565b5050505094508380548060200260200160405190810160405280929190818152602001828054801561051f57602002820191906000526020600020905b8160009054906101000a900473ffffffffffffffffffffffffffffffffffffffff1673ffffffffffffffffffffffffffffffffffffffff16815260200190600101908083116104d5575b5050505050935082805480602002602001604051908101604052809291908181526020016000905b82821015610603578382906000526020600020018054600181600116156101000203166002900480601f0160208091040260200160405190810160405280929190818152602001828054600181600116156101000203166002900480156105ef5780601f106105c4576101008083540402835291602001916105ef565b820191906000526020600020905b8154815290600101906020018083116105d257829003601f168201915b505050505081526020019060010190610547565b5050505092508180548060200260200160405190810160405280929190818152602001828054801561067957602002820191906000526020600020906000905b82829054906101000a900460ff161515815260200190600101906020826000010492830192600103820291508084116106435790505b50505050509150945094509450945094509091929394565b60016020528060005260406000206000915090505481565b600030905090565b60076020528060005260406000206000915090505481565b6000809054906101000a900473ffffffffffffffffffffffffffffffffffffffff166000806101000a81548173ffffffffffffffffffffffffffffffffffffffff021916908373ffffffffffffffffffffffffffffffffffffffff16021790555050565b60004782111561073c57600080fd5b8273ffffffffffffffffffffffffffffffffffffffff166108fc839081150290604051600060405180830381858888f19350505050158015610782573d6000803e3d6000fd5b506001905092915050565b6000600760008373ffffffffffffffffffffffffffffffffffffffff1673ffffffffffffffffffffffffffffffffffffffff1681526020019081526020016000205490506001600582815481106107e057fe5b90600052602060002090602091828204019190066101000a81548160ff0219169083151502179055505050565b828054600181600116156101000203166002900490600052602060002090601f016020900481019282601f1061084e57805160ff191683800117855561087c565b8280016001018555821561087c579182015b8281111561087b578251825591602001919060010190610860565b5b509050610889919061088d565b5090565b6108af91905b808211156108ab576000816000905550600101610893565b5090565b90565b6000813590506108c181610e0d565b92915050565b600082601f8301126108d857600080fd5b81356108eb6108e682610c7f565b610c52565b9150808252602083016020830185838301111561090757600080fd5b610912838284610dba565b50505092915050565b60006020828403121561092d57600080fd5b600061093b848285016108b2565b91505092915050565b60008060006060848603121561095957600080fd5b600084013567ffffffffffffffff81111561097357600080fd5b61097f868287016108c7565b9350506020610990868287016108b2565b925050604084013567ffffffffffffffff8111156109ad57600080fd5b6109b9868287016108c7565b9150509250925092565b60006109cf8383610a07565b60208301905092915050565b60006109e78383610b56565b60208301905092915050565b60006109ff8383610b65565b905092915050565b610a1081610d72565b82525050565b610a1f81610d72565b82525050565b6000610a3082610cdb565b610a3a8185610d2e565b9350610a4583610cab565b8060005b83811015610a76578151610a5d88826109c3565b9750610a6883610d07565b925050600181019050610a49565b5085935050505092915050565b6000610a8e82610ce6565b610a988185610d3f565b9350610aa383610cbb565b8060005b83811015610ad4578151610abb88826109db565b9750610ac683610d14565b925050600181019050610aa7565b5085935050505092915050565b6000610aec82610cf1565b610af68185610d50565b935083602082028501610b0885610ccb565b8060005b85811015610b445784840389528151610b2585826109f3565b9450610b3083610d21565b925060208a01995050600181019050610b0c565b50829750879550505050505092915050565b610b5f81610d84565b82525050565b6000610b7082610cfc565b610b7a8185610d61565b9350610b8a818560208601610dc9565b610b9381610dfc565b840191505092915050565b610ba781610db0565b82525050565b6000602082019050610bc26000830184610a16565b92915050565b600060a0820190508181036000830152610be28188610ae1565b90508181036020830152610bf68187610a25565b90508181036040830152610c0a8186610ae1565b90508181036060830152610c1e8185610a83565b9050610c2d6080830184610b9e565b9695505050505050565b6000602082019050610c4c6000830184610b9e565b92915050565b6000604051905081810181811067ffffffffffffffff82111715610c7557600080fd5b8060405250919050565b600067ffffffffffffffff821115610c9657600080fd5b601f19601f8301169050602081019050919050565b6000819050602082019050919050565b6000819050602082019050919050565b6000819050602082019050919050565b600081519050919050565b600081519050919050565b600081519050919050565b600081519050919050565b6000602082019050919050565b6000602082019050919050565b6000602082019050919050565b600082825260208201905092915050565b600082825260208201905092915050565b600082825260208201905092915050565b600082825260208201905092915050565b6000610d7d82610d90565b9050919050565b60008115159050919050565b600073ffffffffffffffffffffffffffffffffffffffff82169050919050565b6000819050919050565b82818337600083830152505050565b60005b83811015610de7578082015181840152602081019050610dcc565b83811115610df6576000848401525b50505050565b6000601f19601f8301169050919050565b610e1681610d72565b8114610e2157600080fd5b5056fea365627a7a7231582035811d3f1fbdbd79885be08c3d07417bb4da4c3aa7b59b597bae81876f3fc0c96c6578706572696d656e74616cf564736f6c63430005110040",
  "source": "pragma solidity ^0.5.0;\npragma experimental ABIEncoderV2; \n \n\n    \ncontract UserWalletContract{\n    address owner;\n    mapping(address => uint) public balances;\n    string[] walletName;\n    address[] walletAddr;\n    string[] walletDescription;\n    bool[] isMyWallet;\n    uint walletCount = 0;\n    \n    mapping(address => uint) public arrayIndex;\n\n       function getContractAddr() public view returns (address){\n        \n        return address(this);\n    }\n         function initialize(address _owner) public  {\n              owner = owner;\n    }\n    function getAllWallets() public returns(string[] memory, address[] memory , string[] memory, bool[] memory, uint)\n    {\n        \n        return(walletName, walletAddr, walletDescription, isMyWallet, walletCount);\n    }\n    \n    function _getWalletIndex(address _addr) internal returns(uint){\n        return arrayIndex[_addr];\n    }\n    \n    function addWallet(string memory _walletName, address  _walletAddr, string memory _walletDescription) public  {\n       walletName.push(_walletName);\n       walletAddr.push(_walletAddr);\n       walletDescription.push(_walletDescription);\n       isMyWallet.push(false);\n       arrayIndex[_walletAddr] = walletCount;\n       walletCount++;\n    }\n    function _validate(address _walletToValidate) internal{\n        uint index = arrayIndex[_walletToValidate];\n        isMyWallet[index] = true;\n    }\n    \n    function _send(address payable _to, uint256 _value) internal returns (bool) \n    {\n        require(_value <= address(this).balance);\n        _to.transfer(_value);\n        return true;\n    }\n    function() external payable\n    {\n       _validateOwnership(msg.sender);\n    }\n    \n    function _validateOwnership(address  _walletToVerify) internal {\n        balances[msg.sender] += msg.value;\n        if(msg.sender == _walletToVerify){\n            _send(msg.sender, msg.value);\n            _validate(_walletToVerify);\n        }\n        \n    }\n\n    \n}\n    ",
  "sourcePath": "/home/alexandre/Dev/harmony/Hackathon/openfi/contracts/UserWalletContract.sol",
  "compiler": {
    "name": "solc",
    "version": "0.5.17+commit.d19bba13.Emscripten.clang"
  },
  "schemaVersion": "3.3.2",
  "updatedAt": "2021-01-16T14:48:28.403Z",
  "networkType": "ethereum",
  "devdoc": {
    "methods": {}
  },
  "userdoc": {
    "methods": {}
  }
}