{
  "contractName": "UserTokenContract",
  "abi": [
    {
      "constant": true,
      "inputs": [],
      "name": "getContractAddr",
      "outputs": [
        {
          "internalType": "address",
          "name": "",
          "type": "address"
        }
      ],
      "payable": false,
      "stateMutability": "view",
      "type": "function"
    },
    {
      "constant": false,
      "inputs": [
        {
          "internalType": "address",
          "name": "_owner",
          "type": "address"
        }
      ],
      "name": "initialize",
      "outputs": [],
      "payable": false,
      "stateMutability": "nonpayable",
      "type": "function"
    },
    {
      "constant": true,
      "inputs": [],
      "name": "getAllTokens",
      "outputs": [
        {
          "internalType": "address[]",
          "name": "",
          "type": "address[]"
        },
        {
          "internalType": "string[]",
          "name": "",
          "type": "string[]"
        },
        {
          "internalType": "string[]",
          "name": "",
          "type": "string[]"
        },
        {
          "internalType": "string[]",
          "name": "",
          "type": "string[]"
        },
        {
          "internalType": "string[]",
          "name": "",
          "type": "string[]"
        },
        {
          "internalType": "uint256",
          "name": "",
          "type": "uint256"
        }
      ],
      "payable": false,
      "stateMutability": "view",
      "type": "function"
    },
    {
      "constant": false,
      "inputs": [
        {
          "internalType": "address",
          "name": "_tokenAddr",
          "type": "address"
        },
        {
          "internalType": "string",
          "name": "_tokenName",
          "type": "string"
        },
        {
          "internalType": "string",
          "name": "_tokenSymbol",
          "type": "string"
        },
        {
          "internalType": "string",
          "name": "_tokenImg",
          "type": "string"
        },
        {
          "internalType": "string",
          "name": "_color",
          "type": "string"
        }
      ],
      "name": "addToken",
      "outputs": [],
      "payable": false,
      "stateMutability": "nonpayable",
      "type": "function"
    }
  ],
  "bytecode": "0x6080604052600060065534801561001557600080fd5b50610ae7806100256000396000f3fe608060405234801561001057600080fd5b506004361061004c5760003560e01c80632a5c792a146100515780639e45593914610074578063c4d66de814610089578063d807e9a51461009e575b600080fd5b6100596100b1565b60405161006b96959493929190610959565b60405180910390f35b61007c61047f565b60405161006b919061094b565b61009c610097366004610712565b610484565b005b61009c6100ac366004610738565b6104a6565b60608060608060606000600160026003600460056006548580548060200260200160405190810160405280929190818152602001828054801561011d57602002820191906000526020600020905b81546001600160a01b031681526001909101906020018083116100ff575b5050505050955084805480602002602001604051908101604052809291908181526020016000905b828210156101f05760008481526020908190208301805460408051601f60026000196101006001871615020190941693909304928301859004850281018501909152818152928301828280156101dc5780601f106101b1576101008083540402835291602001916101dc565b820191906000526020600020905b8154815290600101906020018083116101bf57829003601f168201915b505050505081526020019060010190610145565b50505050945083805480602002602001604051908101604052809291908181526020016000905b828210156102c25760008481526020908190208301805460408051601f60026000196101006001871615020190941693909304928301859004850281018501909152818152928301828280156102ae5780601f10610283576101008083540402835291602001916102ae565b820191906000526020600020905b81548152906001019060200180831161029157829003601f168201915b505050505081526020019060010190610217565b50505050935082805480602002602001604051908101604052809291908181526020016000905b828210156103945760008481526020908190208301805460408051601f60026000196101006001871615020190941693909304928301859004850281018501909152818152928301828280156103805780601f1061035557610100808354040283529160200191610380565b820191906000526020600020905b81548152906001019060200180831161036357829003601f168201915b5050505050815260200190600101906102e9565b50505050925081805480602002602001604051908101604052809291908181526020016000905b828210156104665760008481526020908190208301805460408051601f60026000196101006001871615020190941693909304928301859004850281018501909152818152928301828280156104525780601f1061042757610100808354040283529160200191610452565b820191906000526020600020905b81548152906001019060200180831161043557829003601f168201915b5050505050815260200190600101906103bb565b50989f979e50959c50939a509850965092945050505050565b305b90565b600080546001600160a01b0319166001600160a01b0392909216919091179055565b6001805480820182557fb10e2d527612073b26eecdfd717e6a320cf44b4afac2b0732d9fcbe2b7fa0cf60180546001600160a01b0319166001600160a01b0388161790556002805491820180825560009190915285519091610531917f405787fa12a823e0f2b7631cc41b3ba8828b3321ca811111fa75cd3aa3bb5ace909101906020880190610615565b505060038054600181018083556000929092528451610577917fc2575a0e9e593c00f959f8c92f12db2869c3395a3b0502d05e2516446f71f85b01906020870190610615565b5050600480546001810180835560009290925283516105bd917f8a35acfbc15ff81a39ae7d344fd709f28e8600b4aa8c65c6b64bfe7fe36bd19b01906020860190610615565b505060058054600181018083556000929092528251610603917f036b6384b5eca791c62761152d0c79bb0604c104a5fb6f4eb0703f3154bb3db001906020850190610615565b50506006805460010190555050505050565b828054600181600116156101000203166002900490600052602060002090601f016020900481019282601f1061065657805160ff1916838001178555610683565b82800160010185558215610683579182015b82811115610683578251825591602001919060010190610668565b5061068f929150610693565b5090565b61048191905b8082111561068f5760008155600101610699565b80356106b881610a8d565b92915050565b600082601f8301126106cf57600080fd5b81356106e26106dd826109fb565b6109d4565b915080825260208301602083018583830111156106fe57600080fd5b610709838284610a47565b50505092915050565b60006020828403121561072457600080fd5b600061073084846106ad565b949350505050565b600080600080600060a0868803121561075057600080fd5b600061075c88886106ad565b955050602086013567ffffffffffffffff81111561077957600080fd5b610785888289016106be565b945050604086013567ffffffffffffffff8111156107a257600080fd5b6107ae888289016106be565b935050606086013567ffffffffffffffff8111156107cb57600080fd5b6107d7888289016106be565b925050608086013567ffffffffffffffff8111156107f457600080fd5b610800888289016106be565b9150509295509295909350565b60006108198383610834565b505060200190565b600061082d838361090a565b9392505050565b61083d81610a36565b82525050565b600061084e82610a29565b6108588185610a2d565b935061086383610a23565b8060005b8381101561089157815161087b888261080d565b975061088683610a23565b925050600101610867565b509495945050505050565b60006108a782610a29565b6108b18185610a2d565b9350836020820285016108c385610a23565b8060005b858110156108fd57848403895281516108e08582610821565b94506108eb83610a23565b60209a909a01999250506001016108c7565b5091979650505050505050565b600061091582610a29565b61091f8185610a2d565b935061092f818560208601610a53565b61093881610a83565b9093019392505050565b61083d81610481565b602081016106b88284610834565b60c0808252810161096a8189610843565b9050818103602083015261097e818861089c565b90508181036040830152610992818761089c565b905081810360608301526109a6818661089c565b905081810360808301526109ba818561089c565b90506109c960a0830184610942565b979650505050505050565b60405181810167ffffffffffffffff811182821017156109f357600080fd5b604052919050565b600067ffffffffffffffff821115610a1257600080fd5b506020601f91909101601f19160190565b60200190565b5190565b90815260200190565b60006001600160a01b0382166106b8565b82818337506000910152565b60005b83811015610a6e578181015183820152602001610a56565b83811115610a7d576000848401525b50505050565b601f01601f191690565b610a9681610a36565b8114610aa157600080fd5b5056fea365627a7a723158209af5ed552995878e33ee35148fd3aabe2f5520d676933c57d49d4f2a2690173b6c6578706572696d656e74616cf564736f6c63430005110040",
  "source": "pragma solidity >=0.4.22 <0.8.0;\npragma experimental ABIEncoderV2;\n\n\n\n\n\n\ncontract UserTokenContract {\n     address owner;\n     address[] tokenAddr;\n     string[] tokenName;\n     string[] tokenSymbol;\n     string[] tokenImg;\n     string[] color;\n     uint tokenCount = 0;\n     \n         function getContractAddr() public view returns (address){\n        \n        return address(this);\n    }\n           function initialize(address _owner) public{\n            owner = _owner;\n  }\n     function getAllTokens() public view returns(address[] memory,string[] memory,string[] memory,string[] memory,string[] memory, uint ){\n         return(tokenAddr,tokenName,tokenSymbol,tokenImg,color,tokenCount);\n     }\n     function addToken(address _tokenAddr , string memory _tokenName, string memory _tokenSymbol, string memory _tokenImg, string memory _color) public {\n         tokenAddr.push(_tokenAddr);\n         tokenName.push(_tokenName);\n         tokenSymbol.push(_tokenSymbol);\n         tokenImg.push(_tokenImg);\n         color.push(_color);\n         tokenCount++;\n         \n     }\n    \n}",
  "sourcePath": "/home/alexandre/Dev/harmony/Hackathon/openfi/contracts/UserTokenContract.sol",
  "compiler": {
    "name": "solc",
    "version": "0.5.17+commit.d19bba13.Emscripten.clang"
  },
  "schemaVersion": "3.3.2",
  "updatedAt": "2021-01-25T15:06:48.720Z",
  "devdoc": {
    "methods": {}
  },
  "userdoc": {
    "methods": {}
  }
}