{
  "contractName": "UserWalletContract",
  "abi": [
    {
      "payable": true,
      "stateMutability": "payable",
      "type": "fallback"
    },
    {
      "constant": true,
      "inputs": [
        {
          "internalType": "address",
          "name": "",
          "type": "address"
        }
      ],
      "name": "arrayIndex",
      "outputs": [
        {
          "internalType": "uint256",
          "name": "",
          "type": "uint256"
        }
      ],
      "payable": false,
      "stateMutability": "view",
      "type": "function"
    },
    {
      "constant": true,
      "inputs": [
        {
          "internalType": "address",
          "name": "",
          "type": "address"
        }
      ],
      "name": "balances",
      "outputs": [
        {
          "internalType": "uint256",
          "name": "",
          "type": "uint256"
        }
      ],
      "payable": false,
      "stateMutability": "view",
      "type": "function"
    },
    {
      "constant": true,
      "inputs": [],
      "name": "getContractAddr",
      "outputs": [
        {
          "internalType": "address",
          "name": "",
          "type": "address"
        }
      ],
      "payable": false,
      "stateMutability": "view",
      "type": "function"
    },
    {
      "constant": true,
      "inputs": [],
      "name": "getAllWallets",
      "outputs": [
        {
          "internalType": "string[]",
          "name": "",
          "type": "string[]"
        },
        {
          "internalType": "address[]",
          "name": "",
          "type": "address[]"
        },
        {
          "internalType": "string[]",
          "name": "",
          "type": "string[]"
        },
        {
          "internalType": "bool[]",
          "name": "",
          "type": "bool[]"
        },
        {
          "internalType": "uint256",
          "name": "",
          "type": "uint256"
        }
      ],
      "payable": false,
      "stateMutability": "view",
      "type": "function"
    },
    {
      "constant": false,
      "inputs": [
        {
          "internalType": "string",
          "name": "_walletName",
          "type": "string"
        },
        {
          "internalType": "address",
          "name": "_walletAddr",
          "type": "address"
        },
        {
          "internalType": "string",
          "name": "_walletDescription",
          "type": "string"
        }
      ],
      "name": "addWallet",
      "outputs": [],
      "payable": false,
      "stateMutability": "nonpayable",
      "type": "function"
    }
  ],
  "bytecode": "0x6080604052600060065534801561001557600080fd5b50610ad9806100256000396000f3fe60806040526004361061004a5760003560e01c80630bc5ed5d146100555780631bfa86011461007557806327e235e3146100a45780639e455939146100d1578063aa2d7285146100f3575b61005333610113565b005b34801561006157600080fd5b5061005361007036600461071f565b61014f565b34801561008157600080fd5b5061008a61029a565b60405161009b95949392919061094a565b60405180910390f35b3480156100b057600080fd5b506100c46100bf3660046106f9565b610530565b60405161009b91906109b0565b3480156100dd57600080fd5b506100e6610542565b60405161009b919061093c565b3480156100ff57600080fd5b506100c461010e3660046106f9565b610547565b3360008181526001602052604090208054340190556001600160a01b038216141561014c576101423334610559565b5061014c816105aa565b50565b60028054600181018083556000929092528451610193917f405787fa12a823e0f2b7631cc41b3ba8828b3321ca811111fa75cd3aa3bb5ace01906020870190610602565b50506003805460018082019092557fc2575a0e9e593c00f959f8c92f12db2869c3395a3b0502d05e2516446f71f85b0180546001600160a01b0319166001600160a01b0385161790556004805491820180825560009190915282519091610223917f8a35acfbc15ff81a39ae7d344fd709f28e8600b4aa8c65c6b64bfe7fe36bd19b909101906020850190610602565b505060058054600181810190925560208082047f036b6384b5eca791c62761152d0c79bb0604c104a5fb6f4eb0703f3154bb3db001805460ff601f9094166101000a9390930219909216909155600680546001600160a01b0390951660009081526007909252604090912084905592019091555050565b6060806060806000600260036004600560065484805480602002602001604051908101604052809291908181526020016000905b828210156103795760008481526020908190208301805460408051601f60026000196101006001871615020190941693909304928301859004850281018501909152818152928301828280156103655780601f1061033a57610100808354040283529160200191610365565b820191906000526020600020905b81548152906001019060200180831161034857829003601f168201915b5050505050815260200190600101906102ce565b505050509450838054806020026020016040519081016040528092919081815260200182805480156103d457602002820191906000526020600020905b81546001600160a01b031681526001909101906020018083116103b6575b5050505050935082805480602002602001604051908101604052809291908181526020016000905b828210156104a75760008481526020908190208301805460408051601f60026000196101006001871615020190941693909304928301859004850281018501909152818152928301828280156104935780601f1061046857610100808354040283529160200191610493565b820191906000526020600020905b81548152906001019060200180831161047657829003601f168201915b5050505050815260200190600101906103fc565b5050505092508180548060200260200160405190810160405280929190818152602001828054801561051857602002820191906000526020600020906000905b825461010083900a900460ff1615158152602060019283018181049485019490930390920291018084116104e75790505b50505050509150945094509450945094509091929394565b60016020526000908152604090205481565b305b90565b60076020526000908152604090205481565b60004782111561056857600080fd5b6040516001600160a01b0384169083156108fc029084906000818181858888f1935050505015801561059e573d6000803e3d6000fd5b50600190505b92915050565b6001600160a01b0381166000908152600760205260409020546005805460019190839081106105d557fe5b90600052602060002090602091828204019190066101000a81548160ff0219169083151502179055505050565b828054600181600116156101000203166002900490600052602060002090601f016020900481019282601f1061064357805160ff1916838001178555610670565b82800160010185558215610670579182015b82811115610670578251825591602001919060010190610655565b5061067c929150610680565b5090565b61054491905b8082111561067c5760008155600101610686565b80356105a481610a82565b600082601f8301126106b657600080fd5b81356106c96106c4826109e5565b6109be565b915080825260208301602083018583830111156106e557600080fd5b6106f0838284610a3c565b50505092915050565b60006020828403121561070b57600080fd5b6000610717848461069a565b949350505050565b60008060006060848603121561073457600080fd5b833567ffffffffffffffff81111561074b57600080fd5b610757868287016106a5565b93505060206107688682870161069a565b925050604084013567ffffffffffffffff81111561078557600080fd5b610791868287016106a5565b9150509250925092565b60006107a783836107ce565b505060200190565b60006107a783836108f2565b60006107c783836108fb565b9392505050565b6107d781610a20565b82525050565b60006107e882610a13565b6107f28185610a17565b93506107fd83610a0d565b8060005b8381101561082b578151610815888261079b565b975061082083610a0d565b925050600101610801565b509495945050505050565b600061084182610a13565b61084b8185610a17565b935061085683610a0d565b8060005b8381101561082b57815161086e88826107af565b975061087983610a0d565b92505060010161085a565b600061088f82610a13565b6108998185610a17565b9350836020820285016108ab85610a0d565b8060005b858110156108e557848403895281516108c885826107bb565b94506108d383610a0d565b60209a909a01999250506001016108af565b5091979650505050505050565b6107d781610a2b565b600061090682610a13565b6109108185610a17565b9350610920818560208601610a48565b61092981610a78565b9093019392505050565b6107d781610544565b602081016105a482846107ce565b60a0808252810161095b8188610884565b9050818103602083015261096f81876107dd565b905081810360408301526109838186610884565b905081810360608301526109978185610836565b90506109a66080830184610933565b9695505050505050565b602081016105a48284610933565b60405181810167ffffffffffffffff811182821017156109dd57600080fd5b604052919050565b600067ffffffffffffffff8211156109fc57600080fd5b506020601f91909101601f19160190565b60200190565b5190565b90815260200190565b60006105a482610a30565b151590565b6001600160a01b031690565b82818337506000910152565b60005b83811015610a63578181015183820152602001610a4b565b83811115610a72576000848401525b50505050565b601f01601f191690565b610a8b81610a20565b811461014c57600080fdfea365627a7a723158204b23eda768a40534be054c04c9147105d0f711f1567d6a5d2166b2b82ed52a7d6c6578706572696d656e74616cf564736f6c63430005110040",
  "source": "pragma solidity ^0.5.0;\npragma experimental ABIEncoderV2; \n \n\n    \ncontract UserWalletContract{\n    address owner;\n    mapping(address => uint) public balances;\n    string[] walletName;\n    address[] walletAddr;\n    string[] walletDescription;\n    bool[] isMyWallet;\n    uint walletCount = 0;\n    \n    mapping(address => uint) public arrayIndex;\n\n       function getContractAddr() public view returns (address){\n        address thisaddr = address(this);\n        return thisaddr;\n    }\n\n    function getAllWallets() public view returns(string[] memory, address[] memory , string[] memory, bool[] memory, uint)\n    {\n        \n        return(walletName, walletAddr, walletDescription, isMyWallet, walletCount);\n    }\n    \n    function _getWalletIndex(address _addr) internal view returns(uint){\n        return arrayIndex[_addr];\n    }\n    \n    function addWallet(string memory _walletName, address  _walletAddr, string memory _walletDescription) public  {\n       walletName.push(_walletName);\n       walletAddr.push(_walletAddr);\n       walletDescription.push(_walletDescription);\n       isMyWallet.push(false);\n       arrayIndex[_walletAddr] = walletCount;\n       walletCount++;\n    }\n    function _validate(address _walletToValidate) internal{\n        uint index = arrayIndex[_walletToValidate];\n        isMyWallet[index] = true;\n    }\n    \n    function _send(address payable _to, uint256 _value) internal returns (bool) \n    {\n        require(_value <= address(this).balance);\n        _to.transfer(_value);\n        return true;\n    }\n    function() external payable\n    {\n       _validateOwnership(msg.sender);\n    }\n    \n    function _validateOwnership(address  _walletToVerify) internal {\n        balances[msg.sender] += msg.value;\n        if(msg.sender == _walletToVerify){\n            _send(msg.sender, msg.value);\n            _validate(_walletToVerify);\n        }\n        \n    }\n\n    \n}\n    ",
  "sourcePath": "/home/alexandre/Dev/harmony/Hackathon/openfi/contracts/UserWalletContract.sol",
  "compiler": {
    "name": "solc",
    "version": "0.5.17+commit.d19bba13.Emscripten.clang"
  },
  "schemaVersion": "3.3.2",
  "updatedAt": "2021-01-25T15:06:48.721Z",
  "devdoc": {
    "methods": {}
  },
  "userdoc": {
    "methods": {}
  }
}