{
  "contractName": "UserBudgetContract",
  "abi": [
    {
      "constant": true,
      "inputs": [
        {
          "internalType": "string",
          "name": "",
          "type": "string"
        }
      ],
      "name": "mappedtxCategories",
      "outputs": [
        {
          "internalType": "string",
          "name": "",
          "type": "string"
        }
      ],
      "payable": false,
      "stateMutability": "view",
      "type": "function"
    },
    {
      "constant": false,
      "inputs": [
        {
          "internalType": "address",
          "name": "_owner",
          "type": "address"
        }
      ],
      "name": "initialize",
      "outputs": [],
      "payable": false,
      "stateMutability": "nonpayable",
      "type": "function"
    },
    {
      "constant": false,
      "inputs": [
        {
          "internalType": "string[2]",
          "name": "_txid_cat",
          "type": "string[2]"
        }
      ],
      "name": "setTxCategory",
      "outputs": [],
      "payable": true,
      "stateMutability": "payable",
      "type": "function"
    },
    {
      "constant": true,
      "inputs": [],
      "name": "getContractAddr",
      "outputs": [
        {
          "internalType": "address",
          "name": "",
          "type": "address"
        }
      ],
      "payable": false,
      "stateMutability": "view",
      "type": "function"
    },
    {
      "constant": false,
      "inputs": [
        {
          "internalType": "string",
          "name": "txid",
          "type": "string"
        }
      ],
      "name": "getTxCategory",
      "outputs": [
        {
          "internalType": "string",
          "name": "",
          "type": "string"
        }
      ],
      "payable": false,
      "stateMutability": "nonpayable",
      "type": "function"
    }
  ],
  "bytecode": "0x6080604052600060025534801561001557600080fd5b50610942806100256000396000f3fe60806040526004361061004a5760003560e01c80635ada96dc1461004f5780639e4559391461006b578063b2d46fdd14610096578063c4d66de8146100d3578063f7a1ddf3146100fc575b600080fd5b61006960048036036100649190810190610557565b610139565b005b34801561007757600080fd5b50610080610191565b60405161008d919061072b565b60405180910390f35b3480156100a257600080fd5b506100bd60048036036100b891908101906105d9565b610199565b6040516100ca9190610768565b60405180910390f35b3480156100df57600080fd5b506100fa60048036036100f5919081019061052e565b61025e565b005b34801561010857600080fd5b50610123600480360361011e9190810190610598565b6102a1565b6040516101309190610746565b60405180910390f35b8060016002811061014657fe5b602002015160038260006002811061015a57fe5b602002015160405161016c91906106fd565b9081526020016040518091039020908051906020019061018d929190610367565b5050565b600030905090565b6060806003836040516101ac9190610714565b90815260200160405180910390208054600181600116156101000203166002900480601f01602080910402602001604051908101604052809291908181526020018280546001816001161561010002031660029004801561024e5780601f106102235761010080835404028352916020019161024e565b820191906000526020600020905b81548152906001019060200180831161023157829003601f168201915b5050505050905080915050919050565b806000806101000a81548173ffffffffffffffffffffffffffffffffffffffff021916908373ffffffffffffffffffffffffffffffffffffffff16021790555050565b6003818051602081018201805184825260208301602085012081835280955050505050506000915090508054600181600116156101000203166002900480601f01602080910402602001604051908101604052809291908181526020018280546001816001161561010002031660029004801561035f5780601f106103345761010080835404028352916020019161035f565b820191906000526020600020905b81548152906001019060200180831161034257829003601f168201915b505050505081565b828054600181600116156101000203166002900490600052602060002090601f016020900481019282601f106103a857805160ff19168380011785556103d6565b828001600101855582156103d6579182015b828111156103d55782518255916020019190600101906103ba565b5b5090506103e391906103e7565b5090565b61040991905b808211156104055760008160009055506001016103ed565b5090565b90565b60008135905061041b816108e8565b92915050565b600082601f83011261043257600080fd5b6002610445610440826107b7565b61078a565b9150818360005b8381101561047c57813586016104628882610486565b84526020840193506020830192505060018101905061044c565b5050505092915050565b600082601f83011261049757600080fd5b81356104aa6104a5826107d9565b61078a565b915080825260208301602083018583830111156104c657600080fd5b6104d1838284610895565b50505092915050565b600082601f8301126104eb57600080fd5b81356104fe6104f982610805565b61078a565b9150808252602083016020830185838301111561051a57600080fd5b610525838284610895565b50505092915050565b60006020828403121561054057600080fd5b600061054e8482850161040c565b91505092915050565b60006020828403121561056957600080fd5b600082013567ffffffffffffffff81111561058357600080fd5b61058f84828501610421565b91505092915050565b6000602082840312156105aa57600080fd5b600082013567ffffffffffffffff8111156105c457600080fd5b6105d084828501610486565b91505092915050565b6000602082840312156105eb57600080fd5b600082013567ffffffffffffffff81111561060557600080fd5b610611848285016104da565b91505092915050565b61062381610863565b82525050565b60006106348261083c565b61063e8185610847565b935061064e8185602086016108a4565b610657816108d7565b840191505092915050565b600061066d8261083c565b6106778185610858565b93506106878185602086016108a4565b80840191505092915050565b600061069e82610831565b6106a88185610847565b93506106b88185602086016108a4565b6106c1816108d7565b840191505092915050565b60006106d782610831565b6106e18185610858565b93506106f18185602086016108a4565b80840191505092915050565b600061070982846106cc565b915081905092915050565b60006107208284610662565b915081905092915050565b6000602082019050610740600083018461061a565b92915050565b600060208201905081810360008301526107608184610693565b905092915050565b600060208201905081810360008301526107828184610629565b905092915050565b6000604051905081810181811067ffffffffffffffff821117156107ad57600080fd5b8060405250919050565b600067ffffffffffffffff8211156107ce57600080fd5b602082029050919050565b600067ffffffffffffffff8211156107f057600080fd5b601f19601f8301169050602081019050919050565b600067ffffffffffffffff82111561081c57600080fd5b601f19601f8301169050602081019050919050565b600081519050919050565b600081519050919050565b600082825260208201905092915050565b600081905092915050565b600061086e82610875565b9050919050565b600073ffffffffffffffffffffffffffffffffffffffff82169050919050565b82818337600083830152505050565b60005b838110156108c25780820151818401526020810190506108a7565b838111156108d1576000848401525b50505050565b6000601f19601f8301169050919050565b6108f181610863565b81146108fc57600080fd5b5056fea365627a7a723158207de6e9369fcef16b306981a8eb55c1b49d3786c9d10aeb12beb32ed9dca502356c6578706572696d656e74616cf564736f6c63430005110040",
  "source": "pragma solidity ^0.5.0;\npragma experimental ABIEncoderV2; \n\n    \n    contract UserBudgetContract {\n    // Budget context\n    address owner;\n    string[1][] txcat;\n   \n    uint arrayLength=0;\n             function initialize(address _owner) public  {\n              owner = _owner;\n    }\n    mapping(string => string) public mappedtxCategories;\n    \n    function setTxCategory(string[2] memory _txid_cat) public payable {\n        mappedtxCategories[_txid_cat[0]] = _txid_cat[1];\n       \n       // mappedtxCategories[txid] = arrayLength;\n      \n    }\n    function getContractAddr() public view returns (address){\n        \n        return address(this);\n}\n\n    function getTxCategory(string memory txid) public returns(string memory)\n    {\n        string memory whereisit = mappedtxCategories[txid];\n        return whereisit;\n    }\n    \n}\n    ",
  "sourcePath": "/home/alexandre/Dev/harmony/Hackathon/openfi/contracts/UserBudgetContract.sol",
  "compiler": {
    "name": "solc",
    "version": "0.5.17+commit.d19bba13.Emscripten.clang"
  },
  "schemaVersion": "3.3.2",
  "updatedAt": "2021-01-16T14:48:28.405Z",
  "networkType": "ethereum",
  "devdoc": {
    "methods": {}
  },
  "userdoc": {
    "methods": {}
  }
}