{
  "contractName": "UserWalletContract",
  "abi": [
    {
      "payable": true,
      "stateMutability": "payable",
      "type": "fallback"
    },
    {
      "constant": true,
      "inputs": [
        {
          "internalType": "address",
          "name": "",
          "type": "address"
        }
      ],
      "name": "arrayIndex",
      "outputs": [
        {
          "internalType": "uint256",
          "name": "",
          "type": "uint256"
        }
      ],
      "payable": false,
      "stateMutability": "view",
      "type": "function"
    },
    {
      "constant": true,
      "inputs": [
        {
          "internalType": "address",
          "name": "",
          "type": "address"
        }
      ],
      "name": "balances",
      "outputs": [
        {
          "internalType": "uint256",
          "name": "",
          "type": "uint256"
        }
      ],
      "payable": false,
      "stateMutability": "view",
      "type": "function"
    },
    {
      "constant": true,
      "inputs": [],
      "name": "owner",
      "outputs": [
        {
          "internalType": "address",
          "name": "",
          "type": "address"
        }
      ],
      "payable": false,
      "stateMutability": "view",
      "type": "function"
    },
    {
      "constant": false,
      "inputs": [
        {
          "internalType": "address",
          "name": "newOwner",
          "type": "address"
        }
      ],
      "name": "transferOwnership",
      "outputs": [],
      "payable": false,
      "stateMutability": "nonpayable",
      "type": "function"
    },
    {
      "constant": false,
      "inputs": [
        {
          "internalType": "address",
          "name": "_owner",
          "type": "address"
        }
      ],
      "name": "initialize",
      "outputs": [],
      "payable": false,
      "stateMutability": "nonpayable",
      "type": "function"
    },
    {
      "constant": false,
      "inputs": [],
      "name": "getAllWallets",
      "outputs": [
        {
          "internalType": "string[]",
          "name": "",
          "type": "string[]"
        },
        {
          "internalType": "address[]",
          "name": "",
          "type": "address[]"
        },
        {
          "internalType": "string[]",
          "name": "",
          "type": "string[]"
        },
        {
          "internalType": "bool[]",
          "name": "",
          "type": "bool[]"
        },
        {
          "internalType": "uint256",
          "name": "",
          "type": "uint256"
        }
      ],
      "payable": false,
      "stateMutability": "nonpayable",
      "type": "function"
    },
    {
      "constant": false,
      "inputs": [
        {
          "internalType": "string",
          "name": "_walletName",
          "type": "string"
        },
        {
          "internalType": "address",
          "name": "_walletAddr",
          "type": "address"
        },
        {
          "internalType": "string",
          "name": "_walletDescription",
          "type": "string"
        }
      ],
      "name": "addWallet",
      "outputs": [],
      "payable": false,
      "stateMutability": "nonpayable",
      "type": "function"
    }
  ],
  "bytecode": "0x60806040526000600655336000806101000a81548173ffffffffffffffffffffffffffffffffffffffff021916908373ffffffffffffffffffffffffffffffffffffffff160217905550610f25806100586000396000f3fe6080604052600436106100605760003560e01c80630bc5ed5d1461006b5780631bfa86011461009457806327e235e3146100c35780638da5cb5b14610100578063aa2d72851461012b578063c4d66de814610168578063f2fde38b14610191575b610069336101ba565b005b34801561007757600080fd5b50610092600480360361008d9190810190610a02565b610253565b005b3480156100a057600080fd5b506100a96103dc565b6040516100ba959493929190610c86565b60405180910390f35b3480156100cf57600080fd5b506100ea60048036036100e591908101906109d9565b6106c5565b6040516100f79190610cf5565b60405180910390f35b34801561010c57600080fd5b506101156106dd565b6040516101229190610c6b565b60405180910390f35b34801561013757600080fd5b50610152600480360361014d91908101906109d9565b610702565b60405161015f9190610cf5565b60405180910390f35b34801561017457600080fd5b5061018f600480360361018a91908101906109d9565b61071a565b005b34801561019d57600080fd5b506101b860048036036101b391908101906109d9565b61071d565b005b34600160003373ffffffffffffffffffffffffffffffffffffffff1673ffffffffffffffffffffffffffffffffffffffff168152602001908152602001600020600082825401925050819055508073ffffffffffffffffffffffffffffffffffffffff163373ffffffffffffffffffffffffffffffffffffffff1614156102505761024533346107eb565b5061024f8161084b565b5b50565b60028390806001815401808255809150509060018203906000526020600020016000909192909190915090805190602001906102909291906108cb565b505060038290806001815401808255809150509060018203906000526020600020016000909192909190916101000a81548173ffffffffffffffffffffffffffffffffffffffff021916908373ffffffffffffffffffffffffffffffffffffffff1602179055505060048190806001815401808255809150509060018203906000526020600020016000909192909190915090805190602001906103359291906108cb565b505060056000908060018154018082558091505090600182039060005260206000209060209182820401919006909192909190916101000a81548160ff02191690831515021790555050600654600760008473ffffffffffffffffffffffffffffffffffffffff1673ffffffffffffffffffffffffffffffffffffffff16815260200190815260200160002081905550600660008154809291906001019190505550505050565b6060806060806000600260036004600560065484805480602002602001604051908101604052809291908181526020016000905b828210156104cc578382906000526020600020018054600181600116156101000203166002900480601f0160208091040260200160405190810160405280929190818152602001828054600181600116156101000203166002900480156104b85780601f1061048d576101008083540402835291602001916104b8565b820191906000526020600020905b81548152906001019060200180831161049b57829003601f168201915b505050505081526020019060010190610410565b5050505094508380548060200260200160405190810160405280929190818152602001828054801561055357602002820191906000526020600020905b8160009054906101000a900473ffffffffffffffffffffffffffffffffffffffff1673ffffffffffffffffffffffffffffffffffffffff1681526020019060010190808311610509575b5050505050935082805480602002602001604051908101604052809291908181526020016000905b82821015610637578382906000526020600020018054600181600116156101000203166002900480601f0160208091040260200160405190810160405280929190818152602001828054600181600116156101000203166002900480156106235780601f106105f857610100808354040283529160200191610623565b820191906000526020600020905b81548152906001019060200180831161060657829003601f168201915b50505050508152602001906001019061057b565b505050509250818054806020026020016040519081016040528092919081815260200182805480156106ad57602002820191906000526020600020906000905b82829054906101000a900460ff161515815260200190600101906020826000010492830192600103820291508084116106775790505b50505050509150945094509450945094509091929394565b60016020528060005260406000206000915090505481565b6000809054906101000a900473ffffffffffffffffffffffffffffffffffffffff1681565b60076020528060005260406000206000915090505481565b50565b6000809054906101000a900473ffffffffffffffffffffffffffffffffffffffff1673ffffffffffffffffffffffffffffffffffffffff163373ffffffffffffffffffffffffffffffffffffffff1614156107e857600073ffffffffffffffffffffffffffffffffffffffff168173ffffffffffffffffffffffffffffffffffffffff16146107e757806000806101000a81548173ffffffffffffffffffffffffffffffffffffffff021916908373ffffffffffffffffffffffffffffffffffffffff1602179055505b5b50565b6000478211156107fa57600080fd5b8273ffffffffffffffffffffffffffffffffffffffff166108fc839081150290604051600060405180830381858888f19350505050158015610840573d6000803e3d6000fd5b506001905092915050565b6000600760008373ffffffffffffffffffffffffffffffffffffffff1673ffffffffffffffffffffffffffffffffffffffff16815260200190815260200160002054905060016005828154811061089e57fe5b90600052602060002090602091828204019190066101000a81548160ff0219169083151502179055505050565b828054600181600116156101000203166002900490600052602060002090601f016020900481019282601f1061090c57805160ff191683800117855561093a565b8280016001018555821561093a579182015b8281111561093957825182559160200191906001019061091e565b5b509050610947919061094b565b5090565b61096d91905b80821115610969576000816000905550600101610951565b5090565b90565b60008135905061097f81610ecb565b92915050565b600082601f83011261099657600080fd5b81356109a96109a482610d3d565b610d10565b915080825260208301602083018583830111156109c557600080fd5b6109d0838284610e78565b50505092915050565b6000602082840312156109eb57600080fd5b60006109f984828501610970565b91505092915050565b600080600060608486031215610a1757600080fd5b600084013567ffffffffffffffff811115610a3157600080fd5b610a3d86828701610985565b9350506020610a4e86828701610970565b925050604084013567ffffffffffffffff811115610a6b57600080fd5b610a7786828701610985565b9150509250925092565b6000610a8d8383610ac5565b60208301905092915050565b6000610aa58383610c14565b60208301905092915050565b6000610abd8383610c23565b905092915050565b610ace81610e30565b82525050565b610add81610e30565b82525050565b6000610aee82610d99565b610af88185610dec565b9350610b0383610d69565b8060005b83811015610b34578151610b1b8882610a81565b9750610b2683610dc5565b925050600181019050610b07565b5085935050505092915050565b6000610b4c82610da4565b610b568185610dfd565b9350610b6183610d79565b8060005b83811015610b92578151610b798882610a99565b9750610b8483610dd2565b925050600181019050610b65565b5085935050505092915050565b6000610baa82610daf565b610bb48185610e0e565b935083602082028501610bc685610d89565b8060005b85811015610c025784840389528151610be38582610ab1565b9450610bee83610ddf565b925060208a01995050600181019050610bca565b50829750879550505050505092915050565b610c1d81610e42565b82525050565b6000610c2e82610dba565b610c388185610e1f565b9350610c48818560208601610e87565b610c5181610eba565b840191505092915050565b610c6581610e6e565b82525050565b6000602082019050610c806000830184610ad4565b92915050565b600060a0820190508181036000830152610ca08188610b9f565b90508181036020830152610cb48187610ae3565b90508181036040830152610cc88186610b9f565b90508181036060830152610cdc8185610b41565b9050610ceb6080830184610c5c565b9695505050505050565b6000602082019050610d0a6000830184610c5c565b92915050565b6000604051905081810181811067ffffffffffffffff82111715610d3357600080fd5b8060405250919050565b600067ffffffffffffffff821115610d5457600080fd5b601f19601f8301169050602081019050919050565b6000819050602082019050919050565b6000819050602082019050919050565b6000819050602082019050919050565b600081519050919050565b600081519050919050565b600081519050919050565b600081519050919050565b6000602082019050919050565b6000602082019050919050565b6000602082019050919050565b600082825260208201905092915050565b600082825260208201905092915050565b600082825260208201905092915050565b600082825260208201905092915050565b6000610e3b82610e4e565b9050919050565b60008115159050919050565b600073ffffffffffffffffffffffffffffffffffffffff82169050919050565b6000819050919050565b82818337600083830152505050565b60005b83811015610ea5578082015181840152602081019050610e8a565b83811115610eb4576000848401525b50505050565b6000601f19601f8301169050919050565b610ed481610e30565b8114610edf57600080fd5b5056fea365627a7a723158205cddf2432363be00062f75b17a5eda315df96bb3e7b20fc365c77a6f302318ef6c6578706572696d656e74616cf564736f6c63430005110040",
  "source": "pragma solidity ^0.5.0;\npragma experimental ABIEncoderV2; \ncontract Ownable {\n  address public owner;\n\n  constructor() internal{\n    owner = msg.sender;\n  }\n\n  modifier onlyOwner() {\n    if (msg.sender == owner)\n      _;\n  }\n\n   function transferOwnership(address newOwner) onlyOwner public{\n    if (newOwner != address(0)) owner = newOwner;\n  }\n\n}\n    \ncontract UserWalletContract is Ownable{\n    mapping(address => uint) public balances;\n    string[] walletName;\n    address[] walletAddr;\n    string[] walletDescription;\n    bool[] isMyWallet;\n    uint walletCount = 0;\n    \n    mapping(address => uint) public arrayIndex;\n\n   function initialize(address _owner) public  {\n    Ownable(_owner);\n  }\n    \n    function getAllWallets() public returns(string[] memory, address[] memory , string[] memory, bool[] memory, uint)\n    {\n        \n        return(walletName, walletAddr, walletDescription, isMyWallet, walletCount);\n    }\n    \n    function _getWalletIndex(address _addr) internal returns(uint){\n        return arrayIndex[_addr];\n    }\n    \n    function addWallet(string memory _walletName, address  _walletAddr, string memory _walletDescription) public  {\n       walletName.push(_walletName);\n       walletAddr.push(_walletAddr);\n       walletDescription.push(_walletDescription);\n       isMyWallet.push(false);\n       arrayIndex[_walletAddr] = walletCount;\n       walletCount++;\n    }\n    function _validate(address _walletToValidate) internal{\n        uint index = arrayIndex[_walletToValidate];\n        isMyWallet[index] = true;\n    }\n    \n    function _send(address payable _to, uint256 _value) internal returns (bool) \n    {\n        require(_value <= address(this).balance);\n        _to.transfer(_value);\n        return true;\n    }\n    function() external payable\n    {\n       _validateOwnership(msg.sender);\n    }\n    \n    function _validateOwnership(address  _walletToVerify) internal {\n        balances[msg.sender] += msg.value;\n        if(msg.sender == _walletToVerify){\n            _send(msg.sender, msg.value);\n            _validate(_walletToVerify);\n        }\n        \n    }\n\n    \n}\n    ",
  "sourcePath": "/home/alexandre/Dev/harmony/open.fi/contracts/UserWalletContract.sol",
  "compiler": {
    "name": "solc",
    "version": "0.5.17+commit.d19bba13.Emscripten.clang"
  },
  "schemaVersion": "3.3.2",
  "updatedAt": "2021-01-13T22:22:41.582Z",
  "devdoc": {
    "methods": {}
  },
  "userdoc": {
    "methods": {}
  }
}