{
  "contractName": "UserManager",
  "abi": [
    {
      "inputs": [
        {
          "internalType": "address",
          "name": "_tokenImp",
          "type": "address"
        },
        {
          "internalType": "address",
          "name": "_budgetImp",
          "type": "address"
        },
        {
          "internalType": "address",
          "name": "_walletImp",
          "type": "address"
        }
      ],
      "payable": false,
      "stateMutability": "nonpayable",
      "type": "constructor"
    },
    {
      "anonymous": false,
      "inputs": [
        {
          "indexed": false,
          "internalType": "address",
          "name": "proxy",
          "type": "address"
        }
      ],
      "name": "ProxyCreated",
      "type": "event"
    },
    {
      "constant": true,
      "inputs": [],
      "name": "UserBudgetContractAddr",
      "outputs": [
        {
          "internalType": "address",
          "name": "",
          "type": "address"
        }
      ],
      "payable": false,
      "stateMutability": "view",
      "type": "function"
    },
    {
      "constant": true,
      "inputs": [],
      "name": "UserTokenContractAddr",
      "outputs": [
        {
          "internalType": "address",
          "name": "",
          "type": "address"
        }
      ],
      "payable": false,
      "stateMutability": "view",
      "type": "function"
    },
    {
      "constant": true,
      "inputs": [],
      "name": "UserWalletContractAddr",
      "outputs": [
        {
          "internalType": "address",
          "name": "",
          "type": "address"
        }
      ],
      "payable": false,
      "stateMutability": "view",
      "type": "function"
    },
    {
      "constant": true,
      "inputs": [],
      "name": "budgetImplementationContract",
      "outputs": [
        {
          "internalType": "address",
          "name": "",
          "type": "address"
        }
      ],
      "payable": false,
      "stateMutability": "view",
      "type": "function"
    },
    {
      "constant": false,
      "inputs": [
        {
          "internalType": "uint256",
          "name": "_salt",
          "type": "uint256"
        },
        {
          "internalType": "address",
          "name": "_logic",
          "type": "address"
        },
        {
          "internalType": "address",
          "name": "_admin",
          "type": "address"
        },
        {
          "internalType": "bytes",
          "name": "_data",
          "type": "bytes"
        }
      ],
      "name": "deploy",
      "outputs": [
        {
          "internalType": "address",
          "name": "",
          "type": "address"
        }
      ],
      "payable": false,
      "stateMutability": "nonpayable",
      "type": "function"
    },
    {
      "constant": false,
      "inputs": [
        {
          "internalType": "address",
          "name": "_logic",
          "type": "address"
        },
        {
          "internalType": "bytes",
          "name": "_data",
          "type": "bytes"
        }
      ],
      "name": "deployMinimal",
      "outputs": [
        {
          "internalType": "address",
          "name": "proxy",
          "type": "address"
        }
      ],
      "payable": false,
      "stateMutability": "nonpayable",
      "type": "function"
    },
    {
      "constant": false,
      "inputs": [
        {
          "internalType": "uint256",
          "name": "_salt",
          "type": "uint256"
        },
        {
          "internalType": "address",
          "name": "_logic",
          "type": "address"
        },
        {
          "internalType": "address",
          "name": "_admin",
          "type": "address"
        },
        {
          "internalType": "bytes",
          "name": "_data",
          "type": "bytes"
        },
        {
          "internalType": "bytes",
          "name": "_signature",
          "type": "bytes"
        }
      ],
      "name": "deploySigned",
      "outputs": [
        {
          "internalType": "address",
          "name": "",
          "type": "address"
        }
      ],
      "payable": false,
      "stateMutability": "nonpayable",
      "type": "function"
    },
    {
      "constant": true,
      "inputs": [
        {
          "internalType": "uint256",
          "name": "_salt",
          "type": "uint256"
        },
        {
          "internalType": "address",
          "name": "_sender",
          "type": "address"
        }
      ],
      "name": "getDeploymentAddress",
      "outputs": [
        {
          "internalType": "address",
          "name": "",
          "type": "address"
        }
      ],
      "payable": false,
      "stateMutability": "view",
      "type": "function"
    },
    {
      "constant": true,
      "inputs": [
        {
          "internalType": "uint256",
          "name": "_salt",
          "type": "uint256"
        },
        {
          "internalType": "address",
          "name": "_logic",
          "type": "address"
        },
        {
          "internalType": "address",
          "name": "_admin",
          "type": "address"
        },
        {
          "internalType": "bytes",
          "name": "_data",
          "type": "bytes"
        },
        {
          "internalType": "bytes",
          "name": "_signature",
          "type": "bytes"
        }
      ],
      "name": "getSigner",
      "outputs": [
        {
          "internalType": "address",
          "name": "",
          "type": "address"
        }
      ],
      "payable": false,
      "stateMutability": "view",
      "type": "function"
    },
    {
      "constant": true,
      "inputs": [],
      "name": "name",
      "outputs": [
        {
          "internalType": "string",
          "name": "",
          "type": "string"
        }
      ],
      "payable": false,
      "stateMutability": "view",
      "type": "function"
    },
    {
      "constant": true,
      "inputs": [],
      "name": "owner",
      "outputs": [
        {
          "internalType": "address",
          "name": "",
          "type": "address"
        }
      ],
      "payable": false,
      "stateMutability": "view",
      "type": "function"
    },
    {
      "constant": true,
      "inputs": [],
      "name": "tokenImplementationContract",
      "outputs": [
        {
          "internalType": "address",
          "name": "",
          "type": "address"
        }
      ],
      "payable": false,
      "stateMutability": "view",
      "type": "function"
    },
    {
      "constant": false,
      "inputs": [
        {
          "internalType": "address",
          "name": "newOwner",
          "type": "address"
        }
      ],
      "name": "transferOwnership",
      "outputs": [],
      "payable": false,
      "stateMutability": "nonpayable",
      "type": "function"
    },
    {
      "constant": true,
      "inputs": [],
      "name": "walletImplementationContract",
      "outputs": [
        {
          "internalType": "address",
          "name": "",
          "type": "address"
        }
      ],
      "payable": false,
      "stateMutability": "view",
      "type": "function"
    },
    {
      "constant": false,
      "inputs": [
        {
          "internalType": "string",
          "name": "_name",
          "type": "string"
        },
        {
          "internalType": "address",
          "name": "_owner",
          "type": "address"
        }
      ],
      "name": "initialize",
      "outputs": [],
      "payable": false,
      "stateMutability": "nonpayable",
      "type": "function"
    },
    {
      "constant": false,
      "inputs": [
        {
          "internalType": "bytes",
          "name": "_data",
          "type": "bytes"
        }
      ],
      "name": "createTokenContract",
      "outputs": [],
      "payable": false,
      "stateMutability": "nonpayable",
      "type": "function"
    },
    {
      "constant": false,
      "inputs": [
        {
          "internalType": "bytes",
          "name": "_data",
          "type": "bytes"
        }
      ],
      "name": "createBudgetContract",
      "outputs": [],
      "payable": false,
      "stateMutability": "nonpayable",
      "type": "function"
    },
    {
      "constant": false,
      "inputs": [
        {
          "internalType": "bytes",
          "name": "_data",
          "type": "bytes"
        }
      ],
      "name": "createWalletContract",
      "outputs": [],
      "payable": false,
      "stateMutability": "nonpayable",
      "type": "function"
    },
    {
      "constant": true,
      "inputs": [],
      "name": "getimp",
      "outputs": [
        {
          "internalType": "address",
          "name": "",
          "type": "address"
        }
      ],
      "payable": false,
      "stateMutability": "view",
      "type": "function"
    },
    {
      "constant": true,
      "inputs": [],
      "name": "getUserTokenContractAddress",
      "outputs": [
        {
          "internalType": "address",
          "name": "",
          "type": "address"
        }
      ],
      "payable": false,
      "stateMutability": "view",
      "type": "function"
    },
    {
      "constant": true,
      "inputs": [],
      "name": "getUserBudgetContractAddress",
      "outputs": [
        {
          "internalType": "address",
          "name": "",
          "type": "address"
        }
      ],
      "payable": false,
      "stateMutability": "view",
      "type": "function"
    },
    {
      "constant": true,
      "inputs": [],
      "name": "getUserWalletContractAddress",
      "outputs": [
        {
          "internalType": "address",
          "name": "",
          "type": "address"
        }
      ],
      "payable": false,
      "stateMutability": "view",
      "type": "function"
    }
  ],
  "bytecode": "0x608060405234801561001057600080fd5b5060405162003bec38038062003bec8339818101604052606081101561003557600080fd5b8101908080519060200190929190805190602001909291908051906020019092919050505033603360006101000a81548173ffffffffffffffffffffffffffffffffffffffff021916908373ffffffffffffffffffffffffffffffffffffffff160217905550604051806020016100ab90610197565b6020820181038252601f19601f820116604052508051906020012060348190555082603660006101000a81548173ffffffffffffffffffffffffffffffffffffffff021916908373ffffffffffffffffffffffffffffffffffffffff16021790555081603760006101000a81548173ffffffffffffffffffffffffffffffffffffffff021916908373ffffffffffffffffffffffffffffffffffffffff16021790555080603860006101000a81548173ffffffffffffffffffffffffffffffffffffffff021916908373ffffffffffffffffffffffffffffffffffffffff1602179055505050506101a5565b610d128062002eda83390190565b612d2580620001b56000396000f3fe608060405234801561001057600080fd5b50600436106101125760003560e01c8063027cf4771461011757806306fdde03146101615780630aff1173146101e457806325a545781461022e578063290f8f5614610278578063332d66261461045457806341ae8f98146106305780634c7fee321461067a5780636150864c146107355780636d116f4f1461087a57806379f0e3c9146109355780637ab4339d1461097f5780637d0277da14610a5a57806381aca4ff14610aa457806381ae1f5b14610aee5780638da5cb5b14610b7c578063916a77c714610bc6578063993e0a6114610c10578063b3eeb5e214610ccb578063bd7f228d14610de6578063f208427314610e30578063f2fde38b14610e7a575b600080fd5b61011f610ebe565b604051808273ffffffffffffffffffffffffffffffffffffffff1673ffffffffffffffffffffffffffffffffffffffff16815260200191505060405180910390f35b610169610ee8565b6040518080602001828103825283818151815260200191508051906020019080838360005b838110156101a957808201518184015260208101905061018e565b50505050905090810190601f1680156101d65780820380516001836020036101000a031916815260200191505b509250505060405180910390f35b6101ec610f86565b604051808273ffffffffffffffffffffffffffffffffffffffff1673ffffffffffffffffffffffffffffffffffffffff16815260200191505060405180910390f35b610236610fac565b604051808273ffffffffffffffffffffffffffffffffffffffff1673ffffffffffffffffffffffffffffffffffffffff16815260200191505060405180910390f35b610412600480360360a081101561028e57600080fd5b8101908080359060200190929190803573ffffffffffffffffffffffffffffffffffffffff169060200190929190803573ffffffffffffffffffffffffffffffffffffffff169060200190929190803590602001906401000000008111156102f557600080fd5b82018360208201111561030757600080fd5b8035906020019184600183028401116401000000008311171561032957600080fd5b91908080601f016020809104026020016040519081016040528093929190818152602001838380828437600081840152601f19601f8201169050808301925050505050505091929192908035906020019064010000000081111561038c57600080fd5b82018360208201111561039e57600080fd5b803590602001918460018302840111640100000000831117156103c057600080fd5b91908080601f016020809104026020016040519081016040528093929190818152602001838380828437600081840152601f19601f820116905080830192505050505050509192919290505050610fd6565b604051808273ffffffffffffffffffffffffffffffffffffffff1673ffffffffffffffffffffffffffffffffffffffff16815260200191505060405180910390f35b6105ee600480360360a081101561046a57600080fd5b8101908080359060200190929190803573ffffffffffffffffffffffffffffffffffffffff169060200190929190803573ffffffffffffffffffffffffffffffffffffffff169060200190929190803590602001906401000000008111156104d157600080fd5b8201836020820111156104e357600080fd5b8035906020019184600183028401116401000000008311171561050557600080fd5b91908080601f016020809104026020016040519081016040528093929190818152602001838380828437600081840152601f19601f8201169050808301925050505050505091929192908035906020019064010000000081111561056857600080fd5b82018360208201111561057a57600080fd5b8035906020019184600183028401116401000000008311171561059c57600080fd5b91908080601f016020809104026020016040519081016040528093929190818152602001838380828437600081840152601f19601f820116905080830192505050505050509192919290505050611118565b604051808273ffffffffffffffffffffffffffffffffffffffff1673ffffffffffffffffffffffffffffffffffffffff16815260200191505060405180910390f35b6106386111e6565b604051808273ffffffffffffffffffffffffffffffffffffffff1673ffffffffffffffffffffffffffffffffffffffff16815260200191505060405180910390f35b6107336004803603602081101561069057600080fd5b81019080803590602001906401000000008111156106ad57600080fd5b8201836020820111156106bf57600080fd5b803590602001918460018302840111640100000000831117156106e157600080fd5b91908080601f016020809104026020016040519081016040528093929190818152602001838380828437600081840152601f19601f820116905080830192505050505050509192919290505050611210565b005b6108386004803603608081101561074b57600080fd5b8101908080359060200190929190803573ffffffffffffffffffffffffffffffffffffffff169060200190929190803573ffffffffffffffffffffffffffffffffffffffff169060200190929190803590602001906401000000008111156107b257600080fd5b8201836020820111156107c457600080fd5b803590602001918460018302840111640100000000831117156107e657600080fd5b91908080601f016020809104026020016040519081016040528093929190818152602001838380828437600081840152601f19601f8201169050808301925050505050505091929192905050506113a0565b604051808273ffffffffffffffffffffffffffffffffffffffff1673ffffffffffffffffffffffffffffffffffffffff16815260200191505060405180910390f35b6109336004803603602081101561089057600080fd5b81019080803590602001906401000000008111156108ad57600080fd5b8201836020820111156108bf57600080fd5b803590602001918460018302840111640100000000831117156108e157600080fd5b91908080601f016020809104026020016040519081016040528093929190818152602001838380828437600081840152601f19601f8201169050808301925050505050505091929192905050506113b9565b005b61093d61154f565b604051808273ffffffffffffffffffffffffffffffffffffffff1673ffffffffffffffffffffffffffffffffffffffff16815260200191505060405180910390f35b610a586004803603604081101561099557600080fd5b81019080803590602001906401000000008111156109b257600080fd5b8201836020820111156109c457600080fd5b803590602001918460018302840111640100000000831117156109e657600080fd5b91908080601f016020809104026020016040519081016040528093929190818152602001838380828437600081840152601f19601f820116905080830192505050505050509192919290803573ffffffffffffffffffffffffffffffffffffffff169060200190929190505050611575565b005b610a62611590565b604051808273ffffffffffffffffffffffffffffffffffffffff1673ffffffffffffffffffffffffffffffffffffffff16815260200191505060405180910390f35b610aac6115b6565b604051808273ffffffffffffffffffffffffffffffffffffffff1673ffffffffffffffffffffffffffffffffffffffff16815260200191505060405180910390f35b610b3a60048036036040811015610b0457600080fd5b8101908080359060200190929190803573ffffffffffffffffffffffffffffffffffffffff1690602001909291905050506115e0565b604051808273ffffffffffffffffffffffffffffffffffffffff1673ffffffffffffffffffffffffffffffffffffffff16815260200191505060405180910390f35b610b846116bd565b604051808273ffffffffffffffffffffffffffffffffffffffff1673ffffffffffffffffffffffffffffffffffffffff16815260200191505060405180910390f35b610bce6116e3565b604051808273ffffffffffffffffffffffffffffffffffffffff1673ffffffffffffffffffffffffffffffffffffffff16815260200191505060405180910390f35b610cc960048036036020811015610c2657600080fd5b8101908080359060200190640100000000811115610c4357600080fd5b820183602082011115610c5557600080fd5b80359060200191846001830284011164010000000083111715610c7757600080fd5b91908080601f016020809104026020016040519081016040528093929190818152602001838380828437600081840152601f19601f820116905080830192505050505050509192919290505050611709565b005b610da460048036036040811015610ce157600080fd5b81019080803573ffffffffffffffffffffffffffffffffffffffff16906020019092919080359060200190640100000000811115610d1e57600080fd5b820183602082011115610d3057600080fd5b80359060200191846001830284011164010000000083111715610d5257600080fd5b91908080601f016020809104026020016040519081016040528093929190818152602001838380828437600081840152601f19601f82011690508083019250505050505050919291929050505061189f565b604051808273ffffffffffffffffffffffffffffffffffffffff1673ffffffffffffffffffffffffffffffffffffffff16815260200191505060405180910390f35b610dee611a3a565b604051808273ffffffffffffffffffffffffffffffffffffffff1673ffffffffffffffffffffffffffffffffffffffff16815260200191505060405180910390f35b610e38611a60565b604051808273ffffffffffffffffffffffffffffffffffffffff1673ffffffffffffffffffffffffffffffffffffffff16815260200191505060405180910390f35b610ebc60048036036020811015610e9057600080fd5b81019080803573ffffffffffffffffffffffffffffffffffffffff169060200190929190505050611a86565b005b6000603960009054906101000a900473ffffffffffffffffffffffffffffffffffffffff16905090565b60358054600181600116156101000203166002900480601f016020809104026020016040519081016040528092919081815260200182805460018160011615610100020316600290048015610f7e5780601f10610f5357610100808354040283529160200191610f7e565b820191906000526020600020905b815481529060010190602001808311610f6157829003601f168201915b505050505081565b603a60009054906101000a900473ffffffffffffffffffffffffffffffffffffffff1681565b6000603b60009054906101000a900473ffffffffffffffffffffffffffffffffffffffff16905090565b6000806111008787878730604051602001808681526020018573ffffffffffffffffffffffffffffffffffffffff1673ffffffffffffffffffffffffffffffffffffffff1660601b81526014018473ffffffffffffffffffffffffffffffffffffffff1673ffffffffffffffffffffffffffffffffffffffff1660601b815260140183805190602001908083835b602083106110875780518252602082019150602081019050602083039250611064565b6001836020036101000a0380198251168184511680821785525050505050509050018273ffffffffffffffffffffffffffffffffffffffff1673ffffffffffffffffffffffffffffffffffffffff1660601b81526014019550505050505060405160208183030381529060405280519060200120611b56565b905061110c8184611bae565b91505095945050505050565b6000806111288787878787610fd6565b9050600073ffffffffffffffffffffffffffffffffffffffff168173ffffffffffffffffffffffffffffffffffffffff1614156111cd576040517f08c379a00000000000000000000000000000000000000000000000000000000081526004018080602001828103825260118152602001807f496e76616c6964207369676e617475726500000000000000000000000000000081525060200191505060405180910390fd5b6111da8787878785611cb2565b91505095945050505050565b6000603a60009054906101000a900473ffffffffffffffffffffffffffffffffffffffff16905090565b603360009054906101000a900473ffffffffffffffffffffffffffffffffffffffff1673ffffffffffffffffffffffffffffffffffffffff163373ffffffffffffffffffffffffffffffffffffffff16141561139d57600073ffffffffffffffffffffffffffffffffffffffff16603b60009054906101000a900473ffffffffffffffffffffffffffffffffffffffff1673ffffffffffffffffffffffffffffffffffffffff16141561132e576112e9603660009054906101000a900473ffffffffffffffffffffffffffffffffffffffff168261189f565b603b60006101000a81548173ffffffffffffffffffffffffffffffffffffffff021916908373ffffffffffffffffffffffffffffffffffffffff16021790555061139c565b6040517f08c379a00000000000000000000000000000000000000000000000000000000081526004018080602001828103825260178152602001807f436f6e747261637420616c72656164792065786973747300000000000000000081525060200191505060405180910390fd5b5b50565b60006113af8585858533611cb2565b9050949350505050565b603360009054906101000a900473ffffffffffffffffffffffffffffffffffffffff1673ffffffffffffffffffffffffffffffffffffffff163373ffffffffffffffffffffffffffffffffffffffff16141561154c57600073ffffffffffffffffffffffffffffffffffffffff16603a60009054906101000a900473ffffffffffffffffffffffffffffffffffffffff1673ffffffffffffffffffffffffffffffffffffffff1614156114dd576000611494603860009054906101000a900473ffffffffffffffffffffffffffffffffffffffff168361189f565b905080603a60006101000a81548173ffffffffffffffffffffffffffffffffffffffff021916908373ffffffffffffffffffffffffffffffffffffffff1602179055505061154b565b6040517f08c379a00000000000000000000000000000000000000000000000000000000081526004018080602001828103825260178152602001807f436f6e747261637420616c72656164792065786973747300000000000000000081525060200191505060405180910390fd5b5b50565b603b60009054906101000a900473ffffffffffffffffffffffffffffffffffffffff1681565b816035908051906020019061158b929190611f2c565b505050565b603960009054906101000a900473ffffffffffffffffffffffffffffffffffffffff1681565b6000603660009054906101000a900473ffffffffffffffffffffffffffffffffffffffff16905090565b6000806115ed8484611e68565b9050600060ff60f81b308360345460405160200180857effffffffffffffffffffffffffffffffffffffffffffffffffffffffffffff19167effffffffffffffffffffffffffffffffffffffffffffffffffffffffffffff191681526001018473ffffffffffffffffffffffffffffffffffffffff1673ffffffffffffffffffffffffffffffffffffffff1660601b8152601401838152602001828152602001945050505050604051602081830303815290604052805190602001209050606081901b60601c9250505092915050565b603360009054906101000a900473ffffffffffffffffffffffffffffffffffffffff1681565b603760009054906101000a900473ffffffffffffffffffffffffffffffffffffffff1681565b603360009054906101000a900473ffffffffffffffffffffffffffffffffffffffff1673ffffffffffffffffffffffffffffffffffffffff163373ffffffffffffffffffffffffffffffffffffffff16141561189c57600073ffffffffffffffffffffffffffffffffffffffff16603960009054906101000a900473ffffffffffffffffffffffffffffffffffffffff1673ffffffffffffffffffffffffffffffffffffffff16141561182d5760006117e4603760009054906101000a900473ffffffffffffffffffffffffffffffffffffffff168361189f565b905080603960006101000a81548173ffffffffffffffffffffffffffffffffffffffff021916908373ffffffffffffffffffffffffffffffffffffffff1602179055505061189b565b6040517f08c379a00000000000000000000000000000000000000000000000000000000081526004018080602001828103825260178152602001807f436f6e747261637420616c72656164792065786973747300000000000000000081525060200191505060405180910390fd5b5b50565b6000808360601b90506040517f3d602d80600a3d3981f3363d3d373d3d3d363d7300000000000000000000000081528160148201527f5af43d82803e903d91602b57fd5bf3000000000000000000000000000000000060288201526037816000f09250507efffc2da0b561cae30d9826d37709e9421c4725faebc226cbbb7ef5fc5e734982604051808273ffffffffffffffffffffffffffffffffffffffff1673ffffffffffffffffffffffffffffffffffffffff16815260200191505060405180910390a1600083511115611a335760008273ffffffffffffffffffffffffffffffffffffffff16846040518082805190602001908083835b602083106119bc5780518252602082019150602081019050602083039250611999565b6001836020036101000a0380198251168184511680821785525050505050509050019150506000604051808303816000865af19150503d8060008114611a1e576040519150601f19603f3d011682016040523d82523d6000602084013e611a23565b606091505b5050905080611a3157600080fd5b505b5092915050565b603860009054906101000a900473ffffffffffffffffffffffffffffffffffffffff1681565b603660009054906101000a900473ffffffffffffffffffffffffffffffffffffffff1681565b603360009054906101000a900473ffffffffffffffffffffffffffffffffffffffff1673ffffffffffffffffffffffffffffffffffffffff163373ffffffffffffffffffffffffffffffffffffffff161415611b5357600073ffffffffffffffffffffffffffffffffffffffff168173ffffffffffffffffffffffffffffffffffffffff1614611b525780603360006101000a81548173ffffffffffffffffffffffffffffffffffffffff021916908373ffffffffffffffffffffffffffffffffffffffff1602179055505b5b50565b60008160405160200180807f19457468657265756d205369676e6564204d6573736167653a0a333200000000815250601c01828152602001915050604051602081830303815290604052805190602001209050919050565b60006041825114611bc25760009050611cac565b60008060006020850151925060408501519150606085015160001a90507f7fffffffffffffffffffffffffffffff5d576e7357a4501ddfe92f46681b20a08260001c1115611c165760009350505050611cac565b601b8160ff1614158015611c2e5750601c8160ff1614155b15611c3f5760009350505050611cac565b60018682858560405160008152602001604052604051808581526020018460ff1660ff1681526020018381526020018281526020019450505050506020604051602081039080840390855afa158015611c9c573d6000803e3d6000fd5b5050506020604051035193505050505b92915050565b600080611cbf8784611ed0565b90507efffc2da0b561cae30d9826d37709e9421c4725faebc226cbbb7ef5fc5e734981604051808273ffffffffffffffffffffffffffffffffffffffff1673ffffffffffffffffffffffffffffffffffffffff16815260200191505060405180910390a18073ffffffffffffffffffffffffffffffffffffffff1663cf7a1d778787876040518463ffffffff1660e01b8152600401808473ffffffffffffffffffffffffffffffffffffffff1673ffffffffffffffffffffffffffffffffffffffff1681526020018373ffffffffffffffffffffffffffffffffffffffff1673ffffffffffffffffffffffffffffffffffffffff16815260200180602001828103825283818151815260200191508051906020019080838360005b83811015611df5578082015181840152602081019050611dda565b50505050905090810190601f168015611e225780820380516001836020036101000a031916815260200191505b50945050505050600060405180830381600087803b158015611e4357600080fd5b505af1158015611e57573d6000803e3d6000fd5b505050508091505095945050505050565b60008282604051602001808381526020018273ffffffffffffffffffffffffffffffffffffffff1673ffffffffffffffffffffffffffffffffffffffff1660601b81526014019250505060405160208183030381529060405280519060200120905092915050565b600080606060405180602001611ee590611fac565b6020820181038252601f19601f8201166040525090506000611f078686611e68565b9050808251602084016000f59250823b611f2057600080fd5b82935050505092915050565b828054600181600116156101000203166002900490600052602060002090601f016020900481019282601f10611f6d57805160ff1916838001178555611f9b565b82800160010185558215611f9b579182015b82811115611f9a578251825591602001919060010190611f7f565b5b509050611fa89190611fb9565b5090565b610d1280611fdf83390190565b611fdb91905b80821115611fd7576000816000905550600101611fbf565b5090565b9056fe608060405234801561001057600080fd5b50610cf2806100206000396000f3fe6080604052600436106100605760003560e01c80633659cfe61461006a5780634f1ef286146100bb5780635c60da1b146101545780638f283970146101ab578063cf7a1d77146101fc578063d1f57894146102f7578063f851a440146103d2575b610068610429565b005b34801561007657600080fd5b506100b96004803603602081101561008d57600080fd5b81019080803573ffffffffffffffffffffffffffffffffffffffff169060200190929190505050610443565b005b610152600480360360408110156100d157600080fd5b81019080803573ffffffffffffffffffffffffffffffffffffffff1690602001909291908035906020019064010000000081111561010e57600080fd5b82018360208201111561012057600080fd5b8035906020019184600183028401116401000000008311171561014257600080fd5b9091929391929390505050610498565b005b34801561016057600080fd5b5061016961056e565b604051808273ffffffffffffffffffffffffffffffffffffffff1673ffffffffffffffffffffffffffffffffffffffff16815260200191505060405180910390f35b3480156101b757600080fd5b506101fa600480360360208110156101ce57600080fd5b81019080803573ffffffffffffffffffffffffffffffffffffffff1690602001909291905050506105c6565b005b6102f56004803603606081101561021257600080fd5b81019080803573ffffffffffffffffffffffffffffffffffffffff169060200190929190803573ffffffffffffffffffffffffffffffffffffffff1690602001909291908035906020019064010000000081111561026f57600080fd5b82018360208201111561028157600080fd5b803590602001918460018302840111640100000000831117156102a357600080fd5b91908080601f016020809104026020016040519081016040528093929190818152602001838380828437600081840152601f19601f82011690508083019250505050505050919291929050505061073f565b005b6103d06004803603604081101561030d57600080fd5b81019080803573ffffffffffffffffffffffffffffffffffffffff1690602001909291908035906020019064010000000081111561034a57600080fd5b82018360208201111561035c57600080fd5b8035906020019184600183028401116401000000008311171561037e57600080fd5b91908080601f016020809104026020016040519081016040528093929190818152602001838380828437600081840152601f19601f820116905080830192505050505050509192919290505050610801565b005b3480156103de57600080fd5b506103e7610984565b604051808273ffffffffffffffffffffffffffffffffffffffff1673ffffffffffffffffffffffffffffffffffffffff16815260200191505060405180910390f35b6104316109dc565b61044161043c610a72565b610aa3565b565b61044b610ac9565b73ffffffffffffffffffffffffffffffffffffffff163373ffffffffffffffffffffffffffffffffffffffff16141561048c5761048781610afa565b610495565b610494610429565b5b50565b6104a0610ac9565b73ffffffffffffffffffffffffffffffffffffffff163373ffffffffffffffffffffffffffffffffffffffff161415610560576104dc83610afa565b60008373ffffffffffffffffffffffffffffffffffffffff168383604051808383808284378083019250505092505050600060405180830381855af49150503d8060008114610547576040519150601f19603f3d011682016040523d82523d6000602084013e61054c565b606091505b505090508061055a57600080fd5b50610569565b610568610429565b5b505050565b6000610578610ac9565b73ffffffffffffffffffffffffffffffffffffffff163373ffffffffffffffffffffffffffffffffffffffff1614156105ba576105b3610a72565b90506105c3565b6105c2610429565b5b90565b6105ce610ac9565b73ffffffffffffffffffffffffffffffffffffffff163373ffffffffffffffffffffffffffffffffffffffff16141561073357600073ffffffffffffffffffffffffffffffffffffffff168173ffffffffffffffffffffffffffffffffffffffff161415610687576040517f08c379a0000000000000000000000000000000000000000000000000000000008152600401808060200182810382526036815260200180610c4d6036913960400191505060405180910390fd5b7f7e644d79422f17c01e4894b5f4f588d331ebfa28653d42ae832dc59e38c9798f6106b0610ac9565b82604051808373ffffffffffffffffffffffffffffffffffffffff1673ffffffffffffffffffffffffffffffffffffffff1681526020018273ffffffffffffffffffffffffffffffffffffffff1673ffffffffffffffffffffffffffffffffffffffff1681526020019250505060405180910390a161072e81610b49565b61073c565b61073b610429565b5b50565b600073ffffffffffffffffffffffffffffffffffffffff1661075f610a72565b73ffffffffffffffffffffffffffffffffffffffff161461077f57600080fd5b6107898382610801565b600160405180807f656970313936372e70726f78792e61646d696e000000000000000000000000008152506013019050604051809103902060001c0360001b7fb53127684a568b3173ae13b9f8a6016e243e63b6e8ee1178d6a717850b5d610360001b146107f357fe5b6107fc82610b49565b505050565b600073ffffffffffffffffffffffffffffffffffffffff16610821610a72565b73ffffffffffffffffffffffffffffffffffffffff161461084157600080fd5b600160405180807f656970313936372e70726f78792e696d706c656d656e746174696f6e00000000815250601c019050604051809103902060001c0360001b7f360894a13ba1a3210667c828492db98dca3e2076cc3735a920a3ca505d382bbc60001b146108ab57fe5b6108b482610b78565b6000815111156109805760008273ffffffffffffffffffffffffffffffffffffffff16826040518082805190602001908083835b6020831061090b57805182526020820191506020810190506020830392506108e8565b6001836020036101000a038019825116818451168082178552505050505050905001915050600060405180830381855af49150503d806000811461096b576040519150601f19603f3d011682016040523d82523d6000602084013e610970565b606091505b505090508061097e57600080fd5b505b5050565b600061098e610ac9565b73ffffffffffffffffffffffffffffffffffffffff163373ffffffffffffffffffffffffffffffffffffffff1614156109d0576109c9610ac9565b90506109d9565b6109d8610429565b5b90565b6109e4610ac9565b73ffffffffffffffffffffffffffffffffffffffff163373ffffffffffffffffffffffffffffffffffffffff161415610a68576040517f08c379a0000000000000000000000000000000000000000000000000000000008152600401808060200182810382526032815260200180610c1b6032913960400191505060405180910390fd5b610a70610c05565b565b6000807f360894a13ba1a3210667c828492db98dca3e2076cc3735a920a3ca505d382bbc60001b9050805491505090565b3660008037600080366000845af43d6000803e8060008114610ac4573d6000f35b3d6000fd5b6000807fb53127684a568b3173ae13b9f8a6016e243e63b6e8ee1178d6a717850b5d610360001b9050805491505090565b610b0381610b78565b8073ffffffffffffffffffffffffffffffffffffffff167fbc7cd75a20ee27fd9adebab32041f755214dbc6bffa90cc0225b39da2e5c2d3b60405160405180910390a250565b60007fb53127684a568b3173ae13b9f8a6016e243e63b6e8ee1178d6a717850b5d610360001b90508181555050565b610b8181610c07565b610bd6576040517f08c379a000000000000000000000000000000000000000000000000000000000815260040180806020018281038252603b815260200180610c83603b913960400191505060405180910390fd5b60007f360894a13ba1a3210667c828492db98dca3e2076cc3735a920a3ca505d382bbc60001b90508181555050565b565b600080823b90506000811191505091905056fe43616e6e6f742063616c6c2066616c6c6261636b2066756e6374696f6e2066726f6d207468652070726f78792061646d696e43616e6e6f74206368616e6765207468652061646d696e206f6620612070726f787920746f20746865207a65726f206164647265737343616e6e6f742073657420612070726f787920696d706c656d656e746174696f6e20746f2061206e6f6e2d636f6e74726163742061646472657373a265627a7a723158200de142486cbdd2bbb4c5c275d054ffff56f9dcc51ff0286d16b9480d9682f78164736f6c63430005110032a265627a7a72315820907594d1ddd4dae9e6b0c72f63c5461b6369e731ee3633d34dfbedbd352b90fd64736f6c63430005110032608060405234801561001057600080fd5b50610cf2806100206000396000f3fe6080604052600436106100605760003560e01c80633659cfe61461006a5780634f1ef286146100bb5780635c60da1b146101545780638f283970146101ab578063cf7a1d77146101fc578063d1f57894146102f7578063f851a440146103d2575b610068610429565b005b34801561007657600080fd5b506100b96004803603602081101561008d57600080fd5b81019080803573ffffffffffffffffffffffffffffffffffffffff169060200190929190505050610443565b005b610152600480360360408110156100d157600080fd5b81019080803573ffffffffffffffffffffffffffffffffffffffff1690602001909291908035906020019064010000000081111561010e57600080fd5b82018360208201111561012057600080fd5b8035906020019184600183028401116401000000008311171561014257600080fd5b9091929391929390505050610498565b005b34801561016057600080fd5b5061016961056e565b604051808273ffffffffffffffffffffffffffffffffffffffff1673ffffffffffffffffffffffffffffffffffffffff16815260200191505060405180910390f35b3480156101b757600080fd5b506101fa600480360360208110156101ce57600080fd5b81019080803573ffffffffffffffffffffffffffffffffffffffff1690602001909291905050506105c6565b005b6102f56004803603606081101561021257600080fd5b81019080803573ffffffffffffffffffffffffffffffffffffffff169060200190929190803573ffffffffffffffffffffffffffffffffffffffff1690602001909291908035906020019064010000000081111561026f57600080fd5b82018360208201111561028157600080fd5b803590602001918460018302840111640100000000831117156102a357600080fd5b91908080601f016020809104026020016040519081016040528093929190818152602001838380828437600081840152601f19601f82011690508083019250505050505050919291929050505061073f565b005b6103d06004803603604081101561030d57600080fd5b81019080803573ffffffffffffffffffffffffffffffffffffffff1690602001909291908035906020019064010000000081111561034a57600080fd5b82018360208201111561035c57600080fd5b8035906020019184600183028401116401000000008311171561037e57600080fd5b91908080601f016020809104026020016040519081016040528093929190818152602001838380828437600081840152601f19601f820116905080830192505050505050509192919290505050610801565b005b3480156103de57600080fd5b506103e7610984565b604051808273ffffffffffffffffffffffffffffffffffffffff1673ffffffffffffffffffffffffffffffffffffffff16815260200191505060405180910390f35b6104316109dc565b61044161043c610a72565b610aa3565b565b61044b610ac9565b73ffffffffffffffffffffffffffffffffffffffff163373ffffffffffffffffffffffffffffffffffffffff16141561048c5761048781610afa565b610495565b610494610429565b5b50565b6104a0610ac9565b73ffffffffffffffffffffffffffffffffffffffff163373ffffffffffffffffffffffffffffffffffffffff161415610560576104dc83610afa565b60008373ffffffffffffffffffffffffffffffffffffffff168383604051808383808284378083019250505092505050600060405180830381855af49150503d8060008114610547576040519150601f19603f3d011682016040523d82523d6000602084013e61054c565b606091505b505090508061055a57600080fd5b50610569565b610568610429565b5b505050565b6000610578610ac9565b73ffffffffffffffffffffffffffffffffffffffff163373ffffffffffffffffffffffffffffffffffffffff1614156105ba576105b3610a72565b90506105c3565b6105c2610429565b5b90565b6105ce610ac9565b73ffffffffffffffffffffffffffffffffffffffff163373ffffffffffffffffffffffffffffffffffffffff16141561073357600073ffffffffffffffffffffffffffffffffffffffff168173ffffffffffffffffffffffffffffffffffffffff161415610687576040517f08c379a0000000000000000000000000000000000000000000000000000000008152600401808060200182810382526036815260200180610c4d6036913960400191505060405180910390fd5b7f7e644d79422f17c01e4894b5f4f588d331ebfa28653d42ae832dc59e38c9798f6106b0610ac9565b82604051808373ffffffffffffffffffffffffffffffffffffffff1673ffffffffffffffffffffffffffffffffffffffff1681526020018273ffffffffffffffffffffffffffffffffffffffff1673ffffffffffffffffffffffffffffffffffffffff1681526020019250505060405180910390a161072e81610b49565b61073c565b61073b610429565b5b50565b600073ffffffffffffffffffffffffffffffffffffffff1661075f610a72565b73ffffffffffffffffffffffffffffffffffffffff161461077f57600080fd5b6107898382610801565b600160405180807f656970313936372e70726f78792e61646d696e000000000000000000000000008152506013019050604051809103902060001c0360001b7fb53127684a568b3173ae13b9f8a6016e243e63b6e8ee1178d6a717850b5d610360001b146107f357fe5b6107fc82610b49565b505050565b600073ffffffffffffffffffffffffffffffffffffffff16610821610a72565b73ffffffffffffffffffffffffffffffffffffffff161461084157600080fd5b600160405180807f656970313936372e70726f78792e696d706c656d656e746174696f6e00000000815250601c019050604051809103902060001c0360001b7f360894a13ba1a3210667c828492db98dca3e2076cc3735a920a3ca505d382bbc60001b146108ab57fe5b6108b482610b78565b6000815111156109805760008273ffffffffffffffffffffffffffffffffffffffff16826040518082805190602001908083835b6020831061090b57805182526020820191506020810190506020830392506108e8565b6001836020036101000a038019825116818451168082178552505050505050905001915050600060405180830381855af49150503d806000811461096b576040519150601f19603f3d011682016040523d82523d6000602084013e610970565b606091505b505090508061097e57600080fd5b505b5050565b600061098e610ac9565b73ffffffffffffffffffffffffffffffffffffffff163373ffffffffffffffffffffffffffffffffffffffff1614156109d0576109c9610ac9565b90506109d9565b6109d8610429565b5b90565b6109e4610ac9565b73ffffffffffffffffffffffffffffffffffffffff163373ffffffffffffffffffffffffffffffffffffffff161415610a68576040517f08c379a0000000000000000000000000000000000000000000000000000000008152600401808060200182810382526032815260200180610c1b6032913960400191505060405180910390fd5b610a70610c05565b565b6000807f360894a13ba1a3210667c828492db98dca3e2076cc3735a920a3ca505d382bbc60001b9050805491505090565b3660008037600080366000845af43d6000803e8060008114610ac4573d6000f35b3d6000fd5b6000807fb53127684a568b3173ae13b9f8a6016e243e63b6e8ee1178d6a717850b5d610360001b9050805491505090565b610b0381610b78565b8073ffffffffffffffffffffffffffffffffffffffff167fbc7cd75a20ee27fd9adebab32041f755214dbc6bffa90cc0225b39da2e5c2d3b60405160405180910390a250565b60007fb53127684a568b3173ae13b9f8a6016e243e63b6e8ee1178d6a717850b5d610360001b90508181555050565b610b8181610c07565b610bd6576040517f08c379a000000000000000000000000000000000000000000000000000000000815260040180806020018281038252603b815260200180610c83603b913960400191505060405180910390fd5b60007f360894a13ba1a3210667c828492db98dca3e2076cc3735a920a3ca505d382bbc60001b90508181555050565b565b600080823b90506000811191505091905056fe43616e6e6f742063616c6c2066616c6c6261636b2066756e6374696f6e2066726f6d207468652070726f78792061646d696e43616e6e6f74206368616e6765207468652061646d696e206f6620612070726f787920746f20746865207a65726f206164647265737343616e6e6f742073657420612070726f787920696d706c656d656e746174696f6e20746f2061206e6f6e2d636f6e74726163742061646472657373a265627a7a723158200de142486cbdd2bbb4c5c275d054ffff56f9dcc51ff0286d16b9480d9682f78164736f6c63430005110032",
  "source": "pragma solidity ^0.5.0;\nimport \"@openzeppelin/upgrades/contracts/upgradeability/ProxyFactory.sol\";\n\ncontract Ownable {\n  address public owner;\n\n  constructor() internal{\n    owner = msg.sender;\n  }\n\n  modifier onlyOwner() {\n    if (msg.sender == owner)\n      _;\n  }\n\n   function transferOwnership(address newOwner) onlyOwner public{\n    if (newOwner != address(0)) owner = newOwner;\n  }\n\n}\n\ncontract Initializable {\n\n  /**\n   * @dev Indicates that the contract has been initialized.\n   */\n  bool private initialized;\n\n  /**\n   * @dev Indicates that the contract is in the process of being initialized.\n   */\n  bool private initializing;\n\n  /**\n   * @dev Modifier to use in the initializer function of a contract.\n   */\n  modifier initializer() {\n    require(initializing || isConstructor() || !initialized, \"Contract instance has already been initialized\");\n\n    bool isTopLevelCall = !initializing;\n    if (isTopLevelCall) {\n      initializing = true;\n      initialized = true;\n    }\n\n    _;\n\n    if (isTopLevelCall) {\n      initializing = false;\n    }\n  }\n\n  /// @dev Returns true if and only if the function is running in the constructor\n  function isConstructor() private view returns (bool) {\n    // extcodesize checks the size of the code stored in an address, and\n    // address returns the current address. Since the code is still not\n    // deployed when running a constructor, any checks on its code size will\n    // yield zero, making it an effective way to detect if a contract is\n    // under construction or not.\n    address self = address(this);\n    uint256 cs;\n    assembly { cs := extcodesize(self) }\n    return cs == 0;\n  }\n\n  // Reserved storage space to allow for layout changes in the future.\n  uint256[50] private ______gap;\n}\n\ncontract UserManager is Initializable, Ownable, ProxyFactory {\n  string public name;\n\n  function initialize(string memory _name, address _owner) public {\n    Ownable(_owner);\n    name = _name;\n  }\n      //mapping(address => address) public UserTokenContract;\n    address public tokenImplementationContract;\n    address public budgetImplementationContract;\n    address public walletImplementationContract;\n    address public UserBudgetContractAddr;\n    address public UserWalletContractAddr;\n    address public UserTokenContractAddr;\n    \n  \n   constructor (address _tokenImp, address _budgetImp, address _walletImp) public {\n    tokenImplementationContract = _tokenImp;\n    budgetImplementationContract = _budgetImp;\n    walletImplementationContract = _walletImp;\n  }\n\n  \n\n    function createTokenContract(bytes memory _data) public onlyOwner{\n        if(UserTokenContractAddr == address(0x0000000000000000000000000000000000000000))\n        {\n            \n            UserTokenContractAddr = deployMinimal(tokenImplementationContract, _data);\n        }\n        else\n        {\n            revert(\"Contract already exists\");\n        }\n\n    }\n    function createBudgetContract(bytes memory _data) public onlyOwner{\n        if(UserBudgetContractAddr == address(0x0000000000000000000000000000000000000000))\n        {\n            address _proxy = deployMinimal(budgetImplementationContract, _data);\n            UserBudgetContractAddr = _proxy;\n        }\n        else\n        {\n            revert(\"Contract already exists\");\n        }\n\n    }\n    function createWalletContract(bytes memory _data) public onlyOwner{\n        if(UserWalletContractAddr == address(0x0000000000000000000000000000000000000000))\n        {\n            address _proxy = deployMinimal(walletImplementationContract, _data);\n            UserWalletContractAddr = _proxy;\n        }\n        else\n        {\n            revert(\"Contract already exists\");\n        }\n\n    }\n        function getimp() public view returns (address){\n        return tokenImplementationContract;\n    }\n    function getUserTokenContractAddress() public view returns (address){\n        return UserTokenContractAddr;\n    }\n    function getUserBudgetContractAddress() public view returns (address){\n        return UserBudgetContractAddr;\n    }\n    function getUserWalletContractAddress() public view returns (address){\n        return UserWalletContractAddr;\n    }\n  \n  \n}",
  "sourcePath": "/home/alexandre/Dev/harmony/open.fi/contracts/UserManager.sol",
  "compiler": {
    "name": "solc",
    "version": "0.5.17+commit.d19bba13.Emscripten.clang"
  },
  "schemaVersion": "3.3.2",
  "updatedAt": "2021-01-13T22:22:41.578Z",
  "devdoc": {
    "methods": {}
  },
  "userdoc": {
    "methods": {}
  }
}