{
  "contractName": "UserFactory",
  "abi": [
    {
      "inputs": [],
      "payable": false,
      "stateMutability": "nonpayable",
      "type": "constructor"
    },
    {
      "constant": true,
      "inputs": [
        {
          "internalType": "address",
          "name": "",
          "type": "address"
        }
      ],
      "name": "usercontract",
      "outputs": [
        {
          "internalType": "address",
          "name": "",
          "type": "address"
        }
      ],
      "payable": false,
      "stateMutability": "view",
      "type": "function"
    },
    {
      "constant": false,
      "inputs": [],
      "name": "createUser",
      "outputs": [],
      "payable": false,
      "stateMutability": "nonpayable",
      "type": "function"
    },
    {
      "constant": true,
      "inputs": [
        {
          "internalType": "address",
          "name": "_addr",
          "type": "address"
        }
      ],
      "name": "getUserContractAddress",
      "outputs": [
        {
          "internalType": "address",
          "name": "",
          "type": "address"
        }
      ],
      "payable": false,
      "stateMutability": "view",
      "type": "function"
    }
  ],
  "bytecode": "0x6080604052600060025534801561001557600080fd5b50600180546001600160a01b03191633179055612652806100376000396000f3fe608060405234801561001057600080fd5b50600436106100415760003560e01c806325ad91ce14610046578063a6e497b614610050578063dd02935214610092575b600080fd5b61004e6100b8565b005b6100766004803603602081101561006657600080fd5b50356001600160a01b03166101e7565b604080516001600160a01b039092168252519081900360200190f35b610076600480360360208110156100a857600080fd5b50356001600160a01b0316610205565b336000908152602081905260409020546001600160a01b03166101a25760006040516100e390610220565b604051809103906000f0801580156100ff573d6000803e3d6000fd5b509050806001600160a01b0316639e4559396040518163ffffffff1660e01b815260040160206040518083038186803b15801561013b57600080fd5b505afa15801561014f573d6000803e3d6000fd5b505050506040513d602081101561016557600080fd5b505133600090815260208190526040902080546001600160a01b0319166001600160a01b03909216919091179055506002805460010190556101e5565b6040805162461bcd60e51b81526020600482015260136024820152727573657220616c72656164792065786973747360681b604482015290519081900360640190fd5b565b6001600160a01b039081166000908152602081905260409020541690565b6000602081905290815260409020546001600160a01b031681565b6123f08061022e8339019056fe608060405234801561001057600080fd5b506123d0806100206000396000f3fe608060405234801561001057600080fd5b50600436106100a95760003560e01c806379f0e3c91161007157806379f0e3c9146100f45780637d0277da146100fc5780638da5cb5b146101045780639e4559391461010c578063d5d21e1814610114578063e660eaa51461011c576100a9565b8063027cf477146100ae5780630aff1173146100d257806325a54578146100da57806341ae8f98146100e25780635bacb96f146100ea575b600080fd5b6100b6610124565b604080516001600160a01b039092168252519081900360200190f35b6100b6610133565b6100b6610142565b6100b6610151565b6100f2610160565b005b6100b6610276565b6100b6610285565b6100b6610294565b6100b66102a3565b6100f26102a7565b6100f261036e565b6001546001600160a01b031690565b6002546001600160a01b031681565b6003546001600160a01b031690565b6002546001600160a01b031690565b6002546001600160a01b031661022757600060405161017e90610435565b604051809103906000f08015801561019a573d6000803e3d6000fd5b509050806001600160a01b0316639e4559396040518163ffffffff1660e01b815260040160206040518083038186803b1580156101d657600080fd5b505afa1580156101ea573d6000803e3d6000fd5b505050506040513d602081101561020057600080fd5b5051600280546001600160a01b0319166001600160a01b0390921691909117905550610274565b6040805162461bcd60e51b815260206004820152601760248201527f436f6e747261637420616c726561647920657869737473000000000000000000604482015290519081900360640190fd5b565b6003546001600160a01b031681565b6001546001600160a01b031681565b6000546001600160a01b031681565b3090565b6003546001600160a01b03166102275760006040516102c590610442565b604051809103906000f0801580156102e1573d6000803e3d6000fd5b509050806001600160a01b0316639e4559396040518163ffffffff1660e01b815260040160206040518083038186803b15801561031d57600080fd5b505afa158015610331573d6000803e3d6000fd5b505050506040513d602081101561034757600080fd5b5051600380546001600160a01b0319166001600160a01b0390921691909117905550610274565b6001546001600160a01b031661022757600060405161038c9061044f565b604051809103906000f0801580156103a8573d6000803e3d6000fd5b509050806001600160a01b0316639e4559396040518163ffffffff1660e01b815260040160206040518083038186803b1580156103e457600080fd5b505afa1580156103f8573d6000803e3d6000fd5b505050506040513d602081101561040e57600080fd5b5051600180546001600160a01b0319166001600160a01b0390921691909117905550610274565b610afe8061045d83390190565b610b0c80610f5b83390190565b61093580611a678339019056fe6080604052600060065534801561001557600080fd5b50610ad9806100256000396000f3fe60806040526004361061004a5760003560e01c80630bc5ed5d146100555780631bfa86011461007557806327e235e3146100a45780639e455939146100d1578063aa2d7285146100f3575b61005333610113565b005b34801561006157600080fd5b5061005361007036600461071f565b61014f565b34801561008157600080fd5b5061008a61029a565b60405161009b95949392919061094a565b60405180910390f35b3480156100b057600080fd5b506100c46100bf3660046106f9565b610530565b60405161009b91906109b0565b3480156100dd57600080fd5b506100e6610542565b60405161009b919061093c565b3480156100ff57600080fd5b506100c461010e3660046106f9565b610547565b3360008181526001602052604090208054340190556001600160a01b038216141561014c576101423334610559565b5061014c816105aa565b50565b60028054600181018083556000929092528451610193917f405787fa12a823e0f2b7631cc41b3ba8828b3321ca811111fa75cd3aa3bb5ace01906020870190610602565b50506003805460018082019092557fc2575a0e9e593c00f959f8c92f12db2869c3395a3b0502d05e2516446f71f85b0180546001600160a01b0319166001600160a01b0385161790556004805491820180825560009190915282519091610223917f8a35acfbc15ff81a39ae7d344fd709f28e8600b4aa8c65c6b64bfe7fe36bd19b909101906020850190610602565b505060058054600181810190925560208082047f036b6384b5eca791c62761152d0c79bb0604c104a5fb6f4eb0703f3154bb3db001805460ff601f9094166101000a9390930219909216909155600680546001600160a01b0390951660009081526007909252604090912084905592019091555050565b6060806060806000600260036004600560065484805480602002602001604051908101604052809291908181526020016000905b828210156103795760008481526020908190208301805460408051601f60026000196101006001871615020190941693909304928301859004850281018501909152818152928301828280156103655780601f1061033a57610100808354040283529160200191610365565b820191906000526020600020905b81548152906001019060200180831161034857829003601f168201915b5050505050815260200190600101906102ce565b505050509450838054806020026020016040519081016040528092919081815260200182805480156103d457602002820191906000526020600020905b81546001600160a01b031681526001909101906020018083116103b6575b5050505050935082805480602002602001604051908101604052809291908181526020016000905b828210156104a75760008481526020908190208301805460408051601f60026000196101006001871615020190941693909304928301859004850281018501909152818152928301828280156104935780601f1061046857610100808354040283529160200191610493565b820191906000526020600020905b81548152906001019060200180831161047657829003601f168201915b5050505050815260200190600101906103fc565b5050505092508180548060200260200160405190810160405280929190818152602001828054801561051857602002820191906000526020600020906000905b825461010083900a900460ff1615158152602060019283018181049485019490930390920291018084116104e75790505b50505050509150945094509450945094509091929394565b60016020526000908152604090205481565b305b90565b60076020526000908152604090205481565b60004782111561056857600080fd5b6040516001600160a01b0384169083156108fc029084906000818181858888f1935050505015801561059e573d6000803e3d6000fd5b50600190505b92915050565b6001600160a01b0381166000908152600760205260409020546005805460019190839081106105d557fe5b90600052602060002090602091828204019190066101000a81548160ff0219169083151502179055505050565b828054600181600116156101000203166002900490600052602060002090601f016020900481019282601f1061064357805160ff1916838001178555610670565b82800160010185558215610670579182015b82811115610670578251825591602001919060010190610655565b5061067c929150610680565b5090565b61054491905b8082111561067c5760008155600101610686565b80356105a481610a82565b600082601f8301126106b657600080fd5b81356106c96106c4826109e5565b6109be565b915080825260208301602083018583830111156106e557600080fd5b6106f0838284610a3c565b50505092915050565b60006020828403121561070b57600080fd5b6000610717848461069a565b949350505050565b60008060006060848603121561073457600080fd5b833567ffffffffffffffff81111561074b57600080fd5b610757868287016106a5565b93505060206107688682870161069a565b925050604084013567ffffffffffffffff81111561078557600080fd5b610791868287016106a5565b9150509250925092565b60006107a783836107ce565b505060200190565b60006107a783836108f2565b60006107c783836108fb565b9392505050565b6107d781610a20565b82525050565b60006107e882610a13565b6107f28185610a17565b93506107fd83610a0d565b8060005b8381101561082b578151610815888261079b565b975061082083610a0d565b925050600101610801565b509495945050505050565b600061084182610a13565b61084b8185610a17565b935061085683610a0d565b8060005b8381101561082b57815161086e88826107af565b975061087983610a0d565b92505060010161085a565b600061088f82610a13565b6108998185610a17565b9350836020820285016108ab85610a0d565b8060005b858110156108e557848403895281516108c885826107bb565b94506108d383610a0d565b60209a909a01999250506001016108af565b5091979650505050505050565b6107d781610a2b565b600061090682610a13565b6109108185610a17565b9350610920818560208601610a48565b61092981610a78565b9093019392505050565b6107d781610544565b602081016105a482846107ce565b60a0808252810161095b8188610884565b9050818103602083015261096f81876107dd565b905081810360408301526109838186610884565b905081810360608301526109978185610836565b90506109a66080830184610933565b9695505050505050565b602081016105a48284610933565b60405181810167ffffffffffffffff811182821017156109dd57600080fd5b604052919050565b600067ffffffffffffffff8211156109fc57600080fd5b506020601f91909101601f19160190565b60200190565b5190565b90815260200190565b60006105a482610a30565b151590565b6001600160a01b031690565b82818337506000910152565b60005b83811015610a63578181015183820152602001610a4b565b83811115610a72576000848401525b50505050565b601f01601f191690565b610a8b81610a20565b811461014c57600080fdfea365627a7a723158204b23eda768a40534be054c04c9147105d0f711f1567d6a5d2166b2b82ed52a7d6c6578706572696d656e74616cf564736f6c634300051100406080604052600060065534801561001557600080fd5b50610ae7806100256000396000f3fe608060405234801561001057600080fd5b506004361061004c5760003560e01c80632a5c792a146100515780639e45593914610074578063c4d66de814610089578063d807e9a51461009e575b600080fd5b6100596100b1565b60405161006b96959493929190610959565b60405180910390f35b61007c61047f565b60405161006b919061094b565b61009c610097366004610712565b610484565b005b61009c6100ac366004610738565b6104a6565b60608060608060606000600160026003600460056006548580548060200260200160405190810160405280929190818152602001828054801561011d57602002820191906000526020600020905b81546001600160a01b031681526001909101906020018083116100ff575b5050505050955084805480602002602001604051908101604052809291908181526020016000905b828210156101f05760008481526020908190208301805460408051601f60026000196101006001871615020190941693909304928301859004850281018501909152818152928301828280156101dc5780601f106101b1576101008083540402835291602001916101dc565b820191906000526020600020905b8154815290600101906020018083116101bf57829003601f168201915b505050505081526020019060010190610145565b50505050945083805480602002602001604051908101604052809291908181526020016000905b828210156102c25760008481526020908190208301805460408051601f60026000196101006001871615020190941693909304928301859004850281018501909152818152928301828280156102ae5780601f10610283576101008083540402835291602001916102ae565b820191906000526020600020905b81548152906001019060200180831161029157829003601f168201915b505050505081526020019060010190610217565b50505050935082805480602002602001604051908101604052809291908181526020016000905b828210156103945760008481526020908190208301805460408051601f60026000196101006001871615020190941693909304928301859004850281018501909152818152928301828280156103805780601f1061035557610100808354040283529160200191610380565b820191906000526020600020905b81548152906001019060200180831161036357829003601f168201915b5050505050815260200190600101906102e9565b50505050925081805480602002602001604051908101604052809291908181526020016000905b828210156104665760008481526020908190208301805460408051601f60026000196101006001871615020190941693909304928301859004850281018501909152818152928301828280156104525780601f1061042757610100808354040283529160200191610452565b820191906000526020600020905b81548152906001019060200180831161043557829003601f168201915b5050505050815260200190600101906103bb565b50989f979e50959c50939a509850965092945050505050565b305b90565b600080546001600160a01b0319166001600160a01b0392909216919091179055565b6001805480820182557fb10e2d527612073b26eecdfd717e6a320cf44b4afac2b0732d9fcbe2b7fa0cf60180546001600160a01b0319166001600160a01b0388161790556002805491820180825560009190915285519091610531917f405787fa12a823e0f2b7631cc41b3ba8828b3321ca811111fa75cd3aa3bb5ace909101906020880190610615565b505060038054600181018083556000929092528451610577917fc2575a0e9e593c00f959f8c92f12db2869c3395a3b0502d05e2516446f71f85b01906020870190610615565b5050600480546001810180835560009290925283516105bd917f8a35acfbc15ff81a39ae7d344fd709f28e8600b4aa8c65c6b64bfe7fe36bd19b01906020860190610615565b505060058054600181018083556000929092528251610603917f036b6384b5eca791c62761152d0c79bb0604c104a5fb6f4eb0703f3154bb3db001906020850190610615565b50506006805460010190555050505050565b828054600181600116156101000203166002900490600052602060002090601f016020900481019282601f1061065657805160ff1916838001178555610683565b82800160010185558215610683579182015b82811115610683578251825591602001919060010190610668565b5061068f929150610693565b5090565b61048191905b8082111561068f5760008155600101610699565b80356106b881610a8d565b92915050565b600082601f8301126106cf57600080fd5b81356106e26106dd826109fb565b6109d4565b915080825260208301602083018583830111156106fe57600080fd5b610709838284610a47565b50505092915050565b60006020828403121561072457600080fd5b600061073084846106ad565b949350505050565b600080600080600060a0868803121561075057600080fd5b600061075c88886106ad565b955050602086013567ffffffffffffffff81111561077957600080fd5b610785888289016106be565b945050604086013567ffffffffffffffff8111156107a257600080fd5b6107ae888289016106be565b935050606086013567ffffffffffffffff8111156107cb57600080fd5b6107d7888289016106be565b925050608086013567ffffffffffffffff8111156107f457600080fd5b610800888289016106be565b9150509295509295909350565b60006108198383610834565b505060200190565b600061082d838361090a565b9392505050565b61083d81610a36565b82525050565b600061084e82610a29565b6108588185610a2d565b935061086383610a23565b8060005b8381101561089157815161087b888261080d565b975061088683610a23565b925050600101610867565b509495945050505050565b60006108a782610a29565b6108b18185610a2d565b9350836020820285016108c385610a23565b8060005b858110156108fd57848403895281516108e08582610821565b94506108eb83610a23565b60209a909a01999250506001016108c7565b5091979650505050505050565b600061091582610a29565b61091f8185610a2d565b935061092f818560208601610a53565b61093881610a83565b9093019392505050565b61083d81610481565b602081016106b88284610834565b60c0808252810161096a8189610843565b9050818103602083015261097e818861089c565b90508181036040830152610992818761089c565b905081810360608301526109a6818661089c565b905081810360808301526109ba818561089c565b90506109c960a0830184610942565b979650505050505050565b60405181810167ffffffffffffffff811182821017156109f357600080fd5b604052919050565b600067ffffffffffffffff821115610a1257600080fd5b506020601f91909101601f19160190565b60200190565b5190565b90815260200190565b60006001600160a01b0382166106b8565b82818337506000910152565b60005b83811015610a6e578181015183820152602001610a56565b83811115610a7d576000848401525b50505050565b601f01601f191690565b610a9681610a36565b8114610aa157600080fd5b5056fea365627a7a723158209af5ed552995878e33ee35148fd3aabe2f5520d676933c57d49d4f2a2690173b6c6578706572696d656e74616cf564736f6c6343000511004060806040526000600455600060055534801561001a57600080fd5b5061090b8061002a6000396000f3fe608060405234801561001057600080fd5b506004361061007d5760003560e01c8063dadd0a571161005b578063dadd0a57146100d5578063e7236674146100ea578063f6a6d5a9146100fd578063f7a1ddf3146101055761007d565b80639e45593914610082578063b2d46fdd146100a0578063c4d66de8146100c0575b600080fd5b61008a610118565b60405161009791906107c7565b60405180910390f35b6100b36100ae366004610626565b61011d565b60405161009791906107e6565b6100d36100ce366004610600565b6101cc565b005b6100dd6101ee565b60405161009791906107d5565b6100d36100f836600461065b565b6102c9565b6100dd61038c565b6100b3610113366004610626565b61045c565b305b90565b60608060068360405161013091906107bb565b9081526040805160209281900383018120805460026001821615610100026000190190911604601f810185900485028301850190935282825290929091908301828280156101bf5780601f10610194576101008083540402835291602001916101bf565b820191906000526020600020905b8154815290600101906020018083116101a257829003601f168201915b5093979650505050505050565b600080546001600160a01b0319166001600160a01b0392909216919091179055565b6060806003805480602002602001604051908101604052809291908181526020016000905b828210156102be5760008481526020908190208301805460408051601f60026000196101006001871615020190941693909304928301859004850281018501909152818152928301828280156102aa5780601f1061027f576101008083540402835291602001916102aa565b820191906000526020600020905b81548152906001019060200180831161028d57829003601f168201915b505050505081526020019060010190610213565b509294505050505090565b806006836040516102da91906107bb565b908152602001604051809103902090805190602001906102fb929190610503565b5060028054600181018083556000929092528351610340917f405787fa12a823e0f2b7631cc41b3ba8828b3321ca811111fa75cd3aa3bb5ace01906020860190610503565b505060038054600181018083556000929092528251610386917fc2575a0e9e593c00f959f8c92f12db2869c3395a3b0502d05e2516446f71f85b01906020850190610503565b50505050565b6060806002805480602002602001604051908101604052809291908181526020016000905b828210156102be5760008481526020908190208301805460408051601f60026000196101006001871615020190941693909304928301859004850281018501909152818152928301828280156104485780601f1061041d57610100808354040283529160200191610448565b820191906000526020600020905b81548152906001019060200180831161042b57829003601f168201915b5050505050815260200190600101906103b1565b805160208183018101805160068252928201938201939093209190925280546040805160026001841615610100026000190190931692909204601f810185900485028301850190915280825290928301828280156104fb5780601f106104d0576101008083540402835291602001916104fb565b820191906000526020600020905b8154815290600101906020018083116104de57829003601f168201915b505050505081565b828054600181600116156101000203166002900490600052602060002090601f016020900481019282601f1061054457805160ff1916838001178555610571565b82800160010185558215610571579182015b82811115610571578251825591602001919060010190610556565b5061057d929150610581565b5090565b61011a91905b8082111561057d5760008155600101610587565b80356105a6816108b1565b92915050565b600082601f8301126105bd57600080fd5b81356105d06105cb8261081e565b6107f7565b915080825260208301602083018583830111156105ec57600080fd5b6105f783828461086f565b50505092915050565b60006020828403121561061257600080fd5b600061061e848461059b565b949350505050565b60006020828403121561063857600080fd5b813567ffffffffffffffff81111561064f57600080fd5b61061e848285016105ac565b6000806040838503121561066e57600080fd5b823567ffffffffffffffff81111561068557600080fd5b610691858286016105ac565b925050602083013567ffffffffffffffff8111156106ae57600080fd5b6106ba858286016105ac565b9150509250929050565b60006106d08383610754565b9392505050565b6106e08161085e565b82525050565b60006106f18261084c565b6106fb8185610850565b93508360208202850161070d85610846565b8060005b85811015610747578484038952815161072a85826106c4565b945061073583610846565b60209a909a0199925050600101610711565b5091979650505050505050565b600061075f8261084c565b6107698185610850565b935061077981856020860161087b565b610782816108a7565b9093019392505050565b60006107978261084c565b6107a18185610859565b93506107b181856020860161087b565b9290920192915050565b60006106d0828461078c565b602081016105a682846106d7565b602080825281016106d081846106e6565b602080825281016106d08184610754565b60405181810167ffffffffffffffff8111828210171561081657600080fd5b604052919050565b600067ffffffffffffffff82111561083557600080fd5b506020601f91909101601f19160190565b60200190565b5190565b90815260200190565b919050565b60006001600160a01b0382166105a6565b82818337506000910152565b60005b8381101561089657818101518382015260200161087e565b838111156103865750506000910152565b601f01601f191690565b6108ba8161085e565b81146108c557600080fd5b5056fea365627a7a723158208cf7015293751431262b1d5f93487cf2839847eb22a322b60b6265df3df8bb0b6c6578706572696d656e74616cf564736f6c63430005110040a265627a7a72315820f2b98c6994dddb448ecf56ad6b0a178ec15dfbef5244e01666a5f7cc60256c3a64736f6c63430005110032a265627a7a723158209bba1cd664fb268c5111c0295d9225fe87b929ea9df2fa7824faca5e7b57886364736f6c63430005110032",
  "source": "pragma solidity ^0.5.0;\n//import \"@openzeppelin/upgrades/contracts/upgradeability/ProxyFactory.sol\";\n//import \"https://github.com/OpenZeppelin/openzeppelin-sdk/blob/master/packages/lib/contracts/upgradeability/ProxyFactory.sol\";\nimport \"./UserManager.sol\";\n\ncontract UserFactory{\n    \n    \n    mapping(address => address) public usercontract;\n    address owner;\n    uint usercount = 0;\n    \n    constructor () public {\n        owner = msg.sender;\n    }\n    \n\n    function createUser() public {\n        if(usercontract[address(msg.sender)] == address(0x0000000000000000000000000000000000000000))\n        {\n            UserManager newManagerContract = new UserManager();\n            usercontract[address(msg.sender)] = newManagerContract.getContractAddr();\n            usercount++;\n            \n        }\n        else\n        {\n            revert(\"user already exists\");\n        }\n\n    }\n      function getUserContractAddress(address _addr) public view returns (address){\n        //require(msg.sender == owner, \"Access Denied: You Cant Access other peoples' contract\");\n        return usercontract[_addr];\n    }\n}",
  "sourcePath": "/home/alexandre/Dev/harmony/Hackathon/openfi/contracts/UserFactory.sol",
  "compiler": {
    "name": "solc",
    "version": "0.5.17+commit.d19bba13.Emscripten.clang"
  },
  "schemaVersion": "3.3.2",
  "updatedAt": "2021-01-25T15:06:48.718Z",
  "devdoc": {
    "methods": {}
  },
  "userdoc": {
    "methods": {}
  }
}