{
  "contractName": "User",
  "abi": [
    {
      "inputs": [],
      "payable": false,
      "stateMutability": "nonpayable",
      "type": "constructor"
    },
    {
      "constant": true,
      "inputs": [],
      "name": "disAddress",
      "outputs": [
        {
          "internalType": "address",
          "name": "",
          "type": "address"
        }
      ],
      "payable": false,
      "stateMutability": "view",
      "type": "function"
    },
    {
      "constant": true,
      "inputs": [],
      "name": "getContractAddr",
      "outputs": [
        {
          "internalType": "address",
          "name": "",
          "type": "address"
        }
      ],
      "payable": false,
      "stateMutability": "view",
      "type": "function"
    }
  ],
  "bytecode": "0x608060405234801561001057600080fd5b50306000806101000a81548173ffffffffffffffffffffffffffffffffffffffff021916908373ffffffffffffffffffffffffffffffffffffffff160217905550610131806100606000396000f3fe6080604052348015600f57600080fd5b506004361060325760003560e01c80639e455939146037578063ee799130146051575b600080fd5b603d606b565b6040516048919060a5565b60405180910390f35b60576073565b6040516062919060a5565b60405180910390f35b600030905090565b6000809054906101000a900473ffffffffffffffffffffffffffffffffffffffff1681565b609f8160be565b82525050565b600060208201905060b860008301846098565b92915050565b600060c78260ce565b9050919050565b600073ffffffffffffffffffffffffffffffffffffffff8216905091905056fea365627a7a723158206ab5f8a7ec94bf32ad89f6fc2fbe4b6a196cd2dc3a8ebac57abdb88e5935f2666c6578706572696d656e74616cf564736f6c63430005110040",
  "source": "pragma solidity >=0.4.22 <0.8.0;\npragma experimental ABIEncoderV2;\n\ncontract UserFactory  {\n  \n  mapping(address => address) public usercontract;\n  \n\n  function createUser() payable public {\n      if(usercontract[msg.sender] == address(0x0000000000000000000000000000000000000000))\n      {\n          User newContract = new User();\n            usercontract[msg.sender] = newContract.getContractAddr();\n      }\n      else\n      {\n          revert(\"user already exists\");\n      }\n\n  }\n  function getUserContractAddress() public view returns (address){\n        return usercontract[msg.sender];\n    }\n}\n\n\ncontract User {\n    address public disAddress;\n    constructor() public {\n       disAddress = address(this);\n        \n    }\n    \n    function getContractAddr() public view returns (address){\n        \n        return address(this);\n    }\n    \n        /*\n    // Budget context\n    string[1][] txcat;\n   \n    uint arrayLength=0;\n    \n    mapping(string => string) public mappedtxCategories;\n    \n    function setTxCategory(string[2] memory _txid_cat) public payable {\n        mappedtxCategories[_txid_cat[0]] = _txid_cat[1];\n       \n       // mappedtxCategories[txid] = arrayLength;\n      \n    }\n\n    function getTxCategory(string memory txid) public returns(string memory)\n    {\n        string memory whereisit = mappedtxCategories[txid];\n        return whereisit;\n    }\n    \n    */\n    \n    \n    \n    \n}",
  "sourcePath": "/home/alexandre/Dev/harmony/Hackathon/openfi/contracts/UserContract.sol",
  "compiler": {
    "name": "solc",
    "version": "0.5.17+commit.d19bba13.Emscripten.clang"
  },
  "schemaVersion": "3.3.2",
  "updatedAt": "2021-01-16T13:22:14.339Z",
  "devdoc": {
    "methods": {}
  },
  "userdoc": {
    "methods": {}
  }
}