{
  "contractName": "UserBudgetContract",
  "abi": [
    {
      "constant": true,
      "inputs": [
        {
          "internalType": "string",
          "name": "",
          "type": "string"
        }
      ],
      "name": "mappedtxCategories",
      "outputs": [
        {
          "internalType": "string",
          "name": "",
          "type": "string"
        }
      ],
      "payable": false,
      "stateMutability": "view",
      "type": "function"
    },
    {
      "constant": true,
      "inputs": [],
      "name": "owner",
      "outputs": [
        {
          "internalType": "address",
          "name": "",
          "type": "address"
        }
      ],
      "payable": false,
      "stateMutability": "view",
      "type": "function"
    },
    {
      "constant": false,
      "inputs": [
        {
          "internalType": "address",
          "name": "newOwner",
          "type": "address"
        }
      ],
      "name": "transferOwnership",
      "outputs": [],
      "payable": false,
      "stateMutability": "nonpayable",
      "type": "function"
    },
    {
      "constant": false,
      "inputs": [
        {
          "internalType": "string[2]",
          "name": "_txid_cat",
          "type": "string[2]"
        }
      ],
      "name": "setTxCategory",
      "outputs": [],
      "payable": true,
      "stateMutability": "payable",
      "type": "function"
    },
    {
      "constant": false,
      "inputs": [
        {
          "internalType": "address",
          "name": "_owner",
          "type": "address"
        }
      ],
      "name": "initialize",
      "outputs": [],
      "payable": false,
      "stateMutability": "nonpayable",
      "type": "function"
    },
    {
      "constant": false,
      "inputs": [
        {
          "internalType": "string",
          "name": "txid",
          "type": "string"
        }
      ],
      "name": "getTxCategory",
      "outputs": [
        {
          "internalType": "string",
          "name": "",
          "type": "string"
        }
      ],
      "payable": false,
      "stateMutability": "nonpayable",
      "type": "function"
    }
  ],
  "bytecode": "0x60806040526000600255336000806101000a81548173ffffffffffffffffffffffffffffffffffffffff021916908373ffffffffffffffffffffffffffffffffffffffff160217905550610a21806100586000396000f3fe6080604052600436106100555760003560e01c80635ada96dc1461005a5780638da5cb5b14610076578063b2d46fdd146100a1578063c4d66de8146100de578063f2fde38b14610107578063f7a1ddf314610130575b600080fd5b610074600480360361006f9190810190610636565b61016d565b005b34801561008257600080fd5b5061008b6101c5565b604051610098919061080a565b60405180910390f35b3480156100ad57600080fd5b506100c860048036036100c391908101906106b8565b6101ea565b6040516100d59190610847565b60405180910390f35b3480156100ea57600080fd5b506101056004803603610100919081019061060d565b6102af565b005b34801561011357600080fd5b5061012e6004803603610129919081019061060d565b6102b2565b005b34801561013c57600080fd5b5061015760048036036101529190810190610677565b610380565b6040516101649190610825565b60405180910390f35b8060016002811061017a57fe5b602002015160038260006002811061018e57fe5b60200201516040516101a091906107dc565b908152602001604051809103902090805190602001906101c1929190610446565b5050565b6000809054906101000a900473ffffffffffffffffffffffffffffffffffffffff1681565b6060806003836040516101fd91906107f3565b90815260200160405180910390208054600181600116156101000203166002900480601f01602080910402602001604051908101604052809291908181526020018280546001816001161561010002031660029004801561029f5780601f106102745761010080835404028352916020019161029f565b820191906000526020600020905b81548152906001019060200180831161028257829003601f168201915b5050505050905080915050919050565b50565b6000809054906101000a900473ffffffffffffffffffffffffffffffffffffffff1673ffffffffffffffffffffffffffffffffffffffff163373ffffffffffffffffffffffffffffffffffffffff16141561037d57600073ffffffffffffffffffffffffffffffffffffffff168173ffffffffffffffffffffffffffffffffffffffff161461037c57806000806101000a81548173ffffffffffffffffffffffffffffffffffffffff021916908373ffffffffffffffffffffffffffffffffffffffff1602179055505b5b50565b6003818051602081018201805184825260208301602085012081835280955050505050506000915090508054600181600116156101000203166002900480601f01602080910402602001604051908101604052809291908181526020018280546001816001161561010002031660029004801561043e5780601f106104135761010080835404028352916020019161043e565b820191906000526020600020905b81548152906001019060200180831161042157829003601f168201915b505050505081565b828054600181600116156101000203166002900490600052602060002090601f016020900481019282601f1061048757805160ff19168380011785556104b5565b828001600101855582156104b5579182015b828111156104b4578251825591602001919060010190610499565b5b5090506104c291906104c6565b5090565b6104e891905b808211156104e45760008160009055506001016104cc565b5090565b90565b6000813590506104fa816109c7565b92915050565b600082601f83011261051157600080fd5b600261052461051f82610896565b610869565b9150818360005b8381101561055b57813586016105418882610565565b84526020840193506020830192505060018101905061052b565b5050505092915050565b600082601f83011261057657600080fd5b8135610589610584826108b8565b610869565b915080825260208301602083018583830111156105a557600080fd5b6105b0838284610974565b50505092915050565b600082601f8301126105ca57600080fd5b81356105dd6105d8826108e4565b610869565b915080825260208301602083018583830111156105f957600080fd5b610604838284610974565b50505092915050565b60006020828403121561061f57600080fd5b600061062d848285016104eb565b91505092915050565b60006020828403121561064857600080fd5b600082013567ffffffffffffffff81111561066257600080fd5b61066e84828501610500565b91505092915050565b60006020828403121561068957600080fd5b600082013567ffffffffffffffff8111156106a357600080fd5b6106af84828501610565565b91505092915050565b6000602082840312156106ca57600080fd5b600082013567ffffffffffffffff8111156106e457600080fd5b6106f0848285016105b9565b91505092915050565b61070281610942565b82525050565b60006107138261091b565b61071d8185610926565b935061072d818560208601610983565b610736816109b6565b840191505092915050565b600061074c8261091b565b6107568185610937565b9350610766818560208601610983565b80840191505092915050565b600061077d82610910565b6107878185610926565b9350610797818560208601610983565b6107a0816109b6565b840191505092915050565b60006107b682610910565b6107c08185610937565b93506107d0818560208601610983565b80840191505092915050565b60006107e882846107ab565b915081905092915050565b60006107ff8284610741565b915081905092915050565b600060208201905061081f60008301846106f9565b92915050565b6000602082019050818103600083015261083f8184610772565b905092915050565b600060208201905081810360008301526108618184610708565b905092915050565b6000604051905081810181811067ffffffffffffffff8211171561088c57600080fd5b8060405250919050565b600067ffffffffffffffff8211156108ad57600080fd5b602082029050919050565b600067ffffffffffffffff8211156108cf57600080fd5b601f19601f8301169050602081019050919050565b600067ffffffffffffffff8211156108fb57600080fd5b601f19601f8301169050602081019050919050565b600081519050919050565b600081519050919050565b600082825260208201905092915050565b600081905092915050565b600061094d82610954565b9050919050565b600073ffffffffffffffffffffffffffffffffffffffff82169050919050565b82818337600083830152505050565b60005b838110156109a1578082015181840152602081019050610986565b838111156109b0576000848401525b50505050565b6000601f19601f8301169050919050565b6109d081610942565b81146109db57600080fd5b5056fea365627a7a723158200fc0469711af8efa1c553b6060ec90bbc813e6fc8078bad87ee0da4f1ae03a546c6578706572696d656e74616cf564736f6c63430005110040",
  "source": "pragma solidity ^0.5.0;\npragma experimental ABIEncoderV2; \n    contract Ownable {\n  address public owner;\n\n  constructor() internal{\n    owner = msg.sender;\n  }\n\n  modifier onlyOwner() {\n    if (msg.sender == owner)\n      _;\n  }\n\n   function transferOwnership(address newOwner) onlyOwner public{\n    if (newOwner != address(0)) owner = newOwner;\n  }\n\n}\n    \n    contract UserBudgetContract is Ownable{\n    // Budget context\n    string[1][] txcat;\n   \n    uint arrayLength=0;\n    \n    mapping(string => string) public mappedtxCategories;\n    \n    function setTxCategory(string[2] memory _txid_cat) public payable {\n        mappedtxCategories[_txid_cat[0]] = _txid_cat[1];\n       \n       // mappedtxCategories[txid] = arrayLength;\n      \n    }\n\n         function initialize(address _owner) public  {\n              Ownable(_owner);\n    }\n\n    function getTxCategory(string memory txid) public returns(string memory)\n    {\n        string memory whereisit = mappedtxCategories[txid];\n        return whereisit;\n    }\n    \n}\n    ",
  "sourcePath": "/home/alexandre/Dev/harmony/open.fi/contracts/UserBudgetContract.sol",
  "compiler": {
    "name": "solc",
    "version": "0.5.17+commit.d19bba13.Emscripten.clang"
  },
  "schemaVersion": "3.3.2",
  "updatedAt": "2021-01-13T21:56:57.829Z",
  "networkType": "ethereum",
  "devdoc": {
    "methods": {}
  },
  "userdoc": {
    "methods": {}
  }
}