{
  "contractName": "User",
  "abi": [
    {
      "inputs": [],
      "payable": false,
      "stateMutability": "nonpayable",
      "type": "constructor"
    },
    {
      "constant": true,
      "inputs": [],
      "name": "disAddress",
      "outputs": [
        {
          "internalType": "address",
          "name": "",
          "type": "address"
        }
      ],
      "payable": false,
      "stateMutability": "view",
      "type": "function"
    },
    {
      "constant": true,
      "inputs": [],
      "name": "getContractAddr",
      "outputs": [
        {
          "internalType": "address",
          "name": "",
          "type": "address"
        }
      ],
      "payable": false,
      "stateMutability": "view",
      "type": "function"
    }
  ],
  "bytecode": "0x608060405234801561001057600080fd5b50600080546001600160a01b0319163017905560dc806100316000396000f3fe6080604052348015600f57600080fd5b506004361060325760003560e01c80639e455939146037578063ee799130146051575b600080fd5b603d6057565b604051604891906077565b60405180910390f35b603d605b565b3090565b6000546001600160a01b031681565b6071816089565b82525050565b6020810160838284606a565b92915050565b60006001600160a01b038216608356fea365627a7a723158209231d9faad74ed081e9219f93d7b7490f02d61e1de9bf9a08a0e2a981d59bb1a6c6578706572696d656e74616cf564736f6c63430005110040",
  "source": "pragma solidity >=0.4.22 <0.8.0;\npragma experimental ABIEncoderV2;\n\ncontract UserFactory  {\n  \n  mapping(address => address) public usercontract;\n  \n\n  function createUser() payable public {\n      if(usercontract[msg.sender] == address(0x0000000000000000000000000000000000000000))\n      {\n          User newContract = new User();\n            usercontract[msg.sender] = newContract.getContractAddr();\n      }\n      else\n      {\n          revert(\"user already exists\");\n      }\n\n  }\n  function getUserContractAddress() public view returns (address){\n        return usercontract[msg.sender];\n    }\n}\n\n\ncontract User {\n    address public disAddress;\n    constructor() public {\n       disAddress = address(this);\n        \n    }\n    \n    function getContractAddr() public view returns (address){\n        \n        return address(this);\n    }\n    \n        /*\n    // Budget context\n    string[1][] txcat;\n   \n    uint arrayLength=0;\n    \n    mapping(string => string) public mappedtxCategories;\n    \n    function setTxCategory(string[2] memory _txid_cat) public payable {\n        mappedtxCategories[_txid_cat[0]] = _txid_cat[1];\n       \n       // mappedtxCategories[txid] = arrayLength;\n      \n    }\n\n    function getTxCategory(string memory txid) public returns(string memory)\n    {\n        string memory whereisit = mappedtxCategories[txid];\n        return whereisit;\n    }\n    \n    */\n    \n    \n    \n    \n}",
  "sourcePath": "/home/alexandre/Dev/harmony/Hackathon/openfi/contracts/UserContract.sol",
  "compiler": {
    "name": "solc",
    "version": "0.5.17+commit.d19bba13.Emscripten.clang"
  },
  "schemaVersion": "3.3.2",
  "updatedAt": "2021-01-25T15:06:48.717Z",
  "devdoc": {
    "methods": {}
  },
  "userdoc": {
    "methods": {}
  }
}