{
  "contractName": "UserWallets",
  "abi": [
    {
      "payable": true,
      "stateMutability": "payable",
      "type": "fallback"
    },
    {
      "constant": true,
      "inputs": [
        {
          "internalType": "address",
          "name": "",
          "type": "address"
        }
      ],
      "name": "arrayIndex",
      "outputs": [
        {
          "internalType": "uint256",
          "name": "",
          "type": "uint256"
        }
      ],
      "payable": false,
      "stateMutability": "view",
      "type": "function"
    },
    {
      "constant": true,
      "inputs": [
        {
          "internalType": "address",
          "name": "",
          "type": "address"
        }
      ],
      "name": "balances",
      "outputs": [
        {
          "internalType": "uint256",
          "name": "",
          "type": "uint256"
        }
      ],
      "payable": false,
      "stateMutability": "view",
      "type": "function"
    },
    {
      "constant": false,
      "inputs": [],
      "name": "getAllWallets",
      "outputs": [
        {
          "internalType": "string[]",
          "name": "",
          "type": "string[]"
        },
        {
          "internalType": "address[]",
          "name": "",
          "type": "address[]"
        },
        {
          "internalType": "string[]",
          "name": "",
          "type": "string[]"
        },
        {
          "internalType": "bool[]",
          "name": "",
          "type": "bool[]"
        },
        {
          "internalType": "uint256",
          "name": "",
          "type": "uint256"
        }
      ],
      "payable": false,
      "stateMutability": "nonpayable",
      "type": "function"
    },
    {
      "constant": false,
      "inputs": [
        {
          "internalType": "string",
          "name": "_walletName",
          "type": "string"
        },
        {
          "internalType": "address",
          "name": "_walletAddr",
          "type": "address"
        },
        {
          "internalType": "string",
          "name": "_walletDescription",
          "type": "string"
        }
      ],
      "name": "addWallet",
      "outputs": [],
      "payable": false,
      "stateMutability": "nonpayable",
      "type": "function"
    }
  ],
  "bytecode": "0x6080604052600060055534801561001557600080fd5b50610d66806100256000396000f3fe60806040526004361061003f5760003560e01c80630bc5ed5d1461004a5780631bfa86011461007357806327e235e3146100a2578063aa2d7285146100df575b6100483361011c565b005b34801561005657600080fd5b50610071600480360361006c919081019061086d565b6101b4565b005b34801561007f57600080fd5b5061008861033d565b604051610099959493929190610ac7565b60405180910390f35b3480156100ae57600080fd5b506100c960048036036100c49190810190610844565b610626565b6040516100d69190610b36565b60405180910390f35b3480156100eb57600080fd5b5061010660048036036101019190810190610844565b61063e565b6040516101139190610b36565b60405180910390f35b346000803373ffffffffffffffffffffffffffffffffffffffff1673ffffffffffffffffffffffffffffffffffffffff168152602001908152602001600020600082825401925050819055508073ffffffffffffffffffffffffffffffffffffffff163373ffffffffffffffffffffffffffffffffffffffff1614156101b1576101a63334610656565b506101b0816106b6565b5b50565b60018390806001815401808255809150509060018203906000526020600020016000909192909190915090805190602001906101f1929190610736565b505060028290806001815401808255809150509060018203906000526020600020016000909192909190916101000a81548173ffffffffffffffffffffffffffffffffffffffff021916908373ffffffffffffffffffffffffffffffffffffffff160217905550506003819080600181540180825580915050906001820390600052602060002001600090919290919091509080519060200190610296929190610736565b505060046000908060018154018082558091505090600182039060005260206000209060209182820401919006909192909190916101000a81548160ff02191690831515021790555050600554600660008473ffffffffffffffffffffffffffffffffffffffff1673ffffffffffffffffffffffffffffffffffffffff16815260200190815260200160002081905550600560008154809291906001019190505550505050565b6060806060806000600160026003600460055484805480602002602001604051908101604052809291908181526020016000905b8282101561042d578382906000526020600020018054600181600116156101000203166002900480601f0160208091040260200160405190810160405280929190818152602001828054600181600116156101000203166002900480156104195780601f106103ee57610100808354040283529160200191610419565b820191906000526020600020905b8154815290600101906020018083116103fc57829003601f168201915b505050505081526020019060010190610371565b505050509450838054806020026020016040519081016040528092919081815260200182805480156104b457602002820191906000526020600020905b8160009054906101000a900473ffffffffffffffffffffffffffffffffffffffff1673ffffffffffffffffffffffffffffffffffffffff168152602001906001019080831161046a575b5050505050935082805480602002602001604051908101604052809291908181526020016000905b82821015610598578382906000526020600020018054600181600116156101000203166002900480601f0160208091040260200160405190810160405280929190818152602001828054600181600116156101000203166002900480156105845780601f1061055957610100808354040283529160200191610584565b820191906000526020600020905b81548152906001019060200180831161056757829003601f168201915b5050505050815260200190600101906104dc565b5050505092508180548060200260200160405190810160405280929190818152602001828054801561060e57602002820191906000526020600020906000905b82829054906101000a900460ff161515815260200190600101906020826000010492830192600103820291508084116105d85790505b50505050509150945094509450945094509091929394565b60006020528060005260406000206000915090505481565b60066020528060005260406000206000915090505481565b60004782111561066557600080fd5b8273ffffffffffffffffffffffffffffffffffffffff166108fc839081150290604051600060405180830381858888f193505050501580156106ab573d6000803e3d6000fd5b506001905092915050565b6000600660008373ffffffffffffffffffffffffffffffffffffffff1673ffffffffffffffffffffffffffffffffffffffff16815260200190815260200160002054905060016004828154811061070957fe5b90600052602060002090602091828204019190066101000a81548160ff0219169083151502179055505050565b828054600181600116156101000203166002900490600052602060002090601f016020900481019282601f1061077757805160ff19168380011785556107a5565b828001600101855582156107a5579182015b828111156107a4578251825591602001919060010190610789565b5b5090506107b291906107b6565b5090565b6107d891905b808211156107d45760008160009055506001016107bc565b5090565b90565b6000813590506107ea81610d0c565b92915050565b600082601f83011261080157600080fd5b813561081461080f82610b7e565b610b51565b9150808252602083016020830185838301111561083057600080fd5b61083b838284610cb9565b50505092915050565b60006020828403121561085657600080fd5b6000610864848285016107db565b91505092915050565b60008060006060848603121561088257600080fd5b600084013567ffffffffffffffff81111561089c57600080fd5b6108a8868287016107f0565b93505060206108b9868287016107db565b925050604084013567ffffffffffffffff8111156108d657600080fd5b6108e2868287016107f0565b9150509250925092565b60006108f88383610930565b60208301905092915050565b60006109108383610a70565b60208301905092915050565b60006109288383610a7f565b905092915050565b61093981610c71565b82525050565b600061094a82610bda565b6109548185610c2d565b935061095f83610baa565b8060005b8381101561099057815161097788826108ec565b975061098283610c06565b925050600181019050610963565b5085935050505092915050565b60006109a882610be5565b6109b28185610c3e565b93506109bd83610bba565b8060005b838110156109ee5781516109d58882610904565b97506109e083610c13565b9250506001810190506109c1565b5085935050505092915050565b6000610a0682610bf0565b610a108185610c4f565b935083602082028501610a2285610bca565b8060005b85811015610a5e5784840389528151610a3f858261091c565b9450610a4a83610c20565b925060208a01995050600181019050610a26565b50829750879550505050505092915050565b610a7981610c83565b82525050565b6000610a8a82610bfb565b610a948185610c60565b9350610aa4818560208601610cc8565b610aad81610cfb565b840191505092915050565b610ac181610caf565b82525050565b600060a0820190508181036000830152610ae181886109fb565b90508181036020830152610af5818761093f565b90508181036040830152610b0981866109fb565b90508181036060830152610b1d818561099d565b9050610b2c6080830184610ab8565b9695505050505050565b6000602082019050610b4b6000830184610ab8565b92915050565b6000604051905081810181811067ffffffffffffffff82111715610b7457600080fd5b8060405250919050565b600067ffffffffffffffff821115610b9557600080fd5b601f19601f8301169050602081019050919050565b6000819050602082019050919050565b6000819050602082019050919050565b6000819050602082019050919050565b600081519050919050565b600081519050919050565b600081519050919050565b600081519050919050565b6000602082019050919050565b6000602082019050919050565b6000602082019050919050565b600082825260208201905092915050565b600082825260208201905092915050565b600082825260208201905092915050565b600082825260208201905092915050565b6000610c7c82610c8f565b9050919050565b60008115159050919050565b600073ffffffffffffffffffffffffffffffffffffffff82169050919050565b6000819050919050565b82818337600083830152505050565b60005b83811015610ce6578082015181840152602081019050610ccb565b83811115610cf5576000848401525b50505050565b6000601f19601f8301169050919050565b610d1581610c71565b8114610d2057600080fd5b5056fea365627a7a72315820a195adad64cfb9123152239490bcbb0ee427cddc7cf33e87e9981800419714926c6578706572696d656e74616cf564736f6c63430005110040",
  "source": "pragma solidity ^0.5.0;\npragma experimental ABIEncoderV2; \n    \n    \ncontract UserWallets{\n    mapping(address => uint) public balances;\n    string[] walletName;\n    address[] walletAddr;\n    string[] walletDescription;\n    bool[] isMyWallet;\n    uint walletCount = 0;\n    \n    mapping(address => uint) public arrayIndex;\n    \n    function getAllWallets() public returns(string[] memory, address[] memory , string[] memory, bool[] memory, uint)\n    {\n        \n        return(walletName, walletAddr, walletDescription, isMyWallet, walletCount);\n    }\n    \n    function _getWalletIndex(address _addr) internal returns(uint){\n        return arrayIndex[_addr];\n    }\n    \n    function addWallet(string memory _walletName, address  _walletAddr, string memory _walletDescription) public  {\n       walletName.push(_walletName);\n       walletAddr.push(_walletAddr);\n       walletDescription.push(_walletDescription);\n       isMyWallet.push(false);\n       arrayIndex[_walletAddr] = walletCount;\n       walletCount++;\n    }\n    function _validate(address _walletToValidate) internal{\n        uint index = arrayIndex[_walletToValidate];\n        isMyWallet[index] = true;\n    }\n    \n    function _send(address payable _to, uint256 _value) internal returns (bool) \n    {\n        require(_value <= address(this).balance);\n        _to.transfer(_value);\n        return true;\n    }\n    function() external payable\n    {\n       _validateOwnership(msg.sender);\n    }\n    \n    function _validateOwnership(address  _walletToVerify) internal {\n        balances[msg.sender] += msg.value;\n        if(msg.sender == _walletToVerify){\n            _send(msg.sender, msg.value);\n            _validate(_walletToVerify);\n        }\n        \n    }\n\n    \n}\n    ",
  "sourcePath": "/home/alexandre/Dev/harmony/Hackathon/OpenFi/contracts/UserWalletContract.sol",
  "compiler": {
    "name": "solc",
    "version": "0.5.17+commit.d19bba13.Emscripten.clang"
  },
  "schemaVersion": "3.3.2",
  "updatedAt": "2021-01-16T13:22:14.333Z",
  "devdoc": {
    "methods": {}
  },
  "userdoc": {
    "methods": {}
  }
}