{
  "contractName": "UserTokenContract",
  "abi": [
    {
      "constant": true,
      "inputs": [],
      "name": "getContractAddr",
      "outputs": [
        {
          "internalType": "address",
          "name": "",
          "type": "address"
        }
      ],
      "payable": false,
      "stateMutability": "view",
      "type": "function"
    },
    {
      "constant": false,
      "inputs": [
        {
          "internalType": "address",
          "name": "_owner",
          "type": "address"
        }
      ],
      "name": "initialize",
      "outputs": [],
      "payable": false,
      "stateMutability": "nonpayable",
      "type": "function"
    },
    {
      "constant": true,
      "inputs": [],
      "name": "getAllTokens",
      "outputs": [
        {
          "internalType": "address[]",
          "name": "",
          "type": "address[]"
        },
        {
          "internalType": "string[]",
          "name": "",
          "type": "string[]"
        },
        {
          "internalType": "string[]",
          "name": "",
          "type": "string[]"
        },
        {
          "internalType": "string[]",
          "name": "",
          "type": "string[]"
        },
        {
          "internalType": "string[]",
          "name": "",
          "type": "string[]"
        },
        {
          "internalType": "uint256",
          "name": "",
          "type": "uint256"
        }
      ],
      "payable": false,
      "stateMutability": "view",
      "type": "function"
    },
    {
      "constant": false,
      "inputs": [
        {
          "internalType": "address",
          "name": "_tokenAddr",
          "type": "address"
        },
        {
          "internalType": "string",
          "name": "_tokenName",
          "type": "string"
        },
        {
          "internalType": "string",
          "name": "_tokenSymbol",
          "type": "string"
        },
        {
          "internalType": "string",
          "name": "_tokenImg",
          "type": "string"
        },
        {
          "internalType": "string",
          "name": "_color",
          "type": "string"
        }
      ],
      "name": "addToken",
      "outputs": [],
      "payable": false,
      "stateMutability": "nonpayable",
      "type": "function"
    }
  ],
  "bytecode": "0x6080604052600060065534801561001557600080fd5b50610cb1806100256000396000f3fe608060405234801561001057600080fd5b506004361061004c5760003560e01c80632a5c792a146100515780639e45593914610074578063c4d66de814610092578063d807e9a5146100ae575b600080fd5b6100596100ca565b60405161006b96959493929190610a5d565b60405180910390f35b61007c610509565b6040516100899190610a42565b60405180910390f35b6100ac60048036036100a791908101906107dd565b610511565b005b6100c860048036036100c39190810190610806565b610554565b005b60608060608060606000600160026003600460056006548580548060200260200160405190810160405280929190818152602001828054801561016257602002820191906000526020600020905b8160009054906101000a900473ffffffffffffffffffffffffffffffffffffffff1673ffffffffffffffffffffffffffffffffffffffff1681526020019060010190808311610118575b5050505050955084805480602002602001604051908101604052809291908181526020016000905b82821015610246578382906000526020600020018054600181600116156101000203166002900480601f0160208091040260200160405190810160405280929190818152602001828054600181600116156101000203166002900480156102325780601f1061020757610100808354040283529160200191610232565b820191906000526020600020905b81548152906001019060200180831161021557829003601f168201915b50505050508152602001906001019061018a565b50505050945083805480602002602001604051908101604052809291908181526020016000905b82821015610329578382906000526020600020018054600181600116156101000203166002900480601f0160208091040260200160405190810160405280929190818152602001828054600181600116156101000203166002900480156103155780601f106102ea57610100808354040283529160200191610315565b820191906000526020600020905b8154815290600101906020018083116102f857829003601f168201915b50505050508152602001906001019061026d565b50505050935082805480602002602001604051908101604052809291908181526020016000905b8282101561040c578382906000526020600020018054600181600116156101000203166002900480601f0160208091040260200160405190810160405280929190818152602001828054600181600116156101000203166002900480156103f85780601f106103cd576101008083540402835291602001916103f8565b820191906000526020600020905b8154815290600101906020018083116103db57829003601f168201915b505050505081526020019060010190610350565b50505050925081805480602002602001604051908101604052809291908181526020016000905b828210156104ef578382906000526020600020018054600181600116156101000203166002900480601f0160208091040260200160405190810160405280929190818152602001828054600181600116156101000203166002900480156104db5780601f106104b0576101008083540402835291602001916104db565b820191906000526020600020905b8154815290600101906020018083116104be57829003601f168201915b505050505081526020019060010190610433565b505050509150955095509550955095509550909192939495565b600030905090565b806000806101000a81548173ffffffffffffffffffffffffffffffffffffffff021916908373ffffffffffffffffffffffffffffffffffffffff16021790555050565b60018590806001815401808255809150509060018203906000526020600020016000909192909190916101000a81548173ffffffffffffffffffffffffffffffffffffffff021916908373ffffffffffffffffffffffffffffffffffffffff1602179055505060028490806001815401808255809150509060018203906000526020600020016000909192909190915090805190602001906105f79291906106cf565b505060038390806001815401808255809150509060018203906000526020600020016000909192909190915090805190602001906106369291906106cf565b505060048290806001815401808255809150509060018203906000526020600020016000909192909190915090805190602001906106759291906106cf565b505060058190806001815401808255809150509060018203906000526020600020016000909192909190915090805190602001906106b49291906106cf565b50506006600081548092919060010191905055505050505050565b828054600181600116156101000203166002900490600052602060002090601f016020900481019282601f1061071057805160ff191683800117855561073e565b8280016001018555821561073e579182015b8281111561073d578251825591602001919060010190610722565b5b50905061074b919061074f565b5090565b61077191905b8082111561076d576000816000905550600101610755565b5090565b90565b60008135905061078381610c57565b92915050565b600082601f83011261079a57600080fd5b81356107ad6107a882610b0e565b610ae1565b915080825260208301602083018583830111156107c957600080fd5b6107d4838284610c04565b50505092915050565b6000602082840312156107ef57600080fd5b60006107fd84828501610774565b91505092915050565b600080600080600060a0868803121561081e57600080fd5b600061082c88828901610774565b955050602086013567ffffffffffffffff81111561084957600080fd5b61085588828901610789565b945050604086013567ffffffffffffffff81111561087257600080fd5b61087e88828901610789565b935050606086013567ffffffffffffffff81111561089b57600080fd5b6108a788828901610789565b925050608086013567ffffffffffffffff8111156108c457600080fd5b6108d088828901610789565b9150509295509295909350565b60006108e98383610909565b60208301905092915050565b600061090183836109fa565b905092915050565b61091281610bc8565b82525050565b61092181610bc8565b82525050565b600061093282610b5a565b61093c8185610b95565b935061094783610b3a565b8060005b8381101561097857815161095f88826108dd565b975061096a83610b7b565b92505060018101905061094b565b5085935050505092915050565b600061099082610b65565b61099a8185610ba6565b9350836020820285016109ac85610b4a565b8060005b858110156109e857848403895281516109c985826108f5565b94506109d483610b88565b925060208a019950506001810190506109b0565b50829750879550505050505092915050565b6000610a0582610b70565b610a0f8185610bb7565b9350610a1f818560208601610c13565b610a2881610c46565b840191505092915050565b610a3c81610bfa565b82525050565b6000602082019050610a576000830184610918565b92915050565b600060c0820190508181036000830152610a778189610927565b90508181036020830152610a8b8188610985565b90508181036040830152610a9f8187610985565b90508181036060830152610ab38186610985565b90508181036080830152610ac78185610985565b9050610ad660a0830184610a33565b979650505050505050565b6000604051905081810181811067ffffffffffffffff82111715610b0457600080fd5b8060405250919050565b600067ffffffffffffffff821115610b2557600080fd5b601f19601f8301169050602081019050919050565b6000819050602082019050919050565b6000819050602082019050919050565b600081519050919050565b600081519050919050565b600081519050919050565b6000602082019050919050565b6000602082019050919050565b600082825260208201905092915050565b600082825260208201905092915050565b600082825260208201905092915050565b6000610bd382610bda565b9050919050565b600073ffffffffffffffffffffffffffffffffffffffff82169050919050565b6000819050919050565b82818337600083830152505050565b60005b83811015610c31578082015181840152602081019050610c16565b83811115610c40576000848401525b50505050565b6000601f19601f8301169050919050565b610c6081610bc8565b8114610c6b57600080fd5b5056fea365627a7a723158200b1271f0596df0cd7e07afa5a6acf6f417c59753df466c206615931bd54baa0f6c6578706572696d656e74616cf564736f6c63430005110040",
  "source": "pragma solidity >=0.4.22 <0.8.0;\npragma experimental ABIEncoderV2;\n\n\n\n\n\n\ncontract UserTokenContract {\n     address owner;\n     address[] tokenAddr;\n     string[] tokenName;\n     string[] tokenSymbol;\n     string[] tokenImg;\n     string[] color;\n     uint tokenCount = 0;\n     \n         function getContractAddr() public view returns (address){\n        \n        return address(this);\n    }\n           function initialize(address _owner) public  {\n            owner = _owner;\n  }\n     function getAllTokens() public view returns(address[] memory,string[] memory,string[] memory,string[] memory,string[] memory, uint ){\n         return(tokenAddr,tokenName,tokenSymbol,tokenImg,color,tokenCount);\n     }\n     function addToken(address _tokenAddr , string memory _tokenName, string memory _tokenSymbol, string memory _tokenImg, string memory _color) public {\n         tokenAddr.push(_tokenAddr);\n         tokenName.push(_tokenName);\n         tokenSymbol.push(_tokenSymbol);\n         tokenImg.push(_tokenImg);\n         color.push(_color);\n         tokenCount++;\n         \n     }\n    \n}",
  "sourcePath": "/home/alexandre/Dev/harmony/Hackathon/openfi/contracts/UserTokenContract.sol",
  "compiler": {
    "name": "solc",
    "version": "0.5.17+commit.d19bba13.Emscripten.clang"
  },
  "schemaVersion": "3.3.2",
  "updatedAt": "2021-01-16T14:48:28.407Z",
  "networkType": "ethereum",
  "devdoc": {
    "methods": {}
  },
  "userdoc": {
    "methods": {}
  }
}