{
  "contractName": "UserBudgetContract",
  "abi": [
    {
      "constant": true,
      "inputs": [
        {
          "internalType": "string",
          "name": "",
          "type": "string"
        }
      ],
      "name": "mappedtxCategories",
      "outputs": [
        {
          "internalType": "string",
          "name": "",
          "type": "string"
        }
      ],
      "payable": false,
      "stateMutability": "view",
      "type": "function"
    },
    {
      "constant": false,
      "inputs": [
        {
          "internalType": "address",
          "name": "_owner",
          "type": "address"
        }
      ],
      "name": "initialize",
      "outputs": [],
      "payable": false,
      "stateMutability": "nonpayable",
      "type": "function"
    },
    {
      "constant": false,
      "inputs": [
        {
          "internalType": "string",
          "name": "_txid",
          "type": "string"
        },
        {
          "internalType": "string",
          "name": "_cat",
          "type": "string"
        }
      ],
      "name": "setTxCategory",
      "outputs": [],
      "payable": false,
      "stateMutability": "nonpayable",
      "type": "function"
    },
    {
      "constant": true,
      "inputs": [],
      "name": "getContractAddr",
      "outputs": [
        {
          "internalType": "address",
          "name": "",
          "type": "address"
        }
      ],
      "payable": false,
      "stateMutability": "view",
      "type": "function"
    },
    {
      "constant": true,
      "inputs": [],
      "name": "getAllCategories",
      "outputs": [
        {
          "internalType": "string[]",
          "name": "",
          "type": "string[]"
        }
      ],
      "payable": false,
      "stateMutability": "view",
      "type": "function"
    },
    {
      "constant": true,
      "inputs": [],
      "name": "getAllTxids",
      "outputs": [
        {
          "internalType": "string[]",
          "name": "",
          "type": "string[]"
        }
      ],
      "payable": false,
      "stateMutability": "view",
      "type": "function"
    },
    {
      "constant": true,
      "inputs": [
        {
          "internalType": "string",
          "name": "txid",
          "type": "string"
        }
      ],
      "name": "getTxCategory",
      "outputs": [
        {
          "internalType": "string",
          "name": "",
          "type": "string"
        }
      ],
      "payable": false,
      "stateMutability": "view",
      "type": "function"
    }
  ],
  "bytecode": "0x60806040526000600455600060055534801561001a57600080fd5b5061090b8061002a6000396000f3fe608060405234801561001057600080fd5b506004361061007d5760003560e01c8063dadd0a571161005b578063dadd0a57146100d5578063e7236674146100ea578063f6a6d5a9146100fd578063f7a1ddf3146101055761007d565b80639e45593914610082578063b2d46fdd146100a0578063c4d66de8146100c0575b600080fd5b61008a610118565b60405161009791906107c7565b60405180910390f35b6100b36100ae366004610626565b61011d565b60405161009791906107e6565b6100d36100ce366004610600565b6101cc565b005b6100dd6101ee565b60405161009791906107d5565b6100d36100f836600461065b565b6102c9565b6100dd61038c565b6100b3610113366004610626565b61045c565b305b90565b60608060068360405161013091906107bb565b9081526040805160209281900383018120805460026001821615610100026000190190911604601f810185900485028301850190935282825290929091908301828280156101bf5780601f10610194576101008083540402835291602001916101bf565b820191906000526020600020905b8154815290600101906020018083116101a257829003601f168201915b5093979650505050505050565b600080546001600160a01b0319166001600160a01b0392909216919091179055565b6060806003805480602002602001604051908101604052809291908181526020016000905b828210156102be5760008481526020908190208301805460408051601f60026000196101006001871615020190941693909304928301859004850281018501909152818152928301828280156102aa5780601f1061027f576101008083540402835291602001916102aa565b820191906000526020600020905b81548152906001019060200180831161028d57829003601f168201915b505050505081526020019060010190610213565b509294505050505090565b806006836040516102da91906107bb565b908152602001604051809103902090805190602001906102fb929190610503565b5060028054600181018083556000929092528351610340917f405787fa12a823e0f2b7631cc41b3ba8828b3321ca811111fa75cd3aa3bb5ace01906020860190610503565b505060038054600181018083556000929092528251610386917fc2575a0e9e593c00f959f8c92f12db2869c3395a3b0502d05e2516446f71f85b01906020850190610503565b50505050565b6060806002805480602002602001604051908101604052809291908181526020016000905b828210156102be5760008481526020908190208301805460408051601f60026000196101006001871615020190941693909304928301859004850281018501909152818152928301828280156104485780601f1061041d57610100808354040283529160200191610448565b820191906000526020600020905b81548152906001019060200180831161042b57829003601f168201915b5050505050815260200190600101906103b1565b805160208183018101805160068252928201938201939093209190925280546040805160026001841615610100026000190190931692909204601f810185900485028301850190915280825290928301828280156104fb5780601f106104d0576101008083540402835291602001916104fb565b820191906000526020600020905b8154815290600101906020018083116104de57829003601f168201915b505050505081565b828054600181600116156101000203166002900490600052602060002090601f016020900481019282601f1061054457805160ff1916838001178555610571565b82800160010185558215610571579182015b82811115610571578251825591602001919060010190610556565b5061057d929150610581565b5090565b61011a91905b8082111561057d5760008155600101610587565b80356105a6816108b1565b92915050565b600082601f8301126105bd57600080fd5b81356105d06105cb8261081e565b6107f7565b915080825260208301602083018583830111156105ec57600080fd5b6105f783828461086f565b50505092915050565b60006020828403121561061257600080fd5b600061061e848461059b565b949350505050565b60006020828403121561063857600080fd5b813567ffffffffffffffff81111561064f57600080fd5b61061e848285016105ac565b6000806040838503121561066e57600080fd5b823567ffffffffffffffff81111561068557600080fd5b610691858286016105ac565b925050602083013567ffffffffffffffff8111156106ae57600080fd5b6106ba858286016105ac565b9150509250929050565b60006106d08383610754565b9392505050565b6106e08161085e565b82525050565b60006106f18261084c565b6106fb8185610850565b93508360208202850161070d85610846565b8060005b85811015610747578484038952815161072a85826106c4565b945061073583610846565b60209a909a0199925050600101610711565b5091979650505050505050565b600061075f8261084c565b6107698185610850565b935061077981856020860161087b565b610782816108a7565b9093019392505050565b60006107978261084c565b6107a18185610859565b93506107b181856020860161087b565b9290920192915050565b60006106d0828461078c565b602081016105a682846106d7565b602080825281016106d081846106e6565b602080825281016106d08184610754565b60405181810167ffffffffffffffff8111828210171561081657600080fd5b604052919050565b600067ffffffffffffffff82111561083557600080fd5b506020601f91909101601f19160190565b60200190565b5190565b90815260200190565b919050565b60006001600160a01b0382166105a6565b82818337506000910152565b60005b8381101561089657818101518382015260200161087e565b838111156103865750506000910152565b601f01601f191690565b6108ba8161085e565b81146108c557600080fd5b5056fea365627a7a723158208cf7015293751431262b1d5f93487cf2839847eb22a322b60b6265df3df8bb0b6c6578706572696d656e74616cf564736f6c63430005110040",
  "source": "pragma solidity ^0.5.0;\npragma experimental ABIEncoderV2; \n\n    \ncontract UserBudgetContract {\n    // Budget context\n    address owner;\n    string[1][] txcat;\n    string[] txids;\n    string[] categories;\n    uint ArraySize = 0;\n\n\n    uint arrayLength=0;\n    function initialize(address _owner) public{\n        owner = _owner;\n    }\n    mapping(string => string) public mappedtxCategories;\n\n    function setTxCategory(string memory _txid, string memory _cat) public {\n        mappedtxCategories[_txid] = _cat;\n        txids.push(_txid);\n        categories.push(_cat);\n    }\n    function getContractAddr() public view returns (address){\n        address thisaddr = address(this);\n        return thisaddr;\n    }\n    function getAllCategories() public view returns (string[] memory){\n        string[] memory _allcat = categories;\n        return _allcat;\n    }\n    function getAllTxids() public view returns(string[] memory){\n        string[] memory _alltx = txids;\n        return _alltx;\n\n    }\n\n\n    function getTxCategory(string memory txid) public view returns(string memory)\n    {\n        string memory whereisit = mappedtxCategories[txid];\n        return whereisit;\n    }\n\n}\n",
  "sourcePath": "/home/alexandre/Dev/harmony/Hackathon/openfi/contracts/UserBudgetContract.sol",
  "compiler": {
    "name": "solc",
    "version": "0.5.17+commit.d19bba13.Emscripten.clang"
  },
  "schemaVersion": "3.3.2",
  "updatedAt": "2021-01-25T15:06:48.716Z",
  "devdoc": {
    "methods": {}
  },
  "userdoc": {
    "methods": {}
  }
}