{
  "contractName": "UserTokenContract",
  "abi": [
    {
      "constant": true,
      "inputs": [],
      "name": "owner",
      "outputs": [
        {
          "internalType": "address",
          "name": "",
          "type": "address"
        }
      ],
      "payable": false,
      "stateMutability": "view",
      "type": "function"
    },
    {
      "constant": false,
      "inputs": [
        {
          "internalType": "address",
          "name": "newOwner",
          "type": "address"
        }
      ],
      "name": "transferOwnership",
      "outputs": [],
      "payable": false,
      "stateMutability": "nonpayable",
      "type": "function"
    },
    {
      "constant": false,
      "inputs": [
        {
          "internalType": "address",
          "name": "_owner",
          "type": "address"
        }
      ],
      "name": "initialize",
      "outputs": [],
      "payable": false,
      "stateMutability": "nonpayable",
      "type": "function"
    },
    {
      "constant": true,
      "inputs": [],
      "name": "getAllTokens",
      "outputs": [
        {
          "internalType": "address[]",
          "name": "",
          "type": "address[]"
        },
        {
          "internalType": "string[]",
          "name": "",
          "type": "string[]"
        },
        {
          "internalType": "string[]",
          "name": "",
          "type": "string[]"
        },
        {
          "internalType": "string[]",
          "name": "",
          "type": "string[]"
        },
        {
          "internalType": "string[]",
          "name": "",
          "type": "string[]"
        },
        {
          "internalType": "uint256",
          "name": "",
          "type": "uint256"
        }
      ],
      "payable": false,
      "stateMutability": "view",
      "type": "function"
    },
    {
      "constant": false,
      "inputs": [
        {
          "internalType": "address",
          "name": "_tokenAddr",
          "type": "address"
        },
        {
          "internalType": "string",
          "name": "_tokenName",
          "type": "string"
        },
        {
          "internalType": "string",
          "name": "_tokenSymbol",
          "type": "string"
        },
        {
          "internalType": "string",
          "name": "_tokenImg",
          "type": "string"
        },
        {
          "internalType": "string",
          "name": "_color",
          "type": "string"
        }
      ],
      "name": "addToken",
      "outputs": [],
      "payable": false,
      "stateMutability": "nonpayable",
      "type": "function"
    }
  ],
  "bytecode": "0x60806040526000600655336000806101000a81548173ffffffffffffffffffffffffffffffffffffffff021916908373ffffffffffffffffffffffffffffffffffffffff160217905550610dd9806100586000396000f3fe608060405234801561001057600080fd5b50600436106100575760003560e01c80632a5c792a1461005c5780638da5cb5b1461007f578063c4d66de81461009d578063d807e9a5146100b9578063f2fde38b146100d5575b600080fd5b6100646100f1565b60405161007696959493929190610b85565b60405180910390f35b610087610530565b6040516100949190610b6a565b60405180910390f35b6100b760048036036100b29190810190610905565b610555565b005b6100d360048036036100ce919081019061092e565b610558565b005b6100ef60048036036100ea9190810190610905565b610729565b005b60608060608060606000600160026003600460056006548580548060200260200160405190810160405280929190818152602001828054801561018957602002820191906000526020600020905b8160009054906101000a900473ffffffffffffffffffffffffffffffffffffffff1673ffffffffffffffffffffffffffffffffffffffff168152602001906001019080831161013f575b5050505050955084805480602002602001604051908101604052809291908181526020016000905b8282101561026d578382906000526020600020018054600181600116156101000203166002900480601f0160208091040260200160405190810160405280929190818152602001828054600181600116156101000203166002900480156102595780601f1061022e57610100808354040283529160200191610259565b820191906000526020600020905b81548152906001019060200180831161023c57829003601f168201915b5050505050815260200190600101906101b1565b50505050945083805480602002602001604051908101604052809291908181526020016000905b82821015610350578382906000526020600020018054600181600116156101000203166002900480601f01602080910402602001604051908101604052809291908181526020018280546001816001161561010002031660029004801561033c5780601f106103115761010080835404028352916020019161033c565b820191906000526020600020905b81548152906001019060200180831161031f57829003601f168201915b505050505081526020019060010190610294565b50505050935082805480602002602001604051908101604052809291908181526020016000905b82821015610433578382906000526020600020018054600181600116156101000203166002900480601f01602080910402602001604051908101604052809291908181526020018280546001816001161561010002031660029004801561041f5780601f106103f45761010080835404028352916020019161041f565b820191906000526020600020905b81548152906001019060200180831161040257829003601f168201915b505050505081526020019060010190610377565b50505050925081805480602002602001604051908101604052809291908181526020016000905b82821015610516578382906000526020600020018054600181600116156101000203166002900480601f0160208091040260200160405190810160405280929190818152602001828054600181600116156101000203166002900480156105025780601f106104d757610100808354040283529160200191610502565b820191906000526020600020905b8154815290600101906020018083116104e557829003601f168201915b50505050508152602001906001019061045a565b505050509150955095509550955095509550909192939495565b6000809054906101000a900473ffffffffffffffffffffffffffffffffffffffff1681565b50565b6000809054906101000a900473ffffffffffffffffffffffffffffffffffffffff1673ffffffffffffffffffffffffffffffffffffffff163373ffffffffffffffffffffffffffffffffffffffff1614156107225760018590806001815401808255809150509060018203906000526020600020016000909192909190916101000a81548173ffffffffffffffffffffffffffffffffffffffff021916908373ffffffffffffffffffffffffffffffffffffffff1602179055505060028490806001815401808255809150509060018203906000526020600020016000909192909190915090805190602001906106509291906107f7565b5050600383908060018154018082558091505090600182039060005260206000200160009091929091909150908051906020019061068f9291906107f7565b505060048290806001815401808255809150509060018203906000526020600020016000909192909190915090805190602001906106ce9291906107f7565b5050600581908060018154018082558091505090600182039060005260206000200160009091929091909150908051906020019061070d9291906107f7565b50506006600081548092919060010191905055505b5050505050565b6000809054906101000a900473ffffffffffffffffffffffffffffffffffffffff1673ffffffffffffffffffffffffffffffffffffffff163373ffffffffffffffffffffffffffffffffffffffff1614156107f457600073ffffffffffffffffffffffffffffffffffffffff168173ffffffffffffffffffffffffffffffffffffffff16146107f357806000806101000a81548173ffffffffffffffffffffffffffffffffffffffff021916908373ffffffffffffffffffffffffffffffffffffffff1602179055505b5b50565b828054600181600116156101000203166002900490600052602060002090601f016020900481019282601f1061083857805160ff1916838001178555610866565b82800160010185558215610866579182015b8281111561086557825182559160200191906001019061084a565b5b5090506108739190610877565b5090565b61089991905b8082111561089557600081600090555060010161087d565b5090565b90565b6000813590506108ab81610d7f565b92915050565b600082601f8301126108c257600080fd5b81356108d56108d082610c36565b610c09565b915080825260208301602083018583830111156108f157600080fd5b6108fc838284610d2c565b50505092915050565b60006020828403121561091757600080fd5b60006109258482850161089c565b91505092915050565b600080600080600060a0868803121561094657600080fd5b60006109548882890161089c565b955050602086013567ffffffffffffffff81111561097157600080fd5b61097d888289016108b1565b945050604086013567ffffffffffffffff81111561099a57600080fd5b6109a6888289016108b1565b935050606086013567ffffffffffffffff8111156109c357600080fd5b6109cf888289016108b1565b925050608086013567ffffffffffffffff8111156109ec57600080fd5b6109f8888289016108b1565b9150509295509295909350565b6000610a118383610a31565b60208301905092915050565b6000610a298383610b22565b905092915050565b610a3a81610cf0565b82525050565b610a4981610cf0565b82525050565b6000610a5a82610c82565b610a648185610cbd565b9350610a6f83610c62565b8060005b83811015610aa0578151610a878882610a05565b9750610a9283610ca3565b925050600181019050610a73565b5085935050505092915050565b6000610ab882610c8d565b610ac28185610cce565b935083602082028501610ad485610c72565b8060005b85811015610b105784840389528151610af18582610a1d565b9450610afc83610cb0565b925060208a01995050600181019050610ad8565b50829750879550505050505092915050565b6000610b2d82610c98565b610b378185610cdf565b9350610b47818560208601610d3b565b610b5081610d6e565b840191505092915050565b610b6481610d22565b82525050565b6000602082019050610b7f6000830184610a40565b92915050565b600060c0820190508181036000830152610b9f8189610a4f565b90508181036020830152610bb38188610aad565b90508181036040830152610bc78187610aad565b90508181036060830152610bdb8186610aad565b90508181036080830152610bef8185610aad565b9050610bfe60a0830184610b5b565b979650505050505050565b6000604051905081810181811067ffffffffffffffff82111715610c2c57600080fd5b8060405250919050565b600067ffffffffffffffff821115610c4d57600080fd5b601f19601f8301169050602081019050919050565b6000819050602082019050919050565b6000819050602082019050919050565b600081519050919050565b600081519050919050565b600081519050919050565b6000602082019050919050565b6000602082019050919050565b600082825260208201905092915050565b600082825260208201905092915050565b600082825260208201905092915050565b6000610cfb82610d02565b9050919050565b600073ffffffffffffffffffffffffffffffffffffffff82169050919050565b6000819050919050565b82818337600083830152505050565b60005b83811015610d59578082015181840152602081019050610d3e565b83811115610d68576000848401525b50505050565b6000601f19601f8301169050919050565b610d8881610cf0565b8114610d9357600080fd5b5056fea365627a7a72315820bebf93fc25c19ef00f41833e0aec60b4b01066f5fc8000cfd342cd7a302d89216c6578706572696d656e74616cf564736f6c63430005110040",
  "source": "pragma solidity >=0.4.22 <0.8.0;\npragma experimental ABIEncoderV2;\n\ncontract Ownable {\n  address public owner;\n\n  constructor() internal{\n    owner = msg.sender;\n  }\n\n  modifier onlyOwner() {\n    if (msg.sender == owner)\n      _;\n  }\n\n   function transferOwnership(address newOwner) onlyOwner public{\n    if (newOwner != address(0)) owner = newOwner;\n  }\n\n}\n\ncontract UserTokenContract is Ownable{\n     address[] tokenAddr;\n     string[] tokenName;\n     string[] tokenSymbol;\n     string[] tokenImg;\n     string[] color;\n     uint tokenCount = 0;\n     \n       function initialize(address _owner) public  {\n            Ownable(_owner);\n  }\n     function getAllTokens() public view returns(address[] memory,string[] memory,string[] memory,string[] memory,string[] memory, uint ){\n         return(tokenAddr,tokenName,tokenSymbol,tokenImg,color,tokenCount);\n     }\n     function addToken(address _tokenAddr , string memory _tokenName, string memory _tokenSymbol, string memory _tokenImg, string memory _color) onlyOwner public {\n         tokenAddr.push(_tokenAddr);\n         tokenName.push(_tokenName);\n         tokenSymbol.push(_tokenSymbol);\n         tokenImg.push(_tokenImg);\n         color.push(_color);\n         tokenCount++;\n         \n     }\n    \n}",
  "sourcePath": "/home/alexandre/Dev/harmony/open.fi/contracts/UserTokenContract.sol",
  "compiler": {
    "name": "solc",
    "version": "0.5.17+commit.d19bba13.Emscripten.clang"
  },
  "schemaVersion": "3.3.2",
  "updatedAt": "2021-01-13T21:56:57.973Z",
  "networkType": "ethereum",
  "devdoc": {
    "methods": {}
  },
  "userdoc": {
    "methods": {}
  }
}